:400000000010002011000000051800000518000008B501F0F9FBC046F0B557464E464546E0B472B6764B012280241A700021E2007448802502F05CFB0021EA00724802F00A
:4000400057FB724E24208119FF228846002791468A4602CE4C46CBB2A143002B2AD0013BDDB2281C7A0001305244AC4645001078AB1E9C0743185078E40F18700223AB42C0
:4000800016D0002C06D09478D078631818700423AB420DD0D45C6018D418647802330470D05CD4186478401802330470AB42F1D1013767444645CCD15549564D564A574BC5
:4000C0002960574E574F584C584D1A60EE20C121574A584B3E602060574F29605748584C584D1A603F26FE21574B3E60FF222060564F29605648574C574D1A60A3260321A7
:40010000564B3E6024222060554E2960554F802055491A608403554D554A3E6099230C60544F5548554C15601E045549554D3E60554A2060554B564F564C0E600E202E601E
:40014000554D0D261A603E602060297802220A432A702B7806261E43504F2E7038688024E50205434E4B3D604E494F4A5E7A0D7811782F2E10D99F799D7AD97A2F2F0BD930
:40018000D878DD79197A2F2806D91C781D7959792F2C01D95D789978444A454B454E1560196037784448454D0760052001F054FC3524434A434B2C60202110268227424CD2
:4001C000116038061E60802540498026334B20602A06F7023E483F4C0A603F4D1F603F493F4F404B2060FF263F480D603E601E600468224302601CBC90469946A246F0BDA6
:400200001C700F4000300F4000400F40482700000300003300000140333333000400014033EE30300C0001401000014000000440C600D8000800044000010440B66D030059
:4002400008010440000204401802044000030440B60DC3000803044000040440080404400400990000500F4004500F40000002B008500F4010500F4000006C0718500F40C8
:4002800020500F4030500F40000008C438500F402000004000800F4000700F4000010B40C0F1FF0FCCF1FF0FCDF1FF0F1CFF0B4020FF0B40FDF1FF0F28FF0B402CFF0B40C9
:4002C000080202401C02024008010B4004010B400B000080000002401D0000804000024000031A4040031A4080031A4010B5064C2378002B07D10548002802D0044800E0C3
:4003000000BF0121217010BDE0000020000000000427000008B5084B002B03D00748084900E000BF07480168002903D0064A002A00D0904708BDC04600000000042700003B
:40034000E4000020C800002000000000054B00B51A68002A02D00020186000BD01211960FBE7C046CC000020F0B55F464D4644465646F0B4674B6849684D082201201A60C6
:4003800008702C7887B00134E7B22F70012F00D1B9E0032F00D1A5E0614A6E781478B7003801604BC11B0C19E75C5F4C2770697812788800451C2E01771BB946BF18FD5CD9
:4003C00093462570851C2E01751BAE180296A846F55CC61C25703501AD1BAC46E3445E46F55CDF1925708C01201A86189D196C7982464E48994404707E7991440670029DF2
:400400005E465C1967799D1907706C7998440470081C083086008701BD1BAC180295039418194779741C4248250107702F1BBC18059404971D196F79B41C250107702F1B5E
:40044000BD1801975C19033667793401A61BB41807701F197F799044077050461F18B818877A34489C4407704F46BF7A944407704746BF7A9E1907706746BF7A0770029854
:400480001F18B818877A2C480770049FFF18B84690444746BF7A0770019FFF18BC4694446746BF7AB2180770977A244A07700398C65C1670059F0326F85C174F1070ED5C3F
:4004C0001F4815703E70067807252940AE4331430170E35C137007B03CBC90469946A246AB46F0BD68780E4A01300023C1B213702B70082903D069708F00002450E76B700E
:40050000002400274CE7064A6E7817700124B70046E7C04680E200E071000F40FC000020F00400203001002042000F4043000F4053000F4041000F4051000F4052000F4058
:4005400072000F40444B454A196845481368454A00B5C3801368444A03811368434A43811368434A83811368424AC3811368424A03821368FF2243821302818019409942A5
:400580002ED0C388FF22934311028B4230D00189FF2291431302994232D04389FF22934311028B4234D08189FF2291431302994236D0C389FF22934311028B4238D0018A58
:4005C000FF229143130299423AD0438AFF22934311028B423CD0082201214261017600BDC3880021FF228180934311028B42CED101890023FF22C380914313029942CCD1E4
:4006000043890021FF220181934311028B42CAD181890023FF224381914313029942C8D1C3890021FF228181934311028B42C6D1018A0023FF22C381914313029942C4D121
:40064000438A0021FF220182934311028B42C2D100234382BFE7C04680011A4084011A40FC00002088011A408C011A4090011A4094011A4098011A409C011A40F0B55F465D
:4006800056464D464446F0B48BB001F0F9FA01AC0421002001F044F8201C01F033F8201C01F050F86846012300224274827442758275C275427642770374C374037503763D
:4006C0008376C37603778377C37708A9212523200B706D4409A968440B702B7003702227252326256B4402266F446D441E703E702E70754D27266E443270281C734F00F083
:40070000ABF901F025F903223A70714801F00EF901F066FA01F072FA6E4801F093FA6E4801F056FD62B66D481C2181466C4E8944012001F051F93768002F00D0ACE067491C
:400740000A7E012AF4D14846664900F097FF634B1F760128ECD198880F22C109114019771F1CDB880F20DA093B8902407A77DA097B890240BA77DA090240FA77BF892022F8
:40078000FB090340554893468354C7890F225348FB0913402127C355038ABA464F48DF090F2217402223C754478A98464B48FB090F2213402327C355049A00202B1C00F0BD
:4007C000FBFE464B6846027D1D215956C37C407D12021A4303041A4301202B1C00F0ECFE3E4A68461E215156027EC38A12041A4302202B1C00F0E0FE38481F2141566846AA
:40080000827E437EC07E12021A4303041A4303202B1C00F0D1FE31495A4689560420079A2B1C00F0C9FE2D485346C1566A4608A8D37F027812021A4321236B4418780304B3
:400840001A4305202B1C00F0B7FE244942468956684609AA438C107802041A4306202B1C00F0AAFE1D492622C9576A44252710786F443B78272702026F441A433B7818042F
:4008800002432B1C072000F097FE012001F0A4F83768002F00D152E7201C00F07FFF207800F022FF071C607800F01EFF6A46011C107ED38A02041A43381C2B1C00F050FE2B
:4008C000281C00F0C9F833E73001002071000F4069030000450500004D030000FC000020CC0000200001002010B58B00C4081919CBB21C01E11A07231840012484405218F1
:40090000E143CCB213785079917A23402040214013705071537890799172D17A234020402140537090719378D079D172117B2340204021409370D071D378107A1173517B94
:40094000234020402140D37010721379507A5173917B234020400C4013715072947310BDF0B5CFB283B0041C0192391C1A1CC0B21E1CFFF7B9FFE117490F0C19B800E3102E
:40098000C21857B207223801144001ADC31B611AF3184AB22E7801216C78A8780D1C1F78354095403D431D700D1C5F79254095403D435D710D1C9F7A054095403D439D7239
:4009C00075105F780D4095403D435D7065109F790D4095403D439D714510DF7A0D4095403D43DD72B5109F780D4095403D439D70A510DF790D4095403D43DD7185101F7B99
:400A00000D4095403D431D73F510DF780D4095403D43DD70E5101F7A0D4095403D431D72C5105F7B0D4000113611241195400E400C4001403D4391405F7A5D7396401D79DB
:400A400094400A1C997B2E433C430A431E715C729A7303B0F0BDC04600B5402100230239C9B203704371837243708371C3728370C3710373C370037243730371437283735A
:400A8000C3730375437603744375837643748375C3768374C3750377C374037643771E300029DCD100BDC046F0B54D4644465F465646F0B483B0041C0D1C0D985E1B8046BE
:400AC000F01736184640171CB1463E1BF0173618211C4640B14500DCB9E00124A1461F1C2C1C131C0D1CBC4200DDA9E0081C111C021C3E1B8A1AF0B2D1175218834640B2AF
:400B00004A40C10F0E187010FF21C6B200919D4201DA01230093BC4200DD8AE0381B0121D2B201404B4692460191002B00D093E0201C291C0C9A4346FFF712FF5246B61A14
:400B4000F0B2C6B271B2002900DA93E0013464B2A7426EDB019A002A15D04846002800D08EE0291C0C9A4346201CFFF7F9FE5146761AF3B2DEB272B2002A00DA8EE00134E3
:400B800064B2A74255DB391C4F46894621E0211C0C9A4346281CFFF7E3FE5346F61AF1B2CEB272B2002A23DB013464B2002F29D0281C211C0C9A4346FFF7D2FE5146721AA1
:400BC000D3B2DEB270B2002829DB013464B2A1452FDB002FDBD1291C0C9A4346201CFFF7BFFE5346F61AF1B2CEB272B2002ADBDA00985B462D18CE1801346DB2F6B264B2D4
:400C0000002FD5D1201C291C0C9A4346FFF7A8FE5146721AD3B2DEB270B20028D5DA009E59460134AD195A1864B26DB2D6B2A145CFDA03B03CBC90469946A246AB46F0BD86
:400C40002E1C201C1D1C3C1C331C071C51E7002189461A1C291C46E7281C211C0C9A4346FFF77EFE5246B61AF0B2C6B271B2002900DB6BE7009B5844ED186DB2C6B265E7DF
:400C8000211C0C9A4346281CFFF76AFE5146761AF3B2DEB272B2002A00DB70E700985B442D186DB2DEB26AE770B584B0041C1D1C68461E0C058086705318089A5BB201921C
:400CC000201C221CFFF7F0FE04B070BD30B585B00C1C1D1C69461B0C8B700D80089D121852B20195211C231CFFF7DEFE05B030BDF0B55F4656464D464446F0B40D1C85B07E
:400D00001F1C061CEBB294460392F6B2101C1A1C010C0B32F01C8B4641B250B288468146614668460180721D5946093303AC817052B2404649465BB20197FFF7B5FE22889E
:400D40006B461A80A078291C9870424640464B460197FFF7A9FE2388B11C043672B26E463380A47848B2B470291C01972B1CFFF79BFE05B03CBC90469946A246AB46F0BDDD
:400D8000F0B54F464646C0B4CDB2C6B20F1C291C1C1C0A31731D85B058B249B2231C80460392FFF7DDFDB21C281C53B20B30994641B20094181C0222039B0136FFF786FF8B
:400DC00076B2E91D301C039B49B200940322FFF76BFFAA1D51B24846039B009402220135FFF774FF69B24046039B00940422FFF75BFF0094301C391C0422039BFFF766FFDD
:400E000005B00CBC90469946F0BDC046F0B5CEB285B0171CF11C041C03921D1C009349B23B1C02220736FFF73FFF71B20095201C0222039BFFF738FF05B0F0BDF0B54F464C
:400E40004646C0B4CDB2C6B28846771C291C85B094461C1C7FB20B3163460392381C49B200940422FFF732FFE81D41B2039B381C00940322FFF718FFB21C53B2A91D013534
:400E80009946181C6DB2039B49B200940122FFF71DFF381C291C039B00940422FFF704FF053648464146039B00940222FFF70EFF70B2291C039A231CFFF752FD05B00CBC06
:400EC00090469946F0BDC046F0B5C5B2CFB285B094460E1C681DB91D1C1C0392009340B2634649B20522FFF7DFFE05376A1C50B279B2039B009404220235FFF7E7FE68B2F6
:400F00000094311C0B22039BFFF7CEFE05B0F0BDF0B54F464646C0B4CDB2C6B28846291C85B01C1C171C731C0B3158B203923B1C49B200940422771D81467FB2FFF7C6FE41
:400F4000AB1D59B2381C039B009404220236FFF7ABFE76B26A1D013551B2301C039B6DB200940222FFF7B2FE4846291C039B00940322FFF799FE301C4146039B00940222EC
:400F8000FFF7A4FE381C291C039A231CFFF7E8FC05B00CBC90469946F0BDC046F0B54F464646C0B4CEB2C5B20F1C311C85B094461C1C0B316B1C58B20392634649B20094DB
:400FC00003228046FFF782FE721C53B299464046191C0094039B0422FFF766FEA81C41B28846063671B24046039B009402220535FFF76CFE68B24946039B00940922FFF75B
:4010000053FE00944046391C0222039BFFF75EFE05B00CBC90469946F0BDC046F0B5CFB20D1CC6B2391C701D0A31013685B01C1C76B240B249B20B370392FFF791FC79B2D5
:40104000301C039B00940422FFF740FE0094301C291C0B22039BFFF727FE05B0F0BDC046F0B5474680B4C6B2B71C84B094467FB20D1C1C1CEDB203920093381C63460222EC
:40108000FFF724FEA91D381C039B49B200940222FFF71CFE281C0B3041B2039B381C00940222FFF713FE721C6B1C57B259B205368846381C039B76B2009404220735FFF742
:4010C000F3FD6DB2301C4146039B00940422FFF7EBFD381C291C039B00940322FFF7E4FD0094301C291C0322039BFFF7DDFD04B004BC9046F0BDC046F0B5474680B4CEB276
:40110000C5B20F1C311C84B094461C1C0B31AB1C58B20392634649B2009402228046FFF7D5FDB21D51B24046039B00940222FFF7CDFD07366B1D58B271B2039B0094032237
:401140000135FFF7B1FD68B20094391C0A22039BFFF7AAFD04B004BC9046F0BDF0B5474680B4C6B284B094461C1C0D1C731C071C039258B2009463460222EDB28046FFF7DA
:40118000A5FD291C0B3101354046039B6DB249B200940222FFF79AFD0436381C291C039B00940922FFF780FD70B20094291C0922039BFFF779FD04B004BC9046F0BDC04683
:4011C000F0B55F4656464D464446F0B4061C85B0101C03929346040CF2B2A446CDB21C1C131C914604332A1C02325BB2A8469A4655B26B465A4648461A80023062469A700C
:4012000040B252462B1C0194FFF74EFC494603AF013148B239886A461180BF784346834601339770301C291C5A465BB20194FFF73BFC4046073041B2039B58460094022231
:40124000FFF744FD5046291C039B00940922FFF72BFD0094301C291C0922039BFFF724FD05B03CBC90469946A246AB46F0BDC046F0B54F464646C0B48146C0B2061CCDB2DA
:40128000013685B094461C1C0F1C76B2691D63460392804649B2301C00940322FFF716FD4846391C039B00940C22FFF7FDFC4246043253B2681C994641B20094181C042291
:4012C000039BFFF7F1FCA91D4846039B49B200940522FFF7E9FC0B35301C391C039B00940322FFF7F3FC69B20094301C0322039BFFF7ECFC05B00CBC90469946F0BDC0464C
:40130000F0B5474680B4CDB284B01C1C061C8846171CA91C03923B1C49B200940822F6B2FFF7C2FCB01C47B2381C4146039B00940322FFF7CBFC2A1C0B3251B2381C039B47
:40134000009403220136FFF7C1FC76B26B1C59B2301C039A231C0A35FFF702FB69B2301C039A231CFFF7FCFA04B004BC9046F0BDF0B5474680B4C6B2771C84B094461C1CD9
:401380007FB2634680460D1C0392381C00940322FFF79CFC4046291C039B00940C22EDB2FFF782FC291C0B31381C039B49B20094032204360135FFF789FC70B269B2009413
:4013C0000A22039BFFF770FC04B004BC9046F0BDF0B5451C85B094466DB21C1C0E1C071C03920093281C63460422FFF76FFC381C311C039BF7B200940C22FFF755FC391C2F
:401400000B31281C039B49B2009404220537FFF75DFC79B20094281C0422039BFFF756FC05B0F0BDF0B5461C85B0944676B21C1C071C0D1C03920093301C63460422FFF7E2
:4014400045FC381C291C039B00940C220535FFF72BFC69B20094301C0422039BFFF736FC05B0F0BD00B583B001930F2303400F2B07D9081C049B111C019AFFF76FFE03B0E6
:4014800000BD36489B00C3589F46081C049B111C019AFFF7C7FFF2E7081C049B111C019AFFF726FCEBE7081C049B111C019AFFF767FCE4E7081C049B111C019AFFF7BEFCD7
:4014C000DDE7081C049B111C019AFFF7FDFCD6E7081C049B111C019AFFF71AFDCFE7081C049B111C019AFFF759FDC8E7081C049B111C019AFFF792FDC1E7081C049B111C75
:40150000019AFFF7ADFDBAE7081C049B111C019AFFF7F2FDB3E7081C049B111C019AFFF74FFEACE7081C049B111C019AFFF7A0FEA5E7081C049B111C019AFFF7E1FE9EE7D4
:40154000081C049B111C019AFFF712FF97E7081C049B111C019AFFF73BFF90E70827000070B584B0061C0D1C03921C1C000905D0009317210222039BFFF774FF301C039BCB
:40158000009411210222FFF76DFF039A231C10200221FFF73BFC2809039B009409210222FFF760FF0094281C03210222039BFFF759FF04B070BDC046F0B546464F46C0B450
:4015C000860087B003921C1C002205AB70B20D1C1A705A709A7000284DDB1C2800DD1C2671B2F6B2081C771C2A1C039B884600940021FFF759FB7BB2181C00212A1C994659
:401600000094039BFFF750FBB21C57B20336381C00212A1C039B009476B2FFF745FB0094301C00212A1C039BFFF73EFB0F2D1DD001356DB24046291C0F22059B0094FFF724
:4016400033FB4846291C0F22059B0094FFF72CFB381C291C0F22059B0094FFF725FB0094301C291C0F22059BFFF71EFB07B00CBC90469946F0BD00260020AEE700B50B88CA
:401680000278DB09DBB29A422BD14A88D3094278DBB29A4225D18A88D3098278DBB29A421FD1CA88D309C278DBB29A4219D10A89D3090279DBB29A4213D14A89D309427903
:4016C000DBB29A420DD18A89D3098279DBB29A4207D1C989C079CA09D1B2081A431E984100BD0120FCE7C04638B50A21041C00F089FF0A210501201C00F0C8FF6818C0B2AE
:4017000038BDC0463823022243700021012302708170C370037142718371C3710372704738B5051C0C1C5120002100F01DFB281C00F0CAFB201C00F0C7FB00F07FFBC0B293
:4017400038BDC04670B50578041C0A21281C00F059FF0A210601281C00F098FFE37970189A01267A40253F212A4001401143F0010143C9B20420FFF7D3FF64780A21201C36
:4017800000F040FF0A210501201C00F07FFF6918C9B20320FFF7C4FF70BDC04638B50021041C512000F0E0FA022000F08DFBFF21512000F069FC002000F0CEFBC3B21909BB
:4017C0008A0055186B000F2528401818A070002000F0C2FBC1B20B099A00D1184B00284018186070012000F0B7FB8206910F8B005A18510005404D19257000F01FFBC0B22C
:4018000038BDC04600B5FEE7F8B52A4B4F464646581EC0B48446002B47D0274F0024BA683E6879689146002A22D0131C043B5807331C04CBC50F90460A1C414602C2111C71
:40184000981B814514D0002D06D07568043320C2111C981B81450BD0181C20C8111C20C15B685360031D0A1D111C981B8145F3D1FE68002E14D0321F0B1C550710C3E80F2A
:401880005A1A96420CD0002803D010C35D1AAE4206D0181C10C05C60031D5A1A9642F8D161461037481E8446B9D200F0FBFEFEF7E5FEFEE701000000E429000010B50F4A85
:4018C0000F48104C0023011C032B01D899000959013302C2011C032B01D899000959013302C2302BEFD1FEF797FB8024064B00220120E1051A60086010BDC046000000204F
:401900000518000000000000C000002010B5041C00F02FF8044BA1071A689400A2081143196000F02AF810BD00E400E010B5054B054908241C60C8640020FFF7E7FF034809
:40194000046010BD80E100E00000002000E100E008B5002000F011F808BDC046000000000230800804D0C0460138FDD1C046C0467047EFF3108072B6704780F31088704702
:4019800000B51F2800D901BE024A800083181868196000BD4000002038B5041C0D1E032D00D901BE1F2C00D901BEFFF7E2FFA308084A99008B1803221440E400196806340B
:4019C000A2409143A5400A1C2A431A60FFF7D5FF38BDC04600E400E0F0B5474680B48027061C3F02184DB84226D9184A184C83181804C10F341928688846FFF7B1FFBC424C
:401A000013D94246002A06D02868FFF7A9FF114BF418BC4209D92868FFF7A2FF2868FFF79FFF0C482418BC42F5D8084F084CF119CA0BD3033619F61A68687043FFF790FF4F
:401A400004BC9046F0BDC046D0000020FF7FFFFF0080FFFF0000FFFF08B5034B197A4843FFF77EFF08BDC046D000002038B50E200321FFF791FF2E490E20FFF781FF2D4B86
:401A8000FF222D482D492E4C2E4D1A602E4A2F4B08602C602E482F4C2F49304D1A6000232F4A03600C602C6010688024610208432C4D10602A682C4811432C4C29602C4AEA
:401AC0002C4D03600121236002202B4C2960106025682A4A294321608021C800106028492848294A294D2A4C038011602560294D294C438051602560284D294C8380916091
:401B00002560284D284CC380D1602560274D284C038111612560274D274C438151612560264D274C838191612560C381D16138BD111C000020001A407020001100001A408B
:401B4000F400008004001A400000FF0F18001A401C001A400400040010001A4014001A4000031A4040031A4028021A4038021A40000F1A4018021A4030001A4080001A406A
:401B80003E18000014050020F40400200104000084001A400204000088001A40030400008C001A400404000090001A400504000094001A400604000098001A4007040000D6
:401BC0009C001A4008B5054B802219681006084318600A20FFF740FF08BDC04600001A4010B5054C2378002B03D1FFF73FFF01202070FFF7E7FF10BD24010020034B8022EF
:401C000019685002084318607047C04604001A40014B1A681A60704710021A4038B5041CFFF7A7FE054B06491D68A2052C1C0C4014431C60FFF7A1FE38BDC04600E400E05A
:401C4000FFFF3FFF10B5054B054904241C6088640320FFF7E3FF0348046010BD80E100E00000002000E100E008B5044B8022196810060843186000F07FFA08BD0000064020
:401C800008B5054B1A78002A03D10120187000F005F8FFF7E9FF08BD280100201B4B10B51B4A00241B481C601B4B026019680C220A431A6019481A4B1A4918601A4A0C60C3
:401CC0001A4B1B491B48146018600C6000F05CFA194800F037FA032000F03AFA174A18481460184B1849194A04601C6018481160184B194A102104601C6018481170184B29
:401D0000184904801C600C6010BDC0460000064077080080600006407000064007030080000306400403064010030640000206400402064007010080F5210000880E0640DB
:401D4000C80E0640480F064013010000080F0640C80F0640880F064024050020280500202C05002034050020F0B5474680B42B4D071C2B780E1C0424102B03D0201C04BCFF
:401D80009046F0BD264801210368884608241942F4D17C00FF2700F0F7F93C40002E2CD124232B701F49204A0C60204E204C022720482260376023681D4A0342FBD0116843
:401DC00049071FD41468A10721D41768FA0720D5102028700124174A154B174F1A60FFF7C8FD396880224E0075083D603B68110619433960FFF7C1FDC0E7252640462E70A5
:401E00000443CFE700240B48094F3860B6E70224F9E710262E7080256C00DCE72405002064000640400206401703000068000640000F0640070100000000064038B51C4DB7
:401E400020232A780424134201D1201C38BD1948102401680B4228D1174A1848184914600368164C0B42FBD02268D10619D420680124C20701D480214C00114A0F4B1A6089
:401E8000FFF777FD0F4B19684A00510819601968802212060A431A60FFF76FFD10232B70D3E7074820600024F8E71824D4E7C046240500206400064068000640000F064010
:401EC000110100000000064038B51E4D04242B78990601D4201C38BD1B491C4C08601C4803681B4A2342FBD01168490709D4106881070AD560242C700224144D144B1D6022
:401F0000E8E7602028700024F7E71468E20715D410222A7080256C000C490D480D4D0160FFF727FD2A685300590829602B688022110619432960FFF720FDCBE710232B707B
:401F40000124E9E7240500204002064007010000000F064000000640F8B51B4E071C33789A0602D401204042F8BD18490422184D184C02E02868204202D10B681A42F9D0B7
:401F8000124A042511680D4207D0134C20681560002F16D1114A1560E6E7114F0C4E114C3760FFF7E6FC236880275A005108216025683E062E432660FFF7DFFC01204042C6
:401FC000D2E760233370CFE724050020C00F0640000F06400101000040030640680006401703000000000640234B70B5196800208A0612D400F0D0F820488023026819060A
:4020000054006508056006681D4A3143016001201060012000F0C0F870BD1A4C00F0BCF825680F26B5432560144D2B68590048082860002000F0B0F80A20FFF70DFD0120D8
:4020400000F0AAF80A20FFF707FD002000F0A4F80A20FFF701FD2A68802319061143296025680748B5430E263543256001240460002000F091F8CFE76400064000000640E2
:40208000680006401000014038B5274C042523789A0601D4281C38BD4000FF250540002934D02521012221701543204820490860FFF79AFF1F48012203681A42FCD11E49DA
:4020C0001E480D601A4D2B68194A0342FBD0116849071ED41568A90720D41068C2071FD4102222708024650014491148144C0160FFF73FFC2268530059082160236880222F
:40210000110619432160FFF738FCC3E724232370CBE700250948064C2060BBE70225F9E7102323700125DFE72405002017030000000F0640680006404002064007010000B2
:4021400000000640014B98667047C0460000002038B5041CFFF70DFC054B06491D68A2052C1C0C4014431C60FFF707FC38BDC04608E400E0FFFF3FFF8022024BD000186081
:402180007047C04600E100E08022024BD00018607047C04680E100E0044BFE211A680A4001210840104318607047C0460004044010B5041CFFF7DDFB044BA2011968C024EE
:4021C000A14311431960FFF7D8FB10BD00E400E010B5054B054901241C6008640020FFF7E7FF0348046010BD80E100E00000002000E100E0F0B5D04B574618684E464546CE
:40220000E0B4002800D08047CC490A68D00702D5CB4D00242C60CB4C00222678B10619D5C94F3B68DD0500D5CDE03868C10711D5C64D90202B8881001943298022780126A8
:4022400032402F8851424A4101323A432A800025257001222378980616D5BB4E1023306803423ED0BA4FB94D3B60227801261640288872425641013606432E8023701CBC40
:4022800090469946A246F0BD277810263740F6D1B049B14AB148AE4D08602A60FFF769FBAF4B19684A0055081D601968802215060D431D60FFF761FBAA48AB490368AB4A4B
:4022C000194001600568AA4B2A400260A948AA490760AA4D1F60AA4AAA4F0F6015602670CDE727783D070DD535680221294200D1EFE0974A954D116029888826B0000843FC
:4023000028800122277804233B4200D185E025780121294200D1A6E09B4E3068050762D59A4B9B491F689B4B0D681E68B81B0F272F40C61B082E00D9FAE0002E00D0F8E0CB
:40234000884A8A49156808262940934D11600122771EBA4651460127394090481F6888462968BC4689460768E144F9B24F463970196801311960514600294BD04746002F94
:402380000BD019682F6879180768FFB20F70196801311960B11E00293CD01E682F680239BE190768FFB237701E682F6801361E601E68BE190768FFB237701E6801361E60A3
:4023C0000029EAD126E0614DC022298896000E432E803F68FF0700D430E72B8890208100194329802AE731680B4213D0694F6A4D3E6828688119694E3568644EE8B208706B
:402400003968013139603F683568AF4200D3E8E0634803605B4D5A4B1D60002A00D12EE75048524A0168534E514D00270A405D4B026037602F60187887070CD52678012538
:4024400035406B425D41414B09351888602105431D80217013E7544C10272168880665D44F4A17600BE7384E0227306807423BD14E4B1D68E80600D4AAE04D4E0F233768A6
:402480001F40082F00D1B2E04A4B4B481D6801688D4215D2494F3D68494FAC460F2504E019688846016888450AD21968614409783960196801311960316829400829EFD1B8
:4024C0001D680068854200D18DE02C4F2A490F60A3E72678F70702D52523237012E7244F242020703B600DE7194A324B304817601D68066807680F223240F80BAD1A014007
:40250000691A19601E682F4B104F1E603D88842290002D4E28433880316880235F020F4337603568294A2A40326079E7182797E70826194D0CE7C0462C0100208C0E0640C0
:40254000880E0640240500200C0F064028050020000F0640400F064017030000FF0F00000000064060000640FFDFFFFFFFFEFFFF880F0640C80F0640800F0640F3070000EA
:40258000C00F0640ED0F0000CC0F064048050020080306402C05002030050020400306406800064040050020640006408C0F064008020640440500203C05002038050020E7
:4025C000400206403405002004020640FFFFFEFF19684D0600D420E7064A0748166806601EE7012216E7054B40261E606DE7014B034865E74405002034050020880F064052
:402600003C050020002934D00123002210B488422CD301242407A14204D2814202D209011B01F8E7E400A14204D2814202D249005B00F8E7884201D3401A1A434C08A04252
:4026400002D3001B5C0822438C08A04202D3001B9C082243CC08A04202D3001BDC082243002803D01B0901D00909E3E7101C10BC7047002801D00020C04307B4024802A104
:402680004018029003BDC046190000000029F0D003B5FFF7B9FF0EBC4243891A1847C0467047C04670B50E4B0E4D0024E81A85101E1CAC4204D0A100725890470134F8E708
:4026C00000F07EF90849094A0E1C541AA5100024AC4204D0A300F05880470134F8E770BDCC290000CC290000CC290000D429000000B58218031C934202D019700133FAE71A
:4027000000BD0000000000007214000098140000A6140000B4140000C2140000D0140000DE140000EC140000FA140000081500001615000024150000321500004015000051
:402740004E1500008A14000049300F4023310F404D320F403C330F4011400F4011410F4004420F400D430F4002600F4001020301051007CF09080B040D100F2015011702AE
:4027800019041B081D401F8021EF231025DF272029802B4031303303350C37C03BAA590C5C905F0181088540878089208B108D108F2091049501970299089DFFA1F7A308AD
:4027C000A50CA7F3A902AB01AD80AF40B130B3C0B503B70CBBAAC032C101C6B0C808C9FFCAFFCBFFCF40D030D90CDA0CDB04DC90DD09DF01E0F0E240E302E410E51222546F
:4028000023402440250427062A202BA02E202FA132543680372638043A103B423C403D0A3F2045A04708561057106DC06F0879407D80830487088D048E40CAF7CCFECEFF62
:40284000D070DE18004501480708084D0AB20C450F02104011081280140115F116021704180419A81A411CBA1E4520222140239C245525F0268A2703284530C031C032030B
:402880003330343C350F3608370F38203A0A3B0A40324101450D46BF480D49FF4AFF4BFF4F405030580C590C5A0C5B045C995D095F0160F06240630264106512C032C10113
:4028C000C7B0C820C9FFCAFFCBFFCF40D030DA0CDD09DF01E0F0E240E302E410E512051007420D800E600F08168017281DB01E601FA0240425012680276C2FA0372A3D025C
:402900003F8841A0430445A047084F08530156A057406C2A79407D80800A861088208A048E4091409208940497029B029E209F28A140A5A1A680A7A0AA10B340B440C0D049
:40294000C2F0C470CAC0CCE0CED0D07EDE18E280E660EA40EC0403082E085820620467206F88720882048710C040CA80D480D8C0DA80DC60E280E640530457A05A405E10B9
:402980006681825087208A808B048E01A780B420D4E0D6A0D880E2A0E6108D018E01E008E402528058805E02650198809901A281AA80B080D405D601D801E8040201110186
:4029C000F8B5C046F8BC08BC9E46704715030000BD180000F8B5C046F8BC08BC9E467047ED020000F8290000C80000201800000070040000000000000000000001000000D9
:402A00000000C05D80BB000030000000006CDC02000000000000000000000000000000000000000000000000000000000000000000000000000000000000000000000000C4
:402A40000000000000000000000000000000000000000000000000000000000000000000000000000000000000000000000000000000000000000000000000000000000056
:402A80000000000000000000000000000000000000000000000000000000000000000000000000000000000000000000000000000000000000000000000000000000000016
:402AC00000000000000000000000000000000000000000000000000000000000000000000000000000000000000000000000000000000000000000000000000000000000D6
:402B00000000000000000000000000000000000000000000000000000000000000000000000000000000000000000000000000000000000000000000000000000000000095
:0200000490303A
:020000009874F2
:0200000490402A
:200000000000000000000000000000000000000000000000000000000000000000000000E0
:0200000490501A
:0C000000000204C81193110104D6AA07E5
:0200000490600A
:0100000001FE
:00000001FF