:400000000010002011000000AD0B0000AD0B000008B500F0CDFDC046F0B557464E464546E0B472B6684B012280241A700021E2006648802501F086FA0021EA00644801F002
:4000400081FA644E24208119FF228846002791468A4602CE4C46CBB2A143002B2AD0013BDDB2281C7A0001305244AC4645001078AB1E9C0743185078E40F18700223AB42A5
:4000800016D0002C06D09478D078631818700423AB420DD0D45C6018D418647802330470D05CD4186478401802330470AB42F1D1013767444645CCD14749484D484A494BFD
:4000C000494E4A4F29604A4C1A604A493E604A4D4A4B4B4E4B4FC1203F22206029604A481A604A493E604A4A4A4E4B4B0124A325046099270C604948156080211E60484E25
:400100003D04CA050560474B3260474F47484849484A1D60484E0760484B0D601560484D484F356048481C6002243C60017806220C4304700578454E2A43027033688024CE
:40014000E7021F433760424E4248434D737A01782A782F2B10D9B479B17AF27A2F2C0BD9F778F179327A2F2F06D93078317972792F2801D97178B278384D394E394B296049
:4001800032601C78384F05203C6000F0FBFD374935200860364D8226364B802736493406380610222A60294E1C6080220860334C334B3448D502012735601C6007601CBCE1
:4001C00090469946A246F0BD1C700F4000300F4000400F405C1500000300003300000140333333000400014033EE30300C000140000004400600D800080004400001044085
:40020000B66D030008010440000204401802044000030440B60DC3000803044000500F4008500F4010500F4000002D0718500F4020500F4030500F4038500F4020000040E6
:40024000000002C000800F4000700F4000010B40C0F1FF0FCCF1FF0FCDF1FF0F1CFF0B4020FF0B40FDF1FF0F28FF0B402CFF0B401C02024008010B4004010B400F00008045
:400280000000024000031A4010B5064C2378002B07D10548002802D0044800E000BF0121217010BDE0000020000000005815000008B5084B002B03D00748084900E000BF7E
:4002C00007480168002903D0064A002A00D0904708BDC0460000000058150000E4000020C800002000000000F0B54D4644465F465646F0B4754A76480123764D1360037014
:40030000297887B00131CCB22C701F2C00D1B1E0012C00D1C2E0032C00D1B8E0072C00D1C9E00F2C00D1BFE06B4F6E783C78B1000A016A4B511A0C19E05C694C20706978A5
:400340003A788800451C2F017E1BB718FD5CB1462570851C2E01751BAE180296A846F55CC61C25703501AD1BAC469346E3445E46F55CDF1925708C01201A86189D196C797F
:4003800082465848994404707E7991440670029D5E465C1967799D1907706C7998440470081C083086008701BD1BAC180295039418194779741C4C48250107702F1BBC1844
:4003C000059404971D196F79B41C250107702F1BBD1801975C19033667793401A61BB41807701F197F799044077050461F18B818877A3E489C4407704F46BF7A94440770AD
:400400004746BF7A9E1907706746BF7A077002981F18B818877A36480770049FFF18B84690444746BF7A0770019FFF18BC4694446746BF7AB2180770977A2E4A07700398B8
:40044000C65C1670059F0326F85C214F1070ED5C294815703E70067807252940AE4331430170E35C137007B03CBC90469946A246AB46F0BD6878184F01300024C6B23C7081
:400480002C70082E1ED06E70B100002450E7124F6A7802233B709100022449E70E4F69783C708900012443E70B4F6A7804233B70910004243CE7084F6E7803203870B10033
:4004C000032435E76C700021002431E780E200E070000F40FC000020C00400200001002042000F4043000F4053000F4040000F4050000F4052000F4071000F4070B5234C76
:4005000082B0201C00F0F8F800F0F6FB00F0B0FC1F4B03221A701F4800F0DCFB002662B60F2569468D7001AD1E204E702E706E701F260870AE7000F0A9FC022000F0B0FC37
:40054000002000F0C3FC011C002000F0CFFC2A68231C0320022100F0D1FA2A68231C0920022100F099FA2A68231C0F20022100F013FA009A231C1120022100F025FA1720AF
:400580000221009A231C00F057FAD9E70001002070000F40E902000010B58B00C4081919CBB21C01E11A07231840012484405218E143CCB213785079917A23402040214096
:4005C00013705071537890799172D17A234020402140537090719378D079D172117B2340204021409370D071D378107A1173517B234020402140D37010721379507A5173FA
:40060000917B234020400C4013715072947310BDF0B51E1C8F00C30883B0041CF818C7B20192201C321CFFF7B7FF390101ADCA1BB31807202E780122A97820406C78151C89
:400640001F78354085403D431D70151C5F79254085403D435D71151C9F7A0D4085403D439D7275105F78154085403D435D7065109F79154085403D439D714D10DF7A15402D
:4006800085403D43DD72B5109F78154085403D439D70A510DF79154085403D43DD718D101F7B154085403D431D73F510DF78154085403D43DD70E5101F7A154085403D4362
:4006C0001D72CD105F7B15400911361124118540164014400A403D4382405F7A5D7386401D798440101C9A7B2E433C4310431E715C72987303B0F0BD00B540210023023945
:40070000C9B203704371837243708371C3728370C3710373C37003724373037143728373C3730375437603744375837643748375C3768374C3750377C374037643771E3054
:400740000029DCD100BDC046F0B54D4644465F465646F0B483B0041C0D1C0D985E1B8046F01736184640171CB1463E1BF0173618211C4640B14500DCB9E00124A1461F1CB1
:400780002C1C131C0D1CBC4200DDA9E0081C111C021C3E1B8A1AF0B2D1175218834640B24A40C10F0E187010FF21C6B200919D4201DA01230093BC4200DD8AE0381B0121C6
:4007C000D2B201404B4692460191002B00D093E0E0B2E9B20C9A4346FFF71AFF5246B61AF0B2C6B271B2002900DA93E0013464B2A7426EDB019A002A15D04846002800D098
:400800008EE0E9B20C9A4346E0B2FFF701FF5146761AF3B2DEB272B2002A00DA8EE0013464B2A74255DB391C4F46894621E0E1B20C9A4346E8B2FFF7EBFE5346F61AF1B261
:40084000CEB272B2002A23DB013464B2002F29D0E8B2E1B20C9A4346FFF7DAFE5146721AD3B2DEB270B2002829DB013464B2A1452FDB002FDBD1E9B20C9A4346E0B2FFF721
:40088000C7FE5346F61AF1B2CEB272B2002ADBDA00985B462D18CE1801346DB2F6B264B2002FD5D1E0B2E9B20C9A4346FFF7B0FE5146721AD3B2DEB270B20028D5DA009E8A
:4008C00059460134AD195A1864B26DB2D6B2A145CFDA03B03CBC90469946A246AB46F0BD2E1C201C1D1C3C1C331C071C51E7002189461A1C291C46E7E8B2E1B20C9A434605
:40090000FFF786FE5246B61AF0B2C6B271B2002900DB6BE7009B5844ED186DB2C6B265E7E1B20C9A4346E8B2FFF772FE5146761AF3B2DEB272B2002A00DB70E700985B444E
:400940002D186DB2DEB26AE770B51D1C84B01E0C4B1E041C98186A4696701580089D43B20195201C221CFFF7EFFE04B070BDC04630B50C1C85B0411E1D1C8A181B0C69462C
:400980008B700D80089D52B20195211C231CFFF7DBFE05B030BDC046F0B5CEB285B0171CF11C041C03921D1C009349B23B1C02220736FFF7C9FF71B20095201C0222039B3B
:4009C000FFF7C2FF05B0F0BDF0B5474680B4C7B27E1C84B094461C1C76B20D1C6346EDB280460392301C00940422FFF7C1FF691C4046039B49B200940A22FFF7A5FF681DEC
:400A000041B2039B301C00940322FFF7B1FF0437AA1D78B251B2039B009405220B35FFF793FF69B20094301C0322039BFFF7A0FF04B004BC9046F0BDF0B5474680B4C6B202
:400A400084B094461C1C0D1C731C071C039258B2009463460322EDB28046FFF789FF691D01354046039B6DB249B200940322FFF77FFF0436381C291C039B00940422FFF729
:400A800063FF70B20094291C0B22039BFFF75CFF04B004BC9046F0BDF0B5474680B4C6B284B094461C1C0D1C731C071C039258B2009463460322EDB28046FFF759FF291CCE
:400AC0000B3101354046039B6DB249B200940322FFF74EFF0436381C291C039B00940A22FFF732FF70B20094291C0A22039BFFF72BFF04B004BC9046F0BDC046F0B55F46C6
:400B000056464D464446F0B4061C85B0101C03929346040CF2B2A446CDB21C1C131C914604332A1C02325BB2A8469A4655B26B465A4648461A80023062469A7040B2524692
:400B40002B1C0194FFF700FE494603AF013148B239886A461180BF784346834601339770301C291C5A465BB20194FFF7EDFD4046073041B2039B584600940322FFF7F8FE2E
:400B80005046291C039B00940A22FFF7DDFE0094301C291C0A22039BFFF7D6FE05B03CBC90469946A246AB46F0BDC04600B5FEE7F8B52A4B4F464646581EC0B48446002BC8
:400BC00047D0274F0024BA683E6879689146002A22D0131C043B5807331C04CBC50F90460A1C414602C2111C981B814514D0002D06D07568043320C2111C981B81450BD09E
:400C0000181C20C8111C20C15B685360031D0A1D111C981B8145F3D1FE68002E14D0321F0B1C550710C3E80F5A1A96420CD0002803D010C35D1AAE4206D0181C10C05C605A
:400C4000031D5A1A9642F8D161461037481E8446B9D200F051FCFFF751FCFEE7010000008418000010B50F4A0F48104C0023011C032B01D899000959013302C2011C032B3E
:400C800001D899000959013302C2302BEFD1FFF7C3F98024064B00220120E1051A60086010BDC04600000020AD0B000000000000C000002010B5041C00F02FF8044BA20122
:400CC0001968C024A1431143196000F02AF810BD00E400E010B5054B054901241C6008640120FFF7E7FF0348046010BD80E100E00000002000E100E008B5002000F011F85A
:400D000008BDC046000000000230800804D0C0460138FDD1C046C0467047EFF3108072B6704780F31088704700B51F2800D901BE024A800083181868196000BD4000002066
:400D400038B5041C0D1E032D00D901BE1F2C00D901BEFFF7E2FFA308084A99008B1803221440E40019680634A2409143A5400A1C2A431A60FFF7D5FF38BDC04600E400E037
:400D800001BE704708B5034B197A4843FFF7BCFF08BDC046CC00002008B50E200321FFF7CFFF17490E20FFF7BFFF164B1649174801221A600160164B164917481960174902
:400DC000002308601648174903601748016017480160174917480B60174903600A601749022008601649086802430A60154A16491360164B80201980154982010A6008BD2D
:400E0000350F000020001A40600E005100001A4004001A40050000800000FF0718001A401C001A400400040010001A4014001A4028021A4038021A4018021A40000F1A4035
:400E400030001A4080001A4000F8FFFFC8040020C404002008B5054B802219681006084318600A20FFF78EFF08BDC04600001A4010B5054C2378002B03D1FFF78DFF012016
:400E80002070FFF7E7FF10BDFE000020034B802219685002084318607047C04604001A40011C00B500208B070DD00220064A0123014001E0002906D010681840FAD0024A3C
:400EC00001211160012000BD10021A4008B5002805D1054B186801040A0C10B208BD0020FFF74EFF0022F8E780011A4038B5041C0D1C002802D00020FFF742FF0A4B62006B
:400F0000D05AA400291A08B200F084FA074900F051F9074D6559041C281C00F07BFA011C201C00F00DF838BDC804002000002041C4040020014B1A681A60704710021A4030
:400F4000F0B55F4656464D464446F0B44502440083B00E1C6D0A240EC70F002C07D1002D00D091E0042101228846924609E0FF2C55D08023180400210543ED007F3C88462C
:400F80008A46331C58007602D90F760A000E8B464CD101229446002E00D081E05B467B406246414601930A430F2A50D9201A690181467501A94200D3B3E0012253429944ED
:400FC0001B2400260127621E381C10404B007600002900DAA9E09D4200D8A6E0013C002C00DCABE000280CD0191C76005B00002901DB9D4201D85B1B3E43013C002C00DCE3
:401000009CE059007200002B01DB8D4201D8491B3A43013C4B0056000029EADAEBE7002D2DD10820022180468A46AAE7FF2820D08022130400211E438C465B467B40624677
:401040004146F6007F3801930A430F2AAED8564992008A589746019BFF260025F0052843DE07304303B03CBC90469946A246AB46F0BD331C5A1E934102339C468EE70C22D3
:40108000032390469A467CE7281C00F017FA7622441F5342A5401C1A00208046824670E7301C00F00BFA7623411F8E405A420021101A8C4672E700233C4DFF26CEE75F46B7
:4010C000351C01976346022BC5D0032B63D0012B43D049467F31002935DD0F272F40042F00D004352B0103D5314A494615408031FE29B0DCA801450ACEB2019BAEE700260B
:401100000025ABE78020C1030D4211D00E420FD10E4373025D0AFF265B469FE701975346D1E7491B1A2401264CE75B1B3E4355E70D436A02550A3B1CFF268FE71D1C6B1ED4
:401140009D413543C5E77E2467424A46B91A1B2908DD019B0026002580E7019D00262B4000257BE74E469E36281CB5402B1C5D1EAB41C84003430F251D40042D00D004332C
:401180005A0103D5019B0126002567E79C01650A019B002662E78027FC0325436E02750A019BFF265AE7C046E0170000FFFF7F00FFFFFFF7F0B55F4656464D464446F0B49B
:4011C0004502460083B00F1C6D0A360EC40F002E06D1002D70D1042101228846924609E0FF2E43D08023180400210543ED007F3E88468A46381C43007F02C10F7F0A1B0EE2
:401200008B463AD10121002F62D158466040424601900A430F2A3FD92C04F018260C3B041A0C311C51433F0C2D0C7E436A438146080C36182C1CB3187C439A4200D99AE08D
:4012400009041D04080C2E18B5011B0C691E8D41B20EE7181543BC0125432B014BD50120284001216D088944054344E0002D1ED10820022180468A46BCE7FF2B12D0802285
:40128000100407435846002160404246FF007F3B01900A430F2ABFD890005B4A8446624410688746391C4A1E91410231ADE70C22032390469A469DE7281C00F0FFF87622F1
:4012C000461F5342B5401E1A00208046824691E7381C00F0F3F87621431F4A429F400021131A92E70194514602292CD0032900D180E0012948D04E467F36002E51DD0F247D
:401300002C40042C00D004352A0103D53F494E460D408036FE2E3DDD019B01241C40FF210025C805E2072843104303B03CBC90469946A246AB46F0BD0024354DFF21F0E747
:4013400051460229D2D1019D01242C40FF210025E7E75E463D1C0196C6E73D1CC4E78026F3031D420BD01F4209D11F437A02550A5C46FF21D5E780225702E41960E71D4316
:401380006F027D0AFF21CCE7019B00251940CCB20021C6E70198AD0101246D0AF1B20440BFE77E2673424A469F1A1B2F05DD019D01242C4000210025B3E749469E312C1C09
:4013C0008D402E1CFC40751EAE4126430F203040042800D00436700105D5019F01243C40012100259DE7019AB30101245D0A1440002196E78022D00305436C020199650A82
:4014000001240C40FF218CE720180000FFFFFFF7FFFF7F0070B5041E3CD0C50F00D04442201C00F04BF89E21261C0B1A962B0ADC0838844061024C0ADBB2DB051C43ED07C9
:40144000201C284370BD992B0ADD0522141A311CE140041C1B34A6400A1C711E8E41164305281BDC144C0F2234401640042E00D00434620105D59F231B1AFF2B0CD00E48AF
:4014800004405E1CF1B2E40801290ADD6402640ADBB2D2E7002500230024CEE7411F8E40E0E7002CF4D0002B03D08022D0030443ECE76602740AC0E7FFFFFFFB1C2101233B
:4014C0001B04984201D3000C10391B0A984201D3000A08391B09984201D30009043902A2105C40187047C0460403020201010101000000000000000070B50E4B0E4D002463
:40150000E81A85101E1CAC4204D0A100725890470134F8E700F0A4F90849094A0E1C541AA5100024AC4204D0A300F05880470134F8E770BD6C1800006C1800006C180000DF
:401540007418000000B58218031C934202D019700133FAE700BD00000000000049300F4028310F404F320F403E330F4009400F4016410F4001420F400F430F4002600F404D
:4015800001800508070409040B080D010F0215D3170C19101B201D40216F23902502270129DC2B233103330C353037C03BAA40624104450B480149FF4AFF4BFF4F40503084
:4015C000590C5A0C5B045C905D095F0160F0624063026410651281108320850F87F089408B808D08910495FC970399019B029D08A180A340A502A701A920AB10ADF7AF0857
:40160000B130B303B5C0B70CBBAAD90CDB04DC90DF012050216022802511272229152D082E422F04312032883688372238523B083C043DA2400442404A084B0868086940AC
:401640006A806C026E206F1079407D4080408B208C08CAF7CCFECEFFD005D204DE18E404E63000BA018002450340044D06B20708085509400A8A0B800C450D281108140143
:4016800015F016021703180419311A411BC41C401D081E802045270228222C452DC02F1C30083203330F343C35C036C0373038203A883BA040624104450D47BF483149FF4D
:4016C0004AFF4BFF4F405030580F590F5A0F5C995D095F0160F06240630264106512C062C104C50BC801C9FFCAFFCBFFCF40D030DA0CDD09DF01E0F0E240E302E410E512BB
:401700000424050107010E220F081580160817021C041D331E6A24222550260827212E48368437223DA03E023F08400442404522490C4A084E084F08560A79407E40811061
:4017400086108E018F1091C09280940696409B129D1D9E02A280A540A608A911AC02AE10B410B520C0F0C2E0C4D0CA50CCF0CEF0D0A5D224DE88E001E210E64052205B0442
:401780005C016F208A108F04D420D6C0DA80528053025610570165806608868087208D808E089A10A303A720A801AA20AF03D4E0D6A0D880E610EA90EE90820250105A803A
:4017C0005B0466028304902092809A02B410B640D405D602D801E808EC02020111010000AC0F000056100000FE100000BE100000FE100000B6100000FE100000BE10000059
:401800005610000056100000B6100000BE1000001C1100001C1100001C11000004110000181200005A1300005A1300005213000040130000401300003813000052130000ED
:4018400040130000381300004013000052130000E4120000E4120000E41200005E130000F8B5C046F8BC08BC9E467047B1020000650C0000F8B5C046F8BC08BC9E4670470F
:401880008902000098180000C800002018000000F003000000000000000000000000C05D80BB000030000000006CDC02000000000000000000000000000000000000000028
:4018C00000000000000000000000000000000000000000000000000000000000000000000000000000000000000000000000000000000000000000000000000000000000E8
:4019000000000000000000000000000000000000000000000000000000000000000000000000000000000000000000000000000000000000000000000000000000000000A7
:401940000000000000000000000000000000000000000000000000000000000000000000000000000000000000000000000000000000000000000000000000000000000067
:401980000000000000000000000000000000000000000000000000000000000000000000000000000000000000000000000000000000000000000000000000000000000027
:0200000490303A
:020000003DC4FD
:0200000490402A
:200000000000000000000000000000000000000000000000000000000000000000000000E0
:0200000490501A
:0C000000000204C81193110104D04F57F6
:0200000490600A
:0100000001FE
:00000001FF