:400000000010002011000000D9120000D912000008B501F063F9C046F0B557464E464546E0B472B6724B012280241A700021E2007048802501F0DAFF0021EA006E4801F092
:40004000D5FF6E4E24208119FF228846002791468A4602CE4C46CBB2A143002B2AD0013BDDB2281C7A0001305244AC4645001078AB1E9C0743185078E40F18700223AB4242
:4000800016D0002C06D09478D078631818700423AB420DD0D45C6018D418647802330470D05CD4186478401802330470AB42F1D1013767444645CCD15149524D524A534BD5
:4000C000534E544F2960544C1A60544D3E60544A544B554FEE20C1213F262060296053481A60534C3E60534D534B544E544F0121A32220602960534C1A60534D3E609922C4
:40010000524E130403202421B0272060504A2960380633604F4C5049504D514E514F20600B605148156051493360514A3B60514B514E0524062518600C6015603778022030
:4001400038433070337806241C434C4D347029688022D6020E434A4B2E604A4F4A485C7A397802782F2C10D99D79997ADA7A2F2D0BD9DE78D9791A7A2F2E06D91F781979A6
:400180005A792F2F01D959789A78404B4048414C01601A602578404E0520356001F088F93E493F483F4B3527102220240F60822502603D4F1C6080213C4880242F4B2E061E
:4001C0000A06E5023E603A4902603A4F1D603A4E3A4D3B483B4B01243E6001602C601E6832431A601CBC90469946A246F0BDC0461C700F4000300F4000400F4044200000CD
:400200000300003300000140333333000400014033EE30300C00014010000140000004400600D8000800044000010440B66D0300080104401802044000030440B60DC300F9
:4002400008030440000404400804044000500F4018500F4008500F4010500F4000002D0320500F4030500F40000004C02000004000800F4038500F4000700F4000010B4058
:40028000C0F1FF0FCCF1FF0FCDF1FF0F20FF0B401CFF0B40FDF1FF0F28FF0B402CFF0B40080202401C02024008010B4004010B402F000080000002401D00008000031A40F9
:4002C0004000024080031A4010B5064C2378002B07D10548002802D0044800E000BF0121217010BDE0000020000000000020000008B5084B002B03D00748084900E000BFCB
:4003000007480168002903D0064A002A00D0904708BDC0460000000000200000E4000020C800002000000000F0B55F464D4644465646F0B4674B6849684D042201201A6091
:4003400008702C7887B00134E7B22F70032F00D1AEE0012F00D1A5E0614A6E781478B1000801604B411A0C19E75C5F4C2770697812788800451C2E01771BB946BF18FD5CDB
:4003800093462570851C2E01751BAE180296A846F55CC61C25703501AD1BAC46E3445E46F55CDF1925708C01201A86189D196C7982464E48994404707E7991440670029D32
:4003C0005E465C1967799D1907706C7998440470081C083086008701BD1BAC180295039418194779741C4248250107702F1BBC18059404971D196F79B41C250107702F1B9F
:40040000BD1801975C19033667793401A61BB41807701F197F799044077050461F18B818877A34489C4407704F46BF7A944407704746BF7A9E1907706746BF7A0770029894
:400440001F18B818877A2C480770049FFF18B84690444746BF7A0770019FFF18BC4694446746BF7AB2180770977A244A07700398C65C1670059F0326F85C174F1070ED5C7F
:400480001F4815703E70067807252940AE4331430170E35C137007B03CBC90469946A246AB46F0BD0E4A6B7817709900012457E76F780B4A01370020FEB210702870082EBD
:4004C00003D06E70B10000244AE768700024002146E7C04680E200E071000F40FC000020D00400201001002042000F4043000F4053000F4041000F4051000F4052000F401C
:4005000070000F40084BFF2019680302081C00B518400022984202D0FE2212010A40034901234A800B7100BD80011A40FC000020F0B585B001AC01F089F8201C00F094FE67
:40054000201C00F0A1FE134E0327301C00F0E2F800F06CFF104B11481F7000F055FF01F029F80F4801F054F8002501F031F862B66846077045708570207800F067FE051C53
:40058000607800F063FE009A011C331C281C00F031FEF1E71001002071000F40290300000505000010B58B00C4081919CBB21C01E11A07231840012484405218E143CCB250
:4005C00013785079917A23402040214013705071537890799172D17A234020402140537090719378D079D172117B2340204021409370D071D378107A1173517B23402040B7
:400600002140D37010721379507A5173917B234020400C4013715072947310BDF0B5CFB283B0041C0192391C1A1CC0B21E1CFFF7B9FFE117490F0C19B800E310C21857B251
:4006400007223801144001ADC31B611AF3184AB22E7801216C78A8780D1C1F78354095403D431D700D1C5F79254095403D435D710D1C9F7A054095403D439D7275105F7803
:400680000D4095403D435D7065109F790D4095403D439D714510DF7A0D4095403D43DD72B5109F780D4095403D439D70A510DF790D4095403D43DD7185101F7B0D40954016
:4006C0003D431D73F510DF780D4095403D43DD70E5101F7A0D4095403D431D72C5105F7B0D4000113611241195400E400C4001403D4391405F7A5D7396401D7994400A1C47
:40070000997B2E433C430A431E715C729A7303B0F0BDC04600B5402100230239C9B203704371837243708371C3728370C3710373C37003724373037143728373C3730375E9
:40074000437603744375837643748375C3768374C3750377C374037643771E300029DCD100BDC046F0B54D4644465F465646F0B483B0041C0D1C0D985E1B8046F01736185A
:400780004640171CB1463E1BF0173618211C4640B14500DCB9E00124A1461F1C2C1C131C0D1CBC4200DDA9E0081C111C021C3E1B8A1AF0B2D1175218834640B24A40C10FED
:4007C0000E187010FF21C6B200919D4201DA01230093BC4200DD8AE0381B0121D2B201404B4692460191002B00D093E0201C291C0C9A4346FFF712FF5246B61AF0B2C6B298
:4008000071B2002900DA93E0013464B2A7426EDB019A002A15D04846002800D08EE0291C0C9A4346201CFFF7F9FE5146761AF3B2DEB272B2002A00DA8EE0013464B2A74241
:4008400055DB391C4F46894621E0211C0C9A4346281CFFF7E3FE5346F61AF1B2CEB272B2002A23DB013464B2002F29D0281C211C0C9A4346FFF7D2FE5146721AD3B2DEB2CE
:4008800070B2002829DB013464B2A1452FDB002FDBD1291C0C9A4346201CFFF7BFFE5346F61AF1B2CEB272B2002ADBDA00985B462D18CE1801346DB2F6B264B2002FD5D157
:4008C000201C291C0C9A4346FFF7A8FE5146721AD3B2DEB270B20028D5DA009E59460134AD195A1864B26DB2D6B2A145CFDA03B03CBC90469946A246AB46F0BD2E1C201C19
:400900001D1C3C1C331C071C51E7002189461A1C291C46E7281C211C0C9A4346FFF77EFE5246B61AF0B2C6B271B2002900DB6BE7009B5844ED186DB2C6B265E7211C0C9AC5
:400940004346281CFFF76AFE5146761AF3B2DEB272B2002A00DB70E700985B442D186DB2DEB26AE770B51D1C84B01E0C4B1E041C98186A4696701580089D43B20195201C48
:40098000221CFFF7EFFE04B070BDC04630B50C1C85B0411E1D1C8A181B0C69468B700D80089D52B20195211C231CFFF7DBFE05B030BDC046F0B557464E464546E0B489465F
:4009C000111C0D0C84B0AC46C5B203921F1C9246EB1C4A46D6B25AB290466B4652461A80681C6246B11C03AC9A7040B242464B4649B20197FFF7B6FE218868460180A3789B
:400A00000B3676B28370494640464246331C0197FFF7A8FE2188AA1C043550B26AB26D462980A478311CAC70331C0197FFF79AFE04B01CBC90469946A246F0BDF0B5574606
:400A40004E464546E0B4CEB21C1C051C701C84B08A46231C41B2281C88460392FFF7DEFDEAB2171C01377FB29146381C5146039B00940322FFF78AFF4B46043358B2414687
:400A8000039B00940422FFF76DFF701D41B2039B381C00940322FFF779FFB11D281C039B49B2009406220B36FFF75CFF71B20094281C0522039BFFF769FF04B01CBC90466A
:400AC0009946A246F0BDC046F0B5CEB285B0171CF11C041C03921D1C009349B23B1C02220736FFF73FFF71B20095201C0222039BFFF738FF05B0F0BDF0B5474680B4161C9D
:400B000084B0071C1C1C039200930522331CFEB20D1CFFF73BFF331D58B2291C039BEDB2009404228046FFF71DFFF11C2A1D48B2231C51B2039AFFF771FDB31C691D58B221
:400B400049B2039B00940222FFF720FFA81D41B2039B4046009405220136FFF703FF70B22E1C0B3671B2039B009403220A35FFF70DFF69B2381C039A231CFFF74FFD04B0A0
:400B800004BC9046F0BDC046F0B5171C85B00C1C1D1C0392009307223B1C061CFFF7E2FEA11D301C039B49B2009505220336FFF7EDFE70B20095211C0C22039BFFF7D2FEDF
:400BC00005B0F0BDF0B5474680B40D1C84B0171C1C1CEDB20392009305223B1C061CFFF7D5FE691C301C039B49B200940622FFF7B9FEF3B2181C013047B26A1D984651B2F7
:400C0000381C039B00940322FFF7C0FE4146AB1D043148B2009459B20522039BFFF7A2FE281C0B3041B2039B381C009403220A35FFF7ACFE69B2301C039A231CFFF7EEFCBE
:400C400004B004BC9046F0BDF0B5474680B4C7B27E1C84B094461C1C76B20D1C6346EDB280460392301C00940422FFF78FFE691C4046039B49B200940A22FFF773FE681DF1
:400C800041B2039B301C00940322FFF77FFE0437AA1D78B251B2039B009405220B35FFF761FE69B20094301C0322039BFFF76EFE04B004BC9046F0BDF0B50C1C013185B0C3
:400CC0001D1C061C49B20392FFF7A8FC301C211C039B009505220436FFF758FE70B20095211C0C22039BFFF73DFE05B0F0BDC046F0B54F464646C0B41C1CC3B21F1C013753
:400D000085B094467FB20D1C061CEDB203929946381C634600940322FFF738FE691D381C039B49B200940322FFF730FE281C0B3041B2039B381C00940322FFF727FE4F4616
:400D40006A1C53B204379846301C191C7FB2039B009404220635FFF705FE6DB2381C4146039B00940422FFF7FDFD301C291C039B00940522FFF7F6FD0094381C291C052228
:400D8000039BFFF7EFFD05B00CBC90469946F0BDF0B5474680B4C6B284B094461C1C0D1C731C071C039258B2009463460322EDB28046FFF7EBFD691D01354046039B6DB292
:400DC00049B200940322FFF7E1FD0436381C291C039B00940422FFF7C5FD70B20094291C0B22039BFFF7BEFD04B004BC9046F0BDF0B5474680B4C6B284B094461C1C0D1CCD
:400E0000731C071C039258B2009463460322EDB28046FFF7BBFD291C0B3101354046039B6DB249B200940322FFF7B0FD0436381C291C039B00940A22FFF794FD70B200942D
:400E4000291C0A22039BFFF78DFD04B004BC9046F0BDC046F0B55F4656464D464446F0B4061C85B0101C03929346040CF2B2A446CDB21C1C131C914604332A1C02325BB235
:400E8000A8469A4655B26B465A4648461A80023062469A7040B252462B1C0194FFF762FC494603AF013148B239886A461180BF784346834601339770301C291C5A465BB2D5
:400EC0000194FFF74FFC4046073041B2039B584600940322FFF75AFD5046291C039B00940A22FFF73FFD0094301C291C0A22039BFFF738FD05B03CBC90469946A246AB466A
:400F0000F0BDC046F0B54F464646C0B48146C0B2061CCDB2013685B094461C1C0F1C76B2691D63460392804649B2301C00940322FFF72CFD4846391C039B00940C22FFF737
:400F400011FD4246043253B2681C994641B20094181C0422039BFFF705FDA91D4846039B49B200940522FFF7FDFC0B35301C391C039B00940322FFF709FD69B20094301C00
:400F80000322039BFFF702FD05B00CBC90469946F0BDC046F0B5474680B4CDB284B01C1C061C8846171CA91C03923B1C49B200940822F6B2FFF7D6FCB01C47B2381C4146A6
:400FC000039B00940322FFF7E1FC2A1C0B3251B2381C039B009403220136FFF7D7FC76B26B1C59B2301C039A231C0A35FFF716FB69B2301C039A231CFFF710FB04B004BCB6
:401000009046F0BDF0B5474680B4C6B2771C84B094461C1C7FB2634680460D1C0392381C00940322FFF7B2FC4046291C039B00940C22EDB2FFF796FC291C0B31381C039BA2
:4010400049B20094032204360135FFF79FFC70B269B200940A22039BFFF784FC04B004BC9046F0BDF0B5451C85B094466DB21C1C0E1C071C03920093281C63460422FFF7C9
:4010800085FC381C311C039BF7B200940C22FFF769FC391C0B31281C039B49B2009404220537FFF773FC79B20094281C0422039BFFF76CFC05B0F0BDF0B5461C85B0944644
:4010C00076B21C1C071C0D1C03920093301C63460422FFF75BFC381C291C039B00940C220535FFF73FFC69B20094301C0422039BFFF74CFC05B0F0BD00B583B001930F2343
:4011000003400F2B07D9081C049B111C019AFFF76FFE03B000BD36489B00C3589F46081C049B111C019AFFF7C7FFF2E7081C049B111C019AFFF73EFCEBE7081C049B111C3E
:40114000019AFFF77BFCE4E7081C049B111C019AFFF7D2FCDDE7081C049B111C019AFFF713FDD6E7081C049B111C019AFFF72AFDCFE7081C049B111C019AFFF765FDC8E74B
:40118000081C049B111C019AFFF796FDC1E7081C049B111C019AFFF7ABFDBAE7081C049B111C019AFFF7F4FDB3E7081C049B111C019AFFF74FFEACE7081C049B111C019AB1
:4011C000FFF7A0FEA5E7081C049B111C019AFFF7E1FE9EE7081C049B111C019AFFF712FF97E7081C049B111C019AFFF73BFF90E70420000070B584B0061C0D1C03921C1C13
:40120000000905D0009303210222039BFFF774FF301C039B009409210222FFF76DFF039A231C0F200221FFF74FFC2809039B009411210222FFF760FF0094281C172102220F
:40124000039BFFF759FF04B070BDC04638B50A21041C00F055FE0A210501201C00F094FE6818C0B238BDC04605231E21037041700123002202218270C37003714171837111
:40128000C37103727047C04670B50021041C512000F050FA032000F0B7FAFF21512000F093FB061C002000F0F7FAC2B213099900CD186A000F252B1C0340D01860700120B2
:4012C00000F0EAFA81068A0F930099184A0005405519F0B2257070BD00B5FEE7F8B52A4B4F464646581EC0B48446002B47D0274F0024BA683E6879689146002A22D0131C1D
:40130000043B5807331C04CBC50F90460A1C414602C2111C981B814514D0002D06D07568043320C2111C981B81450BD0181C20C8111C20C15B685360031D0A1D111C981B0B
:401340008145F3D1FE68002E14D0321F0B1C550710C3E80F5A1A96420CD0002803D010C35D1AAE4206D0181C10C05C60031D5A1A9642F8D161461037481E8446B9D200F00C
:401380000FFEFFF7D5F8FEE701000000EC22000010B50F4A0F48104C0023011C032B01D899000959013302C2011C032B01D899000959013302C2302BEFD1FEF72DFE802468
:4013C000064B00220120E1051A60086010BDC04600000020D912000000000000C000002038B5041C00F031F8054B06491D68A2052C1C0C4014431C6000F02BF838BDC0466D
:4014000000E400E0FFFF3FFF10B5054B054904241C6088640020FFF7E3FF0348046010BD80E100E00000002000E100E008B5002000F00FF808BDC0460230800804D0C046F0
:401440000138FDD1C046C0467047EFF3108072B6704780F31088704700B51F2800D901BE024A800083181868196000BD4000002038B5041C0D1E032D00D901BE1F2C00D95A
:4014800001BEFFF7E2FFA308084A99008B1803221440E40019680634A2409143A5400A1C2A431A60FFF7D5FF38BDC04600E400E008B5034B197A4843FFF7BEFF08BDC0466D
:4014C000CC00002010B50E200321FFF7D1FF1B490E20FFF7C1FF1A4B1A491B4801221A601A4C01601A4B1B491B481C6001601B4C1B481C490023236008601B4C1B481C49D7
:4015000004600C68802040022043086019491A4C0B601A481A492360022402600C60194C20680243226018488022184CD1002160174A0380174B1A6010BDC046E5150000BE
:4015400020001A407002005300001A40A400008004001A400000FF0F18001A401C001A400600040010001A400400040014001A4000031A4028021A4038021A4018021A4087
:40158000000F1A4030001A40D804002080001A403E180000D404002008B5054B802219681006084318600A20FFF782FF08BDC04600001A4010B5054C2378002B03D1FFF79F
:4015C00081FF01202070FFF7E7FF10BD04010020034B802219685002084318607047C04604001A40014B1A681A60704710021A4010B5041CFFF729FF044BA2011968C02486
:40160000A14311431960FFF724FF10BD00E400E010B5054B054901241C6008640320FFF7E7FF0348046010BD80E100E00000002000E100E008B5044B8022196810060843B2
:40164000186000F039FA08BD0000064008B5054B1A78002A03D10120187000F005F8FFF7E9FF08BD080100201B4B10B51B4A00241B481C601B4B026019680C220A431A60F4
:4016800019481A4B1A4918601A4A0C601A4B1B491B48146018600C6000F016FA194800F0F1F9032000F0F4F9174A18481460184B1849194A04601C6018481160184B194A27
:4016C000102104601C6018481170184B184904801C600C6010BDC0460000064077080080600006407000064007030080000306400403064010030640000206400402064047
:4017000007010080F11A0000880E0640C80E0640480F064013010000080F0640C80F0640880F0640DA040020DC040020E0040020E8040020F0B5474680B42B4D071C2B7864
:401740000E1C0424102B03D0201C04BC9046F0BD264801210368884608241942F4D17C00FF2700F0B1F93C40002E2CD124232B701F49204A0C60204E204C02272048226085
:40178000376023681D4A0342FBD0116849071FD41468A10721D41768FA0720D5102028700124174A154B174F1A60FFF74EFE396880224E0075083D603B681106194339601C
:4017C000FFF747FEC0E7252640462E700443CFE700240B48094F3860B6E70224F9E710262E7080256C00DCE7DA04002064000640400206401703000068000640000F06409C
:40180000070100000000064038B51E4D04242B78990601D4201C38BD1B491C4C08601C4803681B4A2342FBD01168490709D4106881070AD560242C700224144D144B1D60F2
:40184000E8E7602028700024F7E71468E20715D410222A7080256C000C490D480D4D0160FFF7F3FD2A685300590829602B688022110619432960FFF7ECFDCBE710232B70AA
:401880000124E9E7DA0400204002064007010000000F064000000640F8B51B4E071C33789A0602D401204042F8BD18490422184D184C02E02868204202D10B681A42F9D0C9
:4018C000124A042511680D4207D0134C20681560002F16D1114A1560E6E7114F0C4E114C3760FFF7B2FD236880275A005108216025683E062E432660FFF7ABFD01204042F3
:40190000D2E760233370CFE7DA040020C00F0640000F06400101000040030640680006401703000000000640234B70B5196800208A0612D400F0D0F820488023026819061B
:4019400054006508056006681D4A3143016001201060012000F0C0F870BD1A4C00F0BCF825680F26B5432560144D2B68590048082860002000F0B0F80A20FFF799FD012013
:4019800000F0AAF80A20FFF793FD002000F0A4F80A20FFF78DFD2A68802319061143296025680748B5430E263543256001240460002000F091F8CFE7640006400000064091
:4019C000680006401000014038B5274C042523789A0601D4281C38BD4000FF250540002934D02521012221701543204820490860FFF79AFF1F48012203681A42FCD11E49A1
:401A00001E480D601A4D2B68194A0342FBD0116849071ED41568A90720D41068C2071FD4102222708024650014491148144C0160FFF70BFD22685300590821602368802228
:401A4000110619432160FFF704FDC3E724232370CBE700250948064C2060BBE70225F9E7102323700125DFE7DA04002017030000000F0640680006404002064007010000F7
:401A800000000640014B98667047C0460000002038B5041CFFF7D9FC054B06491D68A2052C1C0C4014431C60FFF7D3FC38BDC04608E400E0FFFF3FFF8022024BD0001860B0
:401AC0007047C04600E100E08022024BD00018607047C04680E100E0044BFE211A680A4001210840104318607047C04600040440F0B5D04B574618684E464546E0B4002807
:401B000000D08047CC490A68D00702D5CB4D00242C60CB4C00222678B10619D5C94F3B68DD0500D5CDE03868C10711D5C64D90202B888100194329802278012632402F8842
:401B400051424A4101323A432A800025257001222378980616D5BB4E1023306803423ED0BA4FB94D3B60227801261640288872425641013606432E8023701CBC90469946BB
:401B8000A246F0BD277810263740F6D1B049B14AB148AE4D08602A60FFF757FCAF4B19684A0055081D601968802215060D431D60FFF74FFCAA48AB490368AB4A194001606F
:401BC0000568AA4B2A400260A948AA490760AA4D1F60AA4AAA4F0F6015602670CDE727783D070DD535680221294200D1EFE0974A954D116029888826B000084328800122F2
:401C0000277804233B4200D185E025780121294200D1A6E09B4E3068050762D59A4B9B491F689B4B0D681E68B81B0F272F40C61B082E00D9FAE0002E00D0F8E0884A8A49F8
:401C4000156808262940934D11600122771EBA4651460127394090481F6888462968BC4689460768E144F9B24F463970196801311960514600294BD04746002F0BD01968E4
:401C80002F6879180768FFB20F70196801311960B11E00293CD01E682F680239BE190768FFB237701E682F6801361E601E68BE190768FFB237701E6801361E600029EAD122
:401CC00026E0614DC022298896000E432E803F68FF0700D430E72B8890208100194329802AE731680B4213D0694F6A4D3E6828688119694E3568644EE8B208703968013183
:401D000039603F683568AF4200D3E8E0634803605B4D5A4B1D60002A00D12EE75048524A0168534E514D00270A405D4B026037602F60187887070CD52678012535406B42F0
:401D40005D41414B09351888602105431D80217013E7544C10272168880665D44F4A17600BE7384E0227306807423BD14E4B1D68E80600D4AAE04D4E0F2337681F40082F39
:401D800000D1B2E04A4B4B481D6801688D4215D2494F3D68494FAC460F2504E019688846016888450AD21968614409783960196801311960316829400829EFD11D68006868
:401DC000854200D18DE02C4F2A490F60A3E72678F70702D52523237012E7244F242020703B600DE7194A324B304817601D68066807680F223240F80BAD1A0140691A1960FF
:401E00001E682F4B104F1E603D88842290002D4E28433880316880235F020F4337603568294A2A40326079E7182797E70826194D0CE7C0460C0100208C0E0640880E064007
:401E4000DA0400200C0F0640DC040020000F0640400F064017030000FF0F00000000064060000640FFDFFFFFFFFEFFFF880F0640C80F0640800F0640F3070000C00F064050
:401E8000ED0F0000CC0F0640FC04002008030640E0040020E40400204003064068000640F4040020640006408C0F064008020640F8040020F0040020EC0400204002064096
:401EC000E804002004020640FFFFFEFF19684D0600D420E7064A0748166806601EE7012216E7054B40261E606DE7014B034865E7F8040020E8040020880F0640F0040020B4
:401F0000002934D00123002210B488422CD301242407A14204D2814202D209011B01F8E7E400A14204D2814202D249005B00F8E7884201D3401A1A434C08A04202D3001BCA
:401F40005C0822438C08A04202D3001B9C082243CC08A04202D3001BDC082243002803D01B0901D00909E3E7101C10BC7047002801D00020C04307B4024802A14018029011
:401F800003BDC046190000000029F0D003B5FFF7B9FF0EBC4243891A1847C0467047C04670B50E4B0E4D0024E81A85101E1CAC4204D0A100725890470134F8E700F084F98C
:401FC0000849094A0E1C541AA5100024AC4204D0A300F05880470134F8E770BDD4220000D4220000D4220000DC22000000B58218031C934202D019700133FAE700BD0000C7
:4020000000000000061100002C1100003A11000048110000561100006411000072110000801100008E1100009C110000AA110000B8110000C6110000D4110000E211000039
:402040001E11000048300F402A310F404F320F403B330F400F400F4014410F4001420F400D430F4002600F400502091F0BE00D400F8011D3130C15EC171119041B081D1080
:402080001F202180234029082B0431C03303350C37303BAA590C5B045C905F0181018302858089808DCF8F3091409504970899109B209D089F04A120A310A5F0A70FA97FED
:4020C000AB80AD02AF01B103B330B50CB7C0BBAAC042C103C6BBC80CC9FFCAFFCBFFCF40D030D90CDA0CDB04DC90DD09DF01E0F0E240E302E410E5122040210422502310D5
:402100002501272A29022A102D022E802F143108325033013680372A384039083B203D8A3F10452847015690680469846D406F0879407D40804087088B208D01CAF5CCFFD3
:40214000CEFED0E0DE18E210E404E62000010110020203200702084D09880AB20C550E8A0F0810041108124114BA15F016451703182219481C401DC11E801F3420452120E5
:4021800023102445284529702B8C30033130320833C0343C36C0370F38203A823B0A4042410345BF460D480749FF4AFF4BFF4F405030580C590C5A0C5C995D095F0160F070
:4021C0006240630264106512C042C103C5B0C802C9FFCAFFCBFFCF40D030DA0CDD09DF01E0F0E240E302E410E512051107010D080E020F84150817221D391E0A1F142545C9
:40220000264027212D012F04364437223D023F94412843014528470149024D014E804F04574079407D40810184048D418E0191C8931097289B029D029F01A004A56CA680A8
:40224000AA50AB08B104C0D0C2F0C470CAA0CCF0CEF0D0E7DE18E210E401E650EA20EC052F205220620867206F20701087108A108E20CA80D420D8C0DA80DC20E64050109B
:40228000510256105B025F40660887408C108D028E0894209A109B02AA08B302D4E0D660D880E640EA208202528057085904660281049A02A280A308AA80AB08D406D602A8
:4022C000D801020111010000F8B5C046F8BC08BC9E467047F102000091130000F8B5C046F8BC08BC9E467047C902000000230000C8000020180000002004000000000000BB
:40230000000000000000C05D80BB000030000000006CDC020000000000000000000000000000000000000000000000000000000000000000000000000000000000000000CB
:40234000000000000000000000000000000000000000000000000000000000000000000000000000000000000000000000000000000000000000000000000000000000005D
:40238000000000000000000000000000000000000000000000000000000000000000000000000000000000000000000000000000000000000000000000000000000000001D
:4023C00000000000000000000000000000000000000000000000000000000000000000000000000000000000000000000000000000000000000000000000000000000000DD
:40240000000000000000000000000000000000000000000000000000000000000000000000000000000000000000000000000000000000000000000000000000000000009C
:0200000490303A
:02000000127478
:0200000490402A
:200000000000000000000000000000000000000000000000000000000000000000000000E0
:0200000490501A
:0C000000000204C81193110104D424076D
:0200000490600A
:0100000001FE
:00000001FF