:400000000010002011000000C1110000C111000008B501F0D7F8C046F0B557464E464546E0B472B6694B012280241A700021E2006748802501F096FA0021EA00654801F0B5
:4000400091FA654E24208119FF228846002791468A4602CE4C46CBB2A143002B2AD0013BDDB2281C7A0001305244AC4645001078AB1E9C0743185078E40F18700223AB4294
:4000800016D0002C06D09478D078631818700423AB420DD0D45C6018D418647802330470D05CD4186478401802330470AB42F1D1013767444645CCD14849494D494A4A4BF9
:4000C00029604A4E1A604A4F4A4C4B494B4D4C4BC1203F223E6020604A4E29604A4F1A604A484B4D4B4A4C4B0124A3213E6004609926296049481A60B021494A37040D0699
:400100000760484B1560484E48484949494D1F60494A0660494B0F602F60494F494E176049481C6002243460017806270C4304700578464B2F4307701C688022D6022643C4
:40014000434F1E604348444D7B7A01782A782F2B10D9BC79B97AFA7A2F2C0BD9FE78F9793A7A2F2E06D9387839797A792F2801D97978BA78394D3A4F3A4B29603A601C7819
:40018000394E0520346001F005F9384935200860374D8227374B802637493C06300610222A602A4F1C6080220860344C344B3549D5020126344A3D601C600E601568284362
:4001C00010601CBC90469946A246F0BD1C700F4000300F4000400F40BC1500000300003300000140333333000400014033EE30300C000140000004400600D8000800044022
:4002000000010440B66D0300080104401802044000030440B60DC3000803044000500F4008500F4010500F4000002D0718500F4020500F4030500F4038500F4020000040E7
:40024000000004C000800F4000700F4000010B40C0F1FF0FCCF1FF0FCDF1FF0F1CFF0B4020FF0B40FDF1FF0F28FF0B402CFF0B401C02024008010B4004010B40070000804B
:400280000000024000031A4080031A4010B5064C2378002B07D10548002802D0044800E000BF0121217010BDE0000020000000007815000008B5084B002B03D00748084920
:4002C00000E000BF07480168002903D0064A002A00D0904708BDC0460000000078150000E4000020C800002000000000F0B54D4644465F465646F0B4754A76480123764D3B
:4003000013600370297887B00131CCB22C701F2C00D1B1E0012C00D1C2E0032C00D1B8E0072C00D1C9E00F2C00D1BFE06B4F6E783C78B1000A016A4B511A0C19E05C694C30
:40034000207069783A788800451C2F017E1BB718FD5CB1462570851C2E01751BAE180296A846F55CC61C25703501AD1BAC469346E3445E46F55CDF1925708C01201A8618A9
:400380009D196C7982465848994404707E7991440670029D5E465C1967799D1907706C7998440470081C083086008701BD1BAC180295039418194779741C4C4825010770C7
:4003C0002F1BBC18059404971D196F79B41C250107702F1BBD1801975C19033667793401A61BB41807701F197F799044077050461F18B818877A3E489C4407704F46BF7ADE
:40040000944407704746BF7A9E1907706746BF7A077002981F18B818877A36480770049FFF18B84690444746BF7A0770019FFF18BC4694446746BF7AB2180770977A2E4A7B
:4004400007700398C65C1670059F0326F85C214F1070ED5C294815703E70067807252940AE4331430170E35C137007B03CBC90469946A246AB46F0BD6878184F0130002493
:40048000C6B23C702C70082E1ED06E70B100002450E7124F6A7802233B709100022449E70E4F69783C708900012443E70B4F6A7804233B70910004243CE7084F6E78032068
:4004C0003870B100032435E76C700021002431E780E200E071000F40FC000020C00400200001002042000F4043000F4053000F4041000F4051000F4052000F4070000F40AF
:40050000F0B51A4C85B0201C00F0E8F800F0FEFE00F0BEFF164B03221A70164800F0E4FE03AE62B61E2000210F2530707170B570FF2700F0BBFF022000F0C2FF002000F0E1
:40054000D5FF83B20C4A181CB84381184A1E91414D42201C1D4000F0C1F80094281C17210222336800F006FEE3E7C0460001002071000F40ED0200000001FFFF10B58B0097
:40058000C4081919CBB21C01E11A07231840012484405218E143CCB213785079917A23402040214013705071537890799172D17A234020402140537090719378D079D172C9
:4005C000117B2340204021409370D071D378107A1173517B234020402140D37010721379507A5173917B234020400C4013715072947310BDF0B51E1C8F00C30883B0041C1E
:40060000F818C7B20192201C321CFFF7B7FF390101ADCA1BB31807202E780122A97820406C78151C1F78354085403D431D70151C5F79254085403D435D71151C9F7A0D4054
:4006400085403D439D7275105F78154085403D435D7065109F79154085403D439D714D10DF7A154085403D43DD72B5109F78154085403D439D70A510DF79154085403D4365
:40068000DD718D101F7B154085403D431D73F510DF78154085403D43DD70E5101F7A154085403D431D72CD105F7B15400911361124118540164014400A403D4382405F7A1B
:4006C0005D7386401D798440101C9A7B2E433C4310431E715C72987303B0F0BD00B5402100230239C9B203704371837243708371C3728370C3710373C37003724373037168
:4007000043728373C3730375437603744375837643748375C3768374C3750377C374037643771E300029DCD100BDC046F0B54D4644465F465646F0B483B0041C0D1C0D98D5
:400740005E1B8046F01736184640171CB1463E1BF0173618211C4640B14500DCB9E00124A1461F1C2C1C131C0D1CBC4200DDA9E0081C111C021C3E1B8A1AF0B2D1175218AE
:40078000834640B24A40C10F0E187010FF21C6B200919D4201DA01230093BC4200DD8AE0381B0121D2B201404B4692460191002B00D093E0E0B2E9B20C9A4346FFF71AFF91
:4007C0005246B61AF0B2C6B271B2002900DA93E0013464B2A7426EDB019A002A15D04846002800D08EE0E9B20C9A4346E0B2FFF701FF5146761AF3B2DEB272B2002A00DAED
:400800008EE0013464B2A74255DB391C4F46894621E0E1B20C9A4346E8B2FFF7EBFE5346F61AF1B2CEB272B2002A23DB013464B2002F29D0E8B2E1B20C9A4346FFF7DAFE3C
:400840005146721AD3B2DEB270B2002829DB013464B2A1452FDB002FDBD1E9B20C9A4346E0B2FFF7C7FE5346F61AF1B2CEB272B2002ADBDA00985B462D18CE1801346DB23E
:40088000F6B264B2002FD5D1E0B2E9B20C9A4346FFF7B0FE5146721AD3B2DEB270B20028D5DA009E59460134AD195A1864B26DB2D6B2A145CFDA03B03CBC90469946A24636
:4008C000AB46F0BD2E1C201C1D1C3C1C331C071C51E7002189461A1C291C46E7E8B2E1B20C9A4346FFF786FE5246B61AF0B2C6B271B2002900DB6BE7009B5844ED186DB2D5
:40090000C6B265E7E1B20C9A4346E8B2FFF772FE5146761AF3B2DEB272B2002A00DB70E700985B442D186DB2DEB26AE770B51D1C84B01E0C4B1E041C98186A469670158099
:40094000089D43B20195201C221CFFF7EFFE04B070BDC04630B50C1C85B0411E1D1C8A181B0C69468B700D80089D52B20195211C231CFFF7DBFE05B030BDC046F0B55746B5
:400980004E464546E0B48946111C0D0C84B0AC46C5B203921F1C9246EB1C4A46D6B25AB290466B4652461A80681C6246B11C03AC9A7040B242464B4649B20197FFF7B6FE4C
:4009C000218868460180A3780B3676B28370494640464246331C0197FFF7A8FE2188AA1C043550B26AB26D462980A478311CAC70331C0197FFF79AFE04B01CBC904699462B
:400A0000A246F0BDF0B557464E464546E0B4CDB21C1C061CC7B2681C84B08A46231CC1B2381C89460392FFF7E5FD7A1C53B29846181C5146039B009403220437FFF78AFFBB
:400A400078B24F4679B2039B00940422FFF76EFF681D41B2039B404600940322FFF77AFFA91D301C039B49B2009406220B35FFF75DFF69B20094301C0522039BFFF76AFFF5
:400A800004B01CBC90469946A246F0BDF0B5051C85B0171C1C1CEDB20392009305223B1C0E1CFFF757FF281D47B2381C311C039BF6B200940422FFF739FFE91C321DC8B264
:400AC000231CD1B2039AFFF795FDAB1C711D58B249B2039B00940222FFF73CFFB01D41B2039B381C00940522FFF720FF321C6F1C0B3278B251B2039B009403220A36FFF7DC
:400B000029FFF1B2281C039A231CFFF773FD05B0F0BDC046F0B5171C85B00C1C1D1C0392009307223B1C061CFFF700FFA11D301C039B49B2009505220336FFF70BFF70B215
:400B40000095211C0C22039BFFF7F0FE05B0F0BDF0B50D1C85B0171C1C1CEDB20392009305223B1C061CFFF7F5FE691C301C039BF6B249B200940622FFF7D8FE701C47B2B4
:400B80006A1D51B2381C039B00940322FFF7E2FE331DA91D58B249B2039B00940522FFF7C5FE281C0B3041B2039B381C009403220A35FFF7CFFEE9B2301C039A231CFFF725
:400BC00019FD05B0F0BDC046F0B5474680B4C7B27E1C84B094461C1C76B20D1C6346EDB280460392301C00940422FFF7B3FE691C4046039B49B200940A22FFF797FE681DA3
:400C000041B2039B301C00940322FFF7A3FE0437AA1D78B251B2039B009405220B35FFF785FE69B20094301C0322039BFFF792FE04B004BC9046F0BDF0B50C1CC6B2013194
:400C400085B01D1C071CC9B2301C03920436FFF7D1FC381C211C039B00950522FFF77AFE70B20095211C0C22039BFFF75FFE05B0F0BDC046F0B54F464646C0B41C1CC3B2CF
:400C80001F1C013785B094467FB20D1C061CEDB203929946381C634600940322FFF75AFE691D381C039B49B200940322FFF752FE281C0B3041B2039B381C00940322FFF79A
:400CC00049FE4F466A1C53B204379846301C191C7FB2039B009404220635FFF727FE6DB2381C4146039B00940422FFF71FFE301C291C039B00940522FFF718FE0094381CD1
:400D0000291C0522039BFFF711FE05B00CBC90469946F0BDF0B5474680B4C6B284B094461C1C0D1C731C071C039258B2009463460322EDB28046FFF70DFE691D013540461D
:400D4000039B6DB249B200940322FFF703FE0436381C291C039B00940422FFF7E7FD70B20094291C0B22039BFFF7E0FD04B004BC9046F0BDF0B5474680B4C6B284B094468A
:400D80001C1C0D1C731C071C039258B2009463460322EDB28046FFF7DDFD291C0B3101354046039B6DB249B200940322FFF7D2FD0436381C291C039B00940A22FFF7B6FD9D
:400DC00070B20094291C0A22039BFFF7AFFD04B004BC9046F0BDC046F0B55F4656464D464446F0B4061C85B0101C03929346040CF2B2A446CDB21C1C131C914604332A1C1F
:400E000002325BB2A8469A4655B26B465A4648461A80023062469A7040B252462B1C0194FFF784FC494603AF013148B239886A461180BF784346834601339770301C291C9F
:400E40005A465BB20194FFF771FC4046073041B2039B584600940322FFF77CFD5046291C039B00940A22FFF761FD0094301C291C0A22039BFFF75AFD05B03CBC904699468E
:400E8000A246AB46F0BDC046F0B54F464646C0B48146C0B2061CCDB2013685B094461C1C0F1C76B2691D63460392804649B2301C00940322FFF74EFD4846391C039B0094E1
:400EC0000C22FFF733FD4246043253B2681C994641B20094181C0422039BFFF727FDA91D4846039B49B200940522FFF71FFD0B35301C391C039B00940322FFF72BFD69B2B4
:400F00000094301C0322039BFFF724FD05B00CBC90469946F0BDC046F0B5474680B4CDB284B01C1C061C8846171CA91C03923B1C49B200940822F6B2FFF7F8FCB01C47B2DD
:400F4000381C4146039B00940322FFF703FD2A1C0B3251B2381C039B009403220136FFF7F9FCF6B26B1CD9B2301C039A231C0A35FFF740FBE9B2301C039A231CFFF73AFBB6
:400F800004B004BC9046F0BDF0B5474680B4C6B2771C84B094461C1C7FB2634680460D1C0392381C00940322FFF7D4FC4046291C039B00940C22EDB2FFF7B8FC291C0B315D
:400FC000381C039B49B20094032204360135FFF7C1FC70B269B200940A22039BFFF7A6FC04B004BC9046F0BDF0B5451C85B094466DB21C1C0E1C071C03920093281C634630
:401000000422FFF7A7FC381C311C039BF7B200940C22FFF78BFC391C0B31281C039B49B2009404220537FFF795FC79B20094281C0422039BFFF78EFC05B0F0BDF0B5461C2F
:4010400085B0944676B21C1C071C0D1C03920093301C63460422FFF77DFC381C291C039B00940C220535FFF761FC69B20094301C0422039BFFF76EFC05B0F0BD00B583B014
:4010800001930F2807D9081C049B111C019AFFF771FE03B000BD364B800018588746081C049B111C019AFFF7C9FFF2E7081C049B111C019AFFF762FCEBE7081C049B111C24
:4010C000019AFFF79FFCE4E7081C049B111C019AFFF7DCFCDDE7081C049B111C019AFFF719FDD6E7081C049B111C019AFFF730FDCFE7081C049B111C019AFFF765FDC8E792
:40110000081C049B111C019AFFF796FDC1E7081C049B111C019AFFF7ADFDBAE7081C049B111C019AFFF7F6FDB3E7081C049B111C019AFFF751FEACE7081C049B111C019A2B
:40114000FFF7A2FEA5E7081C049B111C019AFFF7E3FE9EE7081C049B111C019AFFF714FF97E7081C049B111C019AFFF73DFF90E77C15000070B584B0089C051C0094000BD2
:40118000032102220F260393FFF778FF280A3040039B009409210222FFF770FF28093040039B00940F210222FFF768FF301C2840009415210222039BFFF760FF04B070BD2E
:4011C00000B5FEE7F8B52A4B4F464646581EC0B48446002B47D0274F0024BA683E6879689146002A22D0131C043B5807331C04CBC50F90460A1C414602C2111C981B81453A
:4012000014D0002D06D07568043320C2111C981B81450BD0181C20C8111C20C15B685360031D0A1D111C981B8145F3D1FE68002E14D0321F0B1C550710C3E80F5A1A96429D
:401240000CD0002803D010C35D1AAE4206D0181C10C05C60031D5A1A9642F8D161461037481E8446B9D200F057F9FFF749F9FEE7010000005418000010B50F4A0F48104C4E
:401280000023011C032B01D899000959013302C2011C032B01D899000959013302C2302BEFD1FEF7B9FE8024064B00220120E1051A60086010BDC04600000020C111000051
:4012C00000000000C000002010B5041C00F02DF8044BA2011968C024A1431143196000F028F810BD00E400E010B5054B054901241C6008640020FFF7E7FF0348046010BD83
:4013000080E100E00000002000E100E008B5002000F00FF808BDC0460230800804D0C0460138FDD1C046C0467047EFF3108072B6704780F31088704700B51F2800D901BEE7
:40134000024A800083181868196000BD4000002038B5041C0D1E032D00D901BE1F2C00D901BEFFF7E2FFA308084A99008B1803221440E40019680634A2409143A5400A1C24
:401380002A431A60FFF7D5FF38BDC04600E400E001BE704708B5034B197A4843FFF7BCFF08BDC046CC00002010B50E200321FFF7CFFF1A490E20FFF7BFFF194B01221A6095
:4013C00018491948194C1A4B01601C6019491A481A4C00230160236019491A481A4C016021601A4980200C684002204308601849184C0B60184819492360022402600C605A
:40140000174C20680243226016488022164CD1002160164A0380164B1A6010BD0D15000020001A407002005000001A408400008004001A400000FF0F18001A401C001A40AB
:401440000400040010001A4014001A4000031A4028021A4038021A4018021A40000F1A4030001A40C804002080001A403E180000C404002008B5054B80221968100608431B
:4014800018600A20FFF786FF08BDC04600001A4010B5054C2378002B03D1FFF785FF01202070FFF7E7FF10BDFE000020034B802219685002084318607047C04604001A40A7
:4014C000011C00B500208B070DD00220064A0123014001E0002906D010681840FAD0024A01211160012000BD10021A4008B5002805D1054B186801040A0C10B208BD0020C4
:40150000FFF746FF0022F8E780011A40014B1A681A60704710021A4070B50E4B0E4D0024E81A85101E1CAC4204D0A100725890470134F8E700F07CF90849094A0E1C541AA2
:40154000A5100024AC4204D0A300F05880470134F8E770BD3C1800003C1800003C1800004418000000B58218031C934202D019700133FAE700BD000000000000861000007F
:40158000AC100000BA100000C8100000D6100000E4100000F2100000001100000E1100001C1100002A110000381100004611000054110000621100009E10000048300F406C
:4015C0002A310F404F320F4038330F400B400F4014410F4001420F400D430F4002600F400502091F0BE00D400F8011D3130C15EC171119041B081D101F2021802340290894
:401600002B0431C03303350C37303BAA590C5B045C905F0181018302858089808DCF8F3091409504970899109B209D089F04A120A310A5F0A70FA97FAB80AD02AF01B103AD
:40164000B330B50CB7C0BBAAC042C103C6BBC80CC9FFCAFFCBFFCF40D030D90CDA0CDB04DC90DD09DF01E0F0E240E302E410E51220402104225023102501272A29022A10C1
:401680002D022E802F143108325033013680372A384039083B203D8A3F10452847015690681869806D406F0879407D40804087088B208D01CAF5CCFFCEFED0E0DE18E210C6
:4016C000E404E62000010110020203200702084D09880AB20C550E8A0F0810041108124114BA15F016451703182219481C401DC11E801F3420452120231024452845297032
:401700002B8C30033130320833C0343C36C0370F38203A823B0A4042410345BF460D480749FF4AFF4BFF4F405030580C590C5A0C5C995D095F0160F06240630264106512AA
:40174000C042C103C5B0C802C9FFCAFFCBFFCF40D030DA0CDD09DF01E0F0E240E302E410E512051107010D080E020F84150817221D391E0A1F142545264027212D012F0436
:40178000364437223D023F94412843014528470149024D014E804F04574079407D4081018D418E0191C8931097289B029D029F01A56CA680AA50AB08AC18C0D0C2F0C47087
:4017C000CAA0CCF0CEF0D0E7DE18E210E401E650EC055220620867206C1087108A108E20D420D8C0DA80E6405010510256105D015F8066088C108D028E08910194209A101B
:401800009B80AA08AD01AF80D4E0D6A0D880EA708202528057085904660281049A02A280A308AA80AB08D406D602D80102011101F8B5C046F8BC08BC9E467047B5020000C0
:4018400079120000F8B5C046F8BC08BC9E4670478D02000068180000C800002018000000F003000000000000000000000000C05D80BB000030000000006CDC020000000043
:401880000000000000000000000000000000000000000000000000000000000000000000000000000000000000000000000000000000000000000000000000000000000028
:4018C00000000000000000000000000000000000000000000000000000000000000000000000000000000000000000000000000000000000000000000000000000000000E8
:4019000000000000000000000000000000000000000000000000000000000000000000000000000000000000000000000000000000000000000000000000000000000000A7
:401940000000000000000000000000000000000000000000000000000000000000000000000000000000000000000000000000000000000000000000000000000000000067
:0200000490303A
:02000000DA869E
:0200000490402A
:200000000000000000000000000000000000000000000000000000000000000000000000E0
:0200000490501A
:0C000000000204C81193110104D0EC1997
:0200000490600A
:0100000001FE
:00000001FF