:400000000010002011000000C9070000C907000008B500F0DBFBC046F0B557464E464546E0B472B6764B012280241A700021A2007448802500F051FD802600216A007248DA
:4000400000F04BFDF2000021704800F046FD70498022704800F038FD6F4980226F4800F033FD6F4E20208119FF228846002791468A4602CE4C46CBB2A143002B2AD0013B69
:40008000DDB2281C7A0001305244AC4645001078AB1E9C0743185078E40F18700223AB4216D0002C06D09478D078631818700423AB420DD0D45C6018D41864780233047008
:4000C000D05CD4186478401802330470AB42F1D1013767444645CCD15249534D534B2960534E544F5448554C554D032299211A603E60544B2060544E2960544F5448554DAA
:400100000121812206241A603E60534B0160534E2C60534F534CDF22E0201A60524D3E60524A2060524B534802263127156099241E60514A0760514B514F2504156051489A
:400140003B608024504B62020560504F1A60504C5048514A3D60514B04601560504CD0252F061F6021604F494F480E60027806251643067006784D4F354305703B688024BD
:40018000E10219434A4E39604A484B4A757A017810782F2D10D9B779B17AF07A2F2F0BD9F378F179307A2F2B06D93478317970792F2C01D97178B078404A414E414D116017
:4001C00030602F78404B05201F6000F04DFC3F493F4A3524102080260C60350610603D4F264E3D4B802431483C4AE1023D601D60016032601CBC90469946A246F0BDC046C6
:400200001C700F4080300F4000330F4000400F40F00A000000300F40700B000080320F40F00B0000030000300000014004000140333303330800014000EE30330C000140A7
:4002400010000140000004400600C00008000440000104400801044000020440B66DD8000802044000030440800DDB0008030440000404400804044000500F40000002403F
:4002800008500F4010500F4018500F4020500F4000001B3128500F4030500F4038500F402000004000800F4000700F4000010B40C0F1FF0FCCF1FF0FCDF1FF0F1CFF0B40C3
:4002C00020FF0B40FDF1FF0F28FF0B402CFF0B400802024008010B4004010B402200008010B5064C2378002B07D10548002802D0044800E000BF0121217010BDE0000020B7
:4003000000000000EC0A000008B5084B002B03D00748084900E000BF07480168002903D0064A002A00D0904708BDC04600000000EC0A0000E4000020C800002000000000F8
:40034000F0B54D4644465F465646F0B4754A76480123764D13600370297887B00131CCB22C701F2C00D1B1E0012C00D1C2E0032C00D1B8E0072C00D1C9E00F2C00D1BFE02B
:400380006B4F6E783C78B1000A016A4B511A0C19E05C694C207069783A788800451C2F017E1BB718FD5CB1462570851C2E01751BAE180296A846F55CC61C25703501AD1BFC
:4003C000AC469346E3445E46F55CDF1925708C01201A86189D196C7982465848994404707E7991440670029D5E465C1967799D1907706C7998440470081C0830860087012A
:40040000BD1BAC180295039418194779741C4C48250107702F1BBC18059404971D196F79B41C250107702F1BBD1801975C19033667793401A61BB41807701F197F799044E1
:40044000077050461F18B818877A3E489C4407704F46BF7A944407704746BF7A9E1907706746BF7A077002981F18B818877A36480770049FFF18B84690444746BF7A0770BC
:40048000019FFF18BC4694446746BF7AB2180770977A2E4A07700398C65C1670059F0326F85C214F1070ED5C294815703E70067807252940AE4331430170E35C137007B0E1
:4004C0003CBC90469946A246AB46F0BD6878184F01300024C6B23C702C70082E1ED06E70B100002450E7124F6A7802233B709100022449E70E4F69783C708900012443E7A3
:400500000B4F6A7804233B70910004243CE7084F6E7803203870B100032435E76C700021002431E780E200E073000F40FC000020C80400200801002043000F4040000F4046
:4005400050000F4042000F4052000F4053000F4070000F40F0B54E4645465746E0B42B4984B0002268462A4E002301AC0270427082700325081C23806380A380E380238182
:400580006381884600F0F8F800F056FA00F0A0F93570204800F03EFA62B66F4602371F230F223D8800269A469146442D16D1A08869460870E5884D7023898B70042E09D904
:4005C000208861884A46564611403040009A434600F05EF83D880026442DE8D000F092F90028E2D000F0E6F971000136F6B26052701E4300E55A502DD7D1404600F0BCF87B
:4006000000F080F90028D0D0ECE7C0460801002073000F404103000010B58B00C4081919CBB21C01E11A07231840012484405218E143CCB213785079917A234020402140A4
:4006400013705071537890799172D17A234020402140537090719378D079D172117B2340204021409370D071D378107A1173517B234020402140D37010721379507A517379
:40068000917B234020400C4013715072947310BDF0B51E1C8F00C30883B0041CF818C7B20192201C321CFFF7B7FF390101ADCA1BB31807202E780122A97820406C78151C09
:4006C0001F78354085403D431D70151C5F79254085403D435D71151C9F7A0D4085403D439D7275105F78154085403D435D7065109F79154085403D439D714D10DF7A1540AD
:4007000085403D43DD72B5109F78154085403D439D70A510DF79154085403D43DD718D101F7B154085403D431D73F510DF78154085403D43DD70E5101F7A154085403D43E1
:400740001D72CD105F7B15400911361124118540164014400A403D4382405F7A5D7386401D798440101C9A7B2E433C4310431E715C72987303B0F0BD00B5402100230239C4
:40078000C9B203704371837243708371C3728370C3710373C37003724373037143728373C3730375437603744375837643748375C3768374C3750377C374037643771E30D4
:4007C0000029DCD100BDC04600B5FEE7F8B52A4B4F464646581EC0B48446002B47D0274F0024BA683E6879689146002A22D0131C043B5807331C04CBC50F90460A1C414615
:4008000002C2111C981B814514D0002D06D07568043320C2111C981B81450BD0181C20C8111C20C15B685360031D0A1D111C981B8145F3D1FE68002E14D0321F0B1C550753
:4008400010C3E80F5A1A96420CD0002803D010C35D1AAE4206D0181C10C05C60031D5A1A9642F8D161461037481E8446B9D200F005F9FFF76FFEFEE7010000007C0D00001D
:4008800010B50F4A0F48104C0023011C032B01D899000959013302C2011C032B01D899000959013302C2302BEFD1FFF7B5FB8024064B00220120E1051A60086010BDC04682
:4008C00000000020C907000000000000C000002008B5074B1A78002A03D10120187000F021F8044B8022196810060843186008BD0001002000000640014B18687047C046D7
:4009000040030640024B0F20196808407047C04608030640024B002218681A607047C046C80F0640124A134B134810B51A6000230360124A124C134801212160026012484A
:4009400007240460114C1248236001601149124C0A601248124A134913602360124A0360124C13480B6013602360036010BDC0460B000002000006404000064007000080B4
:40098000480006400003064004030640100306404400064000020640880E0640C80E064004020640480F0640080F0640C80F0640880F064010B5FFF7ADFF041CFFF7A2FF92
:4009C00000280CD1084B094918680C60084AD82314689900116021400A02104310BD03480460FFF789FFF1E740030640C80F0640C00F064010B5041C00F02FF8044BA20153
:400A00001968C024A1431143196000F02AF810BD00E400E010B5054B054901241C6008640120FFF7E7FF0348046010BD80E100E00000002000E100E008B5002000F011F81C
:400A400008BDC046000000000230800804D0C0460138FDD1C046C0467047EFF3108072B6704780F31088704708B5034B197A4843FFF7EAFF08BDC046CC00002070B50E4BFD
:400A80000E4D0024E81A85101E1CAC4204D0A100725890470134F8E700F05EF90849094A0E1C541AA5100024AC4204D0A300F05880470134F8E770BD640D0000640D0000DB
:400AC000640D00006C0D000010B50023934203D0CC5CC4540133F9E710BD00B58218031C934202D019700133FAE700BD00000000000400087EFD81021002200001010200AB
:400B000000C3003CCD1032204040008004080804203F10C080020000F1200C1008800440030C3030C0C00C030000AAAA00000000630200000000B00008FFFFFF0000004019
:400B400030000000000000000C0C0C0499090001F000400210120000000000000000000000000000000000000000000000000000040041024500000000C00033000800009F
:400B800001F102044D30B24CBA88450040108020450000084508000055208A1022000000030F3C0F08C0C030080082A0000000006302000000D00BF026FFFFFF00000040AE
:400BC00030000000000000000C0C0C0499090001F00040021012000000000000000000000000000000000000000000000000000023310F4011320F4042330F4008400F4016
:400C000006410F400B420F4012430F4002600F40004403080A151080122918401A051B28216922802A122B21308031283201380439A2400442104A08521068146B01794048
:400C400087088814C007C207C40FCA0FCC0FCE0FD006D204DE084023410647B0482049FF4AFF4BFF4F4050305A0C5D095F0160F06240630264106512010203200A591002C7
:400C800012A818241A7921902229232029022A102B2031803225382239803E30400442104620472049024A084E0450835601570169406B0879407D4082128308860189801E
:400CC00091809404956096529A109E03A280A320A480A628A701AD01AE01AF01B128B440B640C00CC20FC40FCA07CC0FCE0DD066D224DE18E00CE80AEC02EEE050025F026E
:400D00006C108702D480D680DA80E64056809A80B002B280B410D4405240548058145F8866028890D407D607D801E004E4015A025C046608800486408A0892029E40AC041D
:400D4000AE01AF80B602B708D603D801E004E802EC02020111010000F8B5C046F8BC08BC9E4670470903000081080000F8B5C046F8BC08BC9E467047E1020000900D0000FA
:400D8000C800002018000000F003000000000000000000000000C05D80BB000030000000006CDC02000000000000000000000000000000000000000000000000000000006E
:400DC00000000000000000000000000000000000000000000000000000000000000000000000000000000000000000000000000000000000000000000000000000000000F3
:400E000000000000000000000000000000000000000000000000000000000000000000000000000000000000000000000000000000000000000000000000000000000000B2
:400E40000000000000000000000000000000000000000000000000000000000000000000000000000000000000000000000000000000000000000000000000000000000072
:400E80000000000000000000000000000000000000000000000000000000000000000000000000000000000000000000000000000000000000000000000000000000000032
:0200000490303A
:020000001A1FC5
:0200000490402A
:200000000000000000000000000000000000000000000000000000000000000000000000E0
:0200000490501A
:0C000000000204C81193110104CC2BB2C3
:0200000490600A
:0100000001FE
:00000001FF