:4000000000100020110000002D0D00002D0D000008B500F08DFEC046F0B557464E464546E0B472B6764B012280241A700021E2007448802501F0D2F80021EA00724801F0C9
:40004000CDF8724E24208119FF228846002791468A4602CE4C46CBB2A143002B2AD0013BDDB2281C7A0001305244AC4645001078AB1E9C0743185078E40F18700223AB424D
:4000800016D0002C06D09478D078631818700423AB420DD0D45C6018D418647802330470D05CD4186478401802330470AB42F1D1013767444645CCD15549564D564A574BC5
:4000C0002960574E574F584C584D1A60EE20C121574A584B3E602060574F29605748584C584D1A603F26FE21574B3E60FF222060564F29605648574C574D1A60A3260321A7
:40010000564B3E6024222060554E2960554F802055491A608404554D554A3E6099230C60544F5548554C15601E045549554D3E60554A2060554B564F564C0E600E202E601D
:40014000554D0D261A603E602060297802220A432A702B7806261E43504F2E7038688024E50205434E4B3D604E494F4A5E7A0D7811782F2E10D99F799D7AD97A2F2F0BD930
:40018000D878DD79197A2F2806D91C781D7959792F2C01D95D789978444A454B454E1560196037784448454D0760052000F0E8FE3524434A434B2C60202110268227424C3D
:4001C000116038061E60802540498026334B20602A06F7023E483F4C0A603F4D1F603F493F4F404B2060FF263F480D603E601E600468224302601CBC90469946A246F0BDA6
:400200001C700F4000300F4000400F40F41100000300003300000140333333000400014033EE30300C00014010000140000004400630D8000800044000010440B66D030053
:4002400008010440000204401802044000030440B60DC3000803044000040440080404400400990000500F4004500F40000002B008500F4010500F4000006C0718500F40C8
:4002800020500F4030500F40000008C438500F402000004000800F4000700F4000010B40C0F1FF0FCCF1FF0FCDF1FF0F1CFF0B4020FF0B40FDF1FF0F28FF0B402CFF0B40C9
:4002C000080202401C02024008010B4004010B400B000080000002401D0000804000024000031A4040031A4080031A4010B5064C2378002B07D10548002802D0044800E0C3
:4003000000BF0121217010BDE000002000000000F011000008B5084B002B03D00748084900E000BF07480168002903D0064A002A00D0904708BDC04600000000F01100008F
:40034000E4000020C800002000000000F0B55F464D4644465646F0B4674B6849684D082201201A6008702C7887B00134E7B22F70012F00D1B9E0032F00D1A5E0614A6E789A
:400380001478B7003801604BC11B0C19E75C5F4C2770697812788800451C2E01771BB946BF18FD5C93462570851C2E01751BAE180296A846F55CC61C25703501AD1BAC467A
:4003C000E3445E46F55CDF1925708C01201A86189D196C7982464E48994404707E7991440670029D5E465C1967799D1907706C7998440470081C083086008701BD1BAC1863
:400400000295039418194779741C4248250107702F1BBC18059404971D196F79B41C250107702F1BBD1801975C19033667793401A61BB41807701F197F799044077050467A
:400440001F18B818877A34489C4407704F46BF7A944407704746BF7A9E1907706746BF7A077002981F18B818877A2C480770049FFF18B84690444746BF7A0770019FFF1826
:40048000BC4694446746BF7AB2180770977A244A07700398C65C1670059F0326F85C174F1070ED5C1F4815703E70067807252940AE4331430170E35C137007B03CBC9046E8
:4004C0009946A246AB46F0BD68780E4A01300023C1B213702B70082903D069708F00002450E76B70002400274CE7064A6E7817700124B70046E7C04680E200E071000F408C
:40050000FC000020EC0400202C01002042000F4043000F4053000F4041000F4051000F4052000F4072000F40444B454A196845481368454A00B5C3801368444A03811368B5
:40054000434A43811368434A83811368424AC3811368424A03821368FF22438213028180194099422ED0C388FF22934311028B4230D00189FF2291431302994232D043893F
:40058000FF22934311028B4234D08189FF2291431302994236D0C389FF22934311028B4238D0018AFF229143130299423AD0438AFF22934311028B423CD008220121426127
:4005C000017600BDC3880021FF228180934311028B42CED101890023FF22C380914313029942CCD143890021FF220181934311028B42CAD181890023FF2243819143130296
:400600009942C8D1C3890021FF228181934311028B42C6D1018A0023FF22C381914313029942C4D1438A0021FF220182934311028B42C2D100234382BFE7C04680011A40B3
:4006400084011A40FC00002088011A408C011A4090011A4094011A4098011A409C011A40F0B556464D4644465F46F0B4654C87B06846012300220221634E03704270827083
:40068000C370037142718271C271037242728372C372037342738373C373037443748174C374037541758175C2750325201C00F06BF900F0E1FB5548357000F0CBFB00F0EF
:4006C00023FD00F02FFD524800F050FDA04662B6504E0024371C2037351D012000F010FC337E012BF9D1381C291C00F0E9FA34760128F2D1B0880F23C10919402022B15491
:40070000F088C2091A402120325432898346D2091A402220325472898246D2091A4023203254B2898146D2091A4024203254F2892520D2091A403254328A2620D2091A4060
:400740003254728AD00903402722B3540020009A434600F053FA68460279C3784079120259461A43030471561A430120434600F045FA6A46137AD08851461A047156024384
:400780004346022000F03AFA6846827A437AC07A120249461A43030471561A430320434600F02CFA24217156039A4346042000F025FA68462522B156027CC37B407C1202EF
:4007C0001A4303041A430520434600F017FA6A46137D508A26211A04715602434346062000F00CFA6846827D437DC07D12021A43272103041A4371560720434600F0FEF934
:400800006BE7C0462C01002071000F404D03000029050000FC00002010B58B00C4081919CBB21C01E11A07231840012484405218E143CCB213785079917A234020402140DC
:4008400013705071537890799172D17A234020402140537090719378D079D172117B2340204021409370D071D378107A1173517B234020402140D37010721379507A517377
:40088000917B234020400C4013715072947310BDF0B5CFB283B0041C0192391C1A1CC0B21E1CFFF7B9FFE117490F0C19B800E310C21857B207223801144001ADC31B611A52
:4008C000F3184AB22E7801216C78A8780D1C1F78354095403D431D700D1C5F79254095403D435D710D1C9F7A054095403D439D7275105F780D4095403D435D7065109F7942
:400900000D4095403D439D714510DF7A0D4095403D43DD72B5109F780D4095403D439D70A510DF790D4095403D43DD7185101F7B0D4095403D431D73F510DF780D40954001
:400940003D43DD70E5101F7A0D4095403D431D72C5105F7B0D4000113611241195400E400C4001403D4391405F7A5D7396401D7994400A1C997B2E433C430A431E715C72A4
:400980009A7303B0F0BDC04600B5402100230239C9B203704371837243708371C3728370C3710373C37003724373037143728373C373037543760374437583764374837585
:4009C000C3768374C3750377C374037643771E300029DCD100BDC046F0B54D4644465F465646F0B483B0041C0D1C0D985E1B8046F01736184640171CB1463E1BF01736180A
:400A0000211C4640B14500DCB9E00124A1461F1C2C1C131C0D1CBC4200DDA9E0081C111C021C3E1B8A1AF0B2D1175218834640B24A40C10F0E187010FF21C6B200919D421A
:400A400001DA01230093BC4200DD8AE0381B0121D2B201404B4692460191002B00D093E0201C291C0C9A4346FFF712FF5246B61AF0B2C6B271B2002900DA93E0013464B2DF
:400A8000A7426EDB019A002A15D04846002800D08EE0291C0C9A4346201CFFF7F9FE5146761AF3B2DEB272B2002A00DA8EE0013464B2A74255DB391C4F46894621E0211C7C
:400AC0000C9A4346281CFFF7E3FE5346F61AF1B2CEB272B2002A23DB013464B2002F29D0281C211C0C9A4346FFF7D2FE5146721AD3B2DEB270B2002829DB013464B2A145F4
:400B00002FDB002FDBD1291C0C9A4346201CFFF7BFFE5346F61AF1B2CEB272B2002ADBDA00985B462D18CE1801346DB2F6B264B2002FD5D1201C291C0C9A4346FFF7A8FE07
:400B40005146721AD3B2DEB270B20028D5DA009E59460134AD195A1864B26DB2D6B2A145CFDA03B03CBC90469946A246AB46F0BD2E1C201C1D1C3C1C331C071C51E7002186
:400B800089461A1C291C46E7281C211C0C9A4346FFF77EFE5246B61AF0B2C6B271B2002900DB6BE7009B5844ED186DB2C6B265E7211C0C9A4346281CFFF76AFE5146761A4D
:400BC000F3B2DEB272B2002A00DB70E700985B442D186DB2DEB26AE770B584B0041C1D1C68461E0C058086705318089A5BB20192201C221CFFF7F0FE04B070BDF0B54646A2
:400C00004F46C0B4860087B003921C1C002205AB70B20D1C1A705A709A7000284DDB1C2800DD1C2671B2F6B2081C771C2A1C039B884600940021FFF7CFFF7BB2181C0021C4
:400C40002A1C99460094039BFFF7C6FFB21C57B20336381C00212A1C039B009476B2FFF7BBFF0094301C00212A1C039BFFF7B4FF0F2D1DD001356DB24046291C0F22059BE5
:400C80000094FFF7A9FF4846291C0F22059B0094FFF7A2FF381C291C0F22059B0094FFF79BFF0094301C291C0F22059BFFF794FF07B00CBC90469946F0BD00260020AEE76A
:400CC00000B50B880278DB09DBB29A422BD14A88D3094278DBB29A4225D18A88D3098278DBB29A421FD1CA88D309C278DBB29A4219D10A89D3090279DBB29A4213D14A891C
:400D0000D3094279DBB29A420DD18A89D3098279DBB29A4207D1C989C079CA09D1B2081A431E984100BD0120FCE7C04600B5FEE7F8B52A4B4F464646581EC0B48446002BEA
:400D400047D0274F0024BA683E6879689146002A22D0131C043B5807331C04CBC50F90460A1C414602C2111C981B814514D0002D06D07568043320C2111C981B81450BD01C
:400D8000181C20C8111C20C15B685360031D0A1D111C981B8145F3D1FE68002E14D0321F0B1C550710C3E80F5A1A96420CD0002803D010C35D1AAE4206D0181C10C05C60D9
:400DC000031D5A1A9642F8D161461037481E8446B9D200F0DDF9FFF743FCFEE7010000009414000010B50F4A0F48104C0023011C032B01D899000959013302C2011C032B36
:400E000001D899000959013302C2302BEFD1FFF703F98024064B00220120E1051A60086010BDC046000000202D0D000000000000C000002010B5041C00F02FF8044BA107D9
:400E40001A689400A2081143196000F02AF810BD00E400E010B5054B054908241C60C8640020FFF7E7FF0348046010BD80E100E00000002000E100E008B5002000F011F89B
:400E800008BDC046000000000230800804D0C0460138FDD1C046C0467047EFF3108072B6704780F31088704700B51F2800D901BE024A800083181868196000BD40000020E5
:400EC00038B5041C0D1E032D00D901BE1F2C00D901BEFFF7E2FFA308084A99008B1803221440E40019680634A2409143A5400A1C2A431A60FFF7D5FF38BDC04600E400E0B6
:400F0000F0B5474680B48027061C3F02184DB84226D9184A184C83181804C10F341928688846FFF7B1FFBC4213D94246002A06D02868FFF7A9FF114BF418BC4209D92868CD
:400F4000FFF7A2FF2868FFF79FFF0C482418BC42F5D8084F084CF119CA0BD3033619F61A68687043FFF790FF04BC9046F0BDC046CC000020FF7FFFFF0080FFFF0000FFFF67
:400F800008B5034B197A4843FFF77EFF08BDC046CC00002038B50E200321FFF791FF2E490E20FFF781FF2D4BFF222D482D492E4C2E4D1A602E4A2F4B08602C602E482F4C34
:400FC0002F49304D1A6000232F4A03600C602C6010688024610208432C4D10602A682C4811432C4C29602C4A2C4D03600121236002202B4C2960106025682A4A2943216006
:401000008021C800106028492848294A294D2A4C038011602560294D294C438051602560284D294C838091602560284D284CC380D1602560274D284C038111612560274D1E
:40104000274C438151612560264D274C838191612560C381D16138BD3911000020001A407020001100001A40F400008004001A400000FF0F18001A401C001A4004000400A7
:4010800010001A4014001A4000031A4040031A4028021A4038021A40000F1A4018021A4030001A4080001A403E18000010050020F00400200104000084001A40020400007D
:4010C00088001A40030400008C001A400404000090001A400504000094001A400604000098001A40070400009C001A4008B5054B802219681006084318600A20FFF740FFD3
:4011000008BDC04600001A4010B5054C2378002B03D1FFF73FFF01202070FFF7E7FF10BD28010020034B802219685002084318607047C04604001A40014B1A681A60704763
:4011400010021A4038B5041CFFF7A7FE054B06491D68A2052C1C0C4014431C60FFF7A1FE38BDC04600E400E0FFFF3FFF10B5054B054904241C6088640320FFF7E3FF034860
:40118000046010BD80E100E00000002000E100E070B50E4B0E4D0024E81A85101E1CAC4204D0A100725890470134F8E700F060F90849094A0E1C541AA5100024AC4204D0D6
:4011C000A300F05880470134F8E770BD7C1400007C1400007C1400008414000000B58218031C934202D019700133FAE700BD00000000000049300F4023310F404D320F400B
:401200003A330F4012400F4013410F4004420F400D430F4002600F4001020301051007CF09080B040D100F201501170219041B081D401F8021EF231025DF272029802B405E
:4012400031303303350C37C03BAA590C5C905F0181088540878089208B108D108F2091049501970299089DFFA1F7A308A50CA7F3A902AB01AD80AF40B130B3C0B503B70C53
:40128000BBAAC032C101C6B0C808C9FFCAFFCBFFCF40D030D90CDA0CDB04DC90DD09DF01E0F0E240E302E410E512225423402440250427062A202BA02E202FA132543680C5
:4012C000372638043A103B423C403D0A3F2045A04708561057106DC06F0879407D80830487088D048E40CAF7CCFECEFFD070DE18004501480708084D0AB20C450F021040AE
:4013000011081280140115F116021704180419A81A411CBA1E4520222140239C245525F0268A2703284530C031C032033330343C350F3608370F38203A0A3B0A40324101C6
:40134000450D46BF480D49FF4AFF4BFF4F405030580C590C5A0C5B045C995D095F0160F06240630264106512C032C101C7B0C820C9FFCAFFCBFFCF40D030DA0CDD09DF0123
:40138000E0F0E240E302E410E512051007420D800E600F08168017281DB01E601FA0240425012680276C2FA0372A3D023F8841A0430445A047084F08530156A057406C2A35
:4013C00079407D80800A861088208E409140940497029B029E209F28A140A5A1A680A7A0AA10B204B340B440C0D0C2F0C470CAC0CCE0CED0D07EDE18E660EAC0EC040A40DA
:401400002E085820620467206E407208741082048710C210CA80D480D8C0DA80DC60E280E6405380541057205A405E106681825087208A808E01A380A410B380B420D4E0E1
:40144000D6A0D880E2A0E6108D018E01E008E402528058805E02650198809901A281AA80B080D405D601D801E804020111010000F8B5C046F8BC08BC9E4670471503000034
:40148000E50D0000F8B5C046F8BC08BC9E467047ED020000A8140000C8000020180000004004000000000000000000000000C05D80BB000030000000006CDC0200000000B3
:4014C00000000000000000000000000000000000000000000000000000000000000000000000000000000000000000000000000000000000000000000000000000000000EC
:4015000000000000000000000000000000000000000000000000000000000000000000000000000000000000000000000000000000000000000000000000000000000000AB
:40154000000000000000000000000000000000000000000000000000000000000000000000000000000000000000000000000000000000000000000000000000000000006B
:40158000000000000000000000000000000000000000000000000000000000000000000000000000000000000000000000000000000000000000000000000000000000002B
:0200000490303A
:02000000090DE8
:0200000490402A
:200000000000000000000000000000000000000000000000000000000000000000000000E0
:0200000490501A
:0C000000000204C81193110104CF1AA0E3
:0200000490600A
:0100000001FE
:00000001FF