:400000000010002011000000950C0000950C000008B500F041FEC046F0B557464E464546E0B472B6764B012280241A700021E2007448802501F046F80021EA00724801F0D3
:4000400041F8724E24208119FF228846002791468A4602CE4C46CBB2A143002B2AD0013BDDB2281C7A0001305244AC4645001078AB1E9C0743185078E40F18700223AB42D9
:4000800016D0002C06D09478D078631818700423AB420DD0D45C6018D418647802330470D05CD4186478401802330470AB42F1D1013767444645CCD15549564D564A574BC5
:4000C0002960574E574F584C584D1A60EE20C121574A584B3E602060574F29605748584C584D1A603F26FE21574B3E60FF222060564F29605648574C574D1A60A3260321A7
:40010000564B3E6024222060554E2960554F802055491A608404554D554A3E6099230C60544F5548554C15601E045549554D3E60554A2060554B564F564C0E600E202E601D
:40014000554D0D261A603E602060297802220A432A702B7806261E43504F2E7038688024E50205434E4B3D604E494F4A5E7A0D7811782F2E10D99F799D7AD97A2F2F0BD930
:40018000D878DD79197A2F2806D91C781D7959792F2C01D95D789978444A454B454E1560196037784448454D0760052000F05CFE3524434A434B2C60102120268227424CC9
:4001C000116038061E60802540498026334B20602A06F7023E483F4C0A603F4D1F603F493F4F404B2060FF263F480D603E601E600468224302601CBC90469946A246F0BDA6
:400200001C700F4000300F4000400F40DC1000000300003300000140333333000400014033EE30300C00014010000140000004400630D8000800044000010440B66D03006C
:4002400008010440000204401802044000030440B60DC3000803044000040440080404400400990000500F4004500F40000002B008500F4010500F4000006C0718500F40C8
:4002800020500F4030500F40000008C438500F402000004000800F4000700F4000010B40C0F1FF0FCCF1FF0FCDF1FF0F1CFF0B4020FF0B40FDF1FF0F28FF0B402CFF0B40C9
:4002C000080202401C02024008010B4004010B401D000080000002402F0000804000024000031A4040031A4080031A4010B5064C2378002B07D10548002802D0044800E09F
:4003000000BF0121217010BDE000002000000000D810000008B5084B002B03D00748084900E000BF07480168002903D0064A002A00D0904708BDC04600000000D8100000C1
:40034000E4000020C800002000000000F0B55F464D4644465646F0B4764B7749774D082201201A6008702C7887B00134E7B22F701F2F00D1B1E0012F00D1C2E0032F00D1CA
:40038000B8E0072F00D1C9E00F2F00D1BFE06C4A6E781478B10008016A4B411A0C19E75C694C2770697812788800451C2E01771BB946BF18FD5C93462570851C2E01751B8F
:4003C000AE180296A846F55CC61C25703501AD1BAC46E3445E46F55CDF1925708C01201A86189D196C7982465848994404707E7991440670029D5E465C1967799D19077090
:400400006C7998440470081C083086008701BD1BAC180295039418194779741C4C48250107702F1BBC18059404971D196F79B41C250107702F1BBD1801975C19033667797F
:400440003401A61BB41807701F197F799044077050461F18B818877A3E489C4407704F46BF7A944407704746BF7A9E1907706746BF7A077002981F18B818877A3648077048
:40048000049FFF18B84690444746BF7A0770019FFF18BC4694446746BF7AB2180770977A2E4A07700398C65C1670059F0326F85C214F1070ED5C2A4815703E7006780725CF
:4004C0002940AE4331430170E35C137007B03CBC90469946A246AB46F0BD6F78184A01370024FEB214702C70082E1ED06E70B100002450E7124A6878022313708100022403
:4005000049E70F4A697817708900012443E70C4A687804231370810004243CE7084A6E7803271770B100032435E76C700021002431E7C04680E200E071000F40FC0000200C
:40054000EC0400202C01002042000F4043000F4053000F4041000F4051000F4052000F4072000F40354B364A196836481368364A00B5C3801368354A03811368344A43819A
:400580001368344A83811368334AC3811368334A03821368FF224382130281801940994248D0C388FF22934311028B423FD00189FF2291431302994236D04389FF22934359
:4005C00011028B422DD08189FF2291431302994224D0C389FF22934311028B421BD0018AFF2291431302994212D0438AFF22934311028B4209D08169082201314261816193
:400600000A2901D10123037700BD00234382F2E700210182E9E70023C381E0E700218181D7E700234381CEE700210181C5E70023C380BCE700218180B3E7C04680011A4085
:4006400084011A40FC00002088011A408C011A4090011A4094011A4098011A409C011A40F0B55F4656464D464446F0B489B002AD0424EC710C20704C01AE1F232870082044
:400680000021182233707370B37028741C23201C10276B736970A970EA7029716971A97129726972E9722973A973E9736974AF7200F084F900F094FB604A0321117060486A
:4006C00000F07CFB00F094FC00F0A0FC5D4800F0C1FC62B62423252026215B4F9B46824689464EE05B46F95600202A68231C00F09FFA504639566846027BEB7812021A436C
:40070000437B18040243231C012000F091FA6A46107CEB88020449461A4379560220231C00F086FA6846827C6B7A12021A43C37C2721180479560243231C032000F078FA01
:40074000282179560420EA68231C00F071FA68462922B956027EEB7B12021A43437E18040243231C052000F063FA062002213268231C00F05DFA072003213268231C00F0A2
:4007800057FA3A7F012AADD1201C00F017F9BB885846D909395400223A77BA61FA885046D3093B543A894846D3093B547A892720D3093B54BB8980462822D809B854FB8953
:4007C0002920DA093A543B8A2A20DA093A547B8A2B20DA093A5449B200202A68231C00F027FA6846027BEB7812021A43437B51461804024379560120231C00F019FA6A466A
:40080000107CEB88020449461A4379560220231C00F00EFA6846827C6B7A12021A43C37C4146180479560243231C032000F000FA2821795686E7C0462C01002071000F40C3
:400840004D03000065050000FC00002010B58B00C4081919CBB21C01E11A07231840012484405218E143CCB213785079917A23402040214013705071537890799172D17A5F
:40088000234020402140537090719378D079D172117B2340204021409370D071D378107A1173517B234020402140D37010721379507A5173917B234020400C40137150723C
:4008C000947310BDF0B5CFB283B0041C0192391C1A1CC0B21E1CFFF7B9FFE117490F0C19B800E310C21857B207223801144001ADC31B611AF3184AB22E7801216C78A878A0
:400900000D1C1F78354095403D431D700D1C5F79254095403D435D710D1C9F7A054095403D439D7275105F780D4095403D435D7065109F790D4095403D439D714510DF7A76
:400940000D4095403D43DD72B5109F780D4095403D439D70A510DF790D4095403D43DD7185101F7B0D4095403D431D73F510DF780D4095403D43DD70E5101F7A0D409540A2
:400980003D431D72C5105F7B0D4000113611241195400E400C4001403D4391405F7A5D7396401D7994400A1C997B2E433C430A431E715C729A7303B0F0BDC04600B5402158
:4009C00000230239C9B203704371837243708371C3728370C3710373C37003724373037143728373C3730375437603744375837643748375C3768374C3750377C37403763C
:400A000043771E300029DCD100BDC046F0B54D4644465F465646F0B483B0041C0D1C0D985E1B8046F01736184640171CB1463E1BF0173618211C4640B14500DCB9E0012408
:400A4000A1461F1C2C1C131C0D1CBC4200DDA9E0081C111C021C3E1B8A1AF0B2D1175218834640B24A40C10F0E187010FF21C6B200919D4201DA01230093BC4200DD8AE056
:400A8000381B0121D2B201404B4692460191002B00D093E0201C291C0C9A4346FFF712FF5246B61AF0B2C6B271B2002900DA93E0013464B2A7426EDB019A002A15D048460C
:400AC000002800D08EE0291C0C9A4346201CFFF7F9FE5146761AF3B2DEB272B2002A00DA8EE0013464B2A74255DB391C4F46894621E0211C0C9A4346281CFFF7E3FE5346C3
:400B0000F61AF1B2CEB272B2002A23DB013464B2002F29D0281C211C0C9A4346FFF7D2FE5146721AD3B2DEB270B2002829DB013464B2A1452FDB002FDBD1291C0C9A43463D
:400B4000201CFFF7BFFE5346F61AF1B2CEB272B2002ADBDA00985B462D18CE1801346DB2F6B264B2002FD5D1201C291C0C9A4346FFF7A8FE5146721AD3B2DEB270B200289E
:400B8000D5DA009E59460134AD195A1864B26DB2D6B2A145CFDA03B03CBC90469946A246AB46F0BD2E1C201C1D1C3C1C331C071C51E7002189461A1C291C46E7281C211CD0
:400BC0000C9A4346FFF77EFE5246B61AF0B2C6B271B2002900DB6BE7009B5844ED186DB2C6B265E7211C0C9A4346281CFFF76AFE5146761AF3B2DEB272B2002A00DB70E750
:400C000000985B442D186DB2DEB26AE770B584B0041C1D1C68461E0C058086705318089A5BB20192201C221CFFF7F0FE04B070BD70B5860084B01D1C73B20C1C0392002B22
:400C400024DB1C2B00DD1C2670B2221CF6B2039B00950021FFF7DAFF701C221C039B40B200950021FFF7D2FFB11C48B2221C039B009500210336FFF7C9FF70B200950021E5
:400C8000221C039BFFF7C2FF04B070BD00260023D7E7C04600B5FEE7F8B52A4B4F464646581EC0B48446002B47D0274F0024BA683E6879689146002A22D0131C043B5807DD
:400CC000331C04CBC50F90460A1C414602C2111C981B814514D0002D06D07568043320C2111C981B81450BD0181C20C8111C20C15B685360031D0A1D111C981B8145F3D166
:400D0000FE68002E14D0321F0B1C550710C3E80F5A1A96420CD0002803D010C35D1AAE4206D0181C10C05C60031D5A1A9642F8D161461037481E8446B9D200F09DF9FFF750
:400D40008FFCFEE7010000007C13000010B50F4A0F48104C0023011C032B01D899000959013302C2011C032B01D899000959013302C2302BEFD1FFF74FF98024064B0022E1
:400D80000120E1051A60086010BDC04600000020950C000000000000C000002010B5041C00F02FF8044BA1071A689400A2081143196000F02AF810BD00E400E010B5054B9E
:400DC000054908241C60C8640020FFF7E7FF0348046010BD80E100E00000002000E100E008B5002000F011F808BDC046000000000230800804D0C0460138FDD1C046C046EF
:400E00007047EFF3108072B6704780F31088704700B51F2800D901BE024A800083181868196000BD4000002038B5041C0D1E032D00D901BE1F2C00D901BEFFF7E2FFA30872
:400E4000084A99008B1803221440E40019680634A2409143A5400A1C2A431A60FFF7D5FF38BDC04600E400E008B5034B197A4843FFF7BEFF08BDC046CC00002038B50E20ED
:400E80000321FFF7D1FF2E490E20FFF7C1FF2D4BFF222D482D492E4C2E4D1A602E4A2F4B08602C602E482F4C2F49304D1A6000232F4A03600C602C601068802461020843F3
:400EC0002C4D10602A682C4811432C4C29602C4A2C4D03600121236002202B4C2960106025682A4A294321608021C800106028492848294A294D2A4C038011602560294D2F
:400F0000294C438051602560284D294C838091602560284D284CC380D1602560274D284C038111612560274D274C438151612560264D274C838191612560C381D16138BDED
:400F40002110000020001A407020001300001A40F400008004001A400000FF0F18001A401C001A400400040010001A4014001A4000031A4040031A4028021A4038021A400F
:400F8000000F1A4018021A4030001A4080001A403E18000010050020F00400200104000084001A400204000088001A40030400008C001A400404000090001A40050400009E
:400FC00094001A400604000098001A40070400009C001A4008B5054B802219681006084318600A20FFF740FF08BDC04600001A4010B5054C2378002B03D1FFF73FFF012074
:401000002070FFF7E7FF10BD28010020034B802219685002084318607047C04604001A40014B1A681A60704710021A4038B5041CFFF7E7FE054B06491D68A2052C1C0C40DB
:4010400014431C60FFF7E1FE38BDC04600E400E0FFFF3FFF10B5054B054904241C6088640320FFF7E3FF0348046010BD80E100E00000002000E100E070B50E4B0E4D002444
:40108000E81A85101E1CAC4204D0A100725890470134F8E700F060F90849094A0E1C541AA5100024AC4204D0A300F05880470134F8E770BD641300006413000064130000CF
:4010C0006C13000000B58218031C934202D019700133FAE700BD00000000000049300F4023310F404D320F403A330F4012400F4013410F4004420F400D430F4002600F40E3
:4011000001020301051007CF09080B040D100F201501170219041B081D401F8021EF231025DF272029802B4031303303350C37C03BAA590C5C905F018108854087808920E1
:401140008B108D108F2091049501970299089DFFA1F7A308A50CA7F3A902AB01AD80AF40B130B3C0B503B70CBBAAC032C101C6B0C808C9FFCAFFCBFFCF40D030D90CDA0C23
:40118000DB04DC90DD09DF01E0F0E240E302E410E512225423402440250427062A202BA02E202FA132543680372638043A103B423C403D0A3F2045A04708561057106DC0AA
:4011C0006F0879407D80830487088D048E40CAF7CCFECEFFD070DE18004501480708084D0AB20C450F02104011081280140115F116021704180419A81A411CBA1E452022B3
:401200002140239C245525F0268A2703284530C031C032033330343C350F3608370F38203A0A3B0A40324101450D46BF480D49FF4AFF4BFF4F405030580C590C5A0C5B044F
:401240005C995D095F0160F06240630264106512C032C101C7B0C820C9FFCAFFCBFFCF40D030DA0CDD09DF01E0F0E240E302E410E512051007420D800E600F081680172841
:401280001DB01E601FA0240425012680276C2FA0372A3D023F8841A0430445A047084F08530156A057406C2A79407D80800A861088208E409140940497029B029E209F28CD
:4012C000A140A5A1A680A7A0AA10B204B340B440C0D0C2F0C470CAC0CCE0CED0D07EDE18E660EAC0EC040A402E085820620467206E407208741082048710C210CA80D48077
:40130000D8C0DA80DC60E280E6405380541057205A405E106681825087208A808E01A380A410B380B420D4E0D6A0D880E2A0E6108D018E01E008E402528058805E02650115
:4013400098809901A281AA80B080D405D601D801E804020111010000F8B5C046F8BC08BC9E467047150300004D0D0000F8B5C046F8BC08BC9E467047ED0200009013000024
:40138000C8000020180000004004000000000000000000000000C05D80BB000030000000006CDC020000000000000000000000000000000000000000000000000000000017
:4013C00000000000000000000000000000000000000000000000000000000000000000000000000000000000000000000000000000000000000000000000000000000000ED
:4014000000000000000000000000000000000000000000000000000000000000000000000000000000000000000000000000000000000000000000000000000000000000AC
:40144000000000000000000000000000000000000000000000000000000000000000000000000000000000000000000000000000000000000000000000000000000000006C
:40148000000000000000000000000000000000000000000000000000000000000000000000000000000000000000000000000000000000000000000000000000000000002C
:0200000490303A
:02000000851861
:0200000490402A
:200000000000000000000000000000000000000000000000000000000000000000000000E0
:0200000490501A
:0C000000000204C81193110104CE96AB5D
:0200000490600A
:0100000001FE
:00000001FF