:400000000010002011000000A9190000A919000008B501F0CBFCC046F0B557464E464546E0B472B6844B012280241A700021A2008248C02503F0A1FC802600216A00804848
:4000400003F09BFCF20000217E4803F096FC7E4980227E4803F088FC7D4E20208119FF228846002791468A4602CE4C46CBB2A143002B2AD0013BDDB2281C7A000130524458
:40008000AC4645001078AB1E9C0743185078E40F18700223AB4216D0002C06D09478D078631818700423AB420DD0D45C6018D418647802330470D05CD4186478401802339B
:4000C0000470AB42F1D1013767444645CCD18021604A614B4D000126604F6148614C624915801E70614D624A624B0760EE260C606148624C62491560C1271E60614A624E6E
:40010000624B07603F250C60614862491560FE271E60FF24604A614E614B0760A3250C6060486149156003271E6024245F4D604A8026604B07600C60B703E0205E491560A5
:40014000C4051F6099255D4A5D4F5E4B0C602E045D485E4C16605E491F605E4D5E4A5F4B06600E2726605E480D26296016601F600478022121430170057806262E43594F49
:4001800006703B688022D0021843574E3860574C574D777A21782A782F2F10D9B379B17AF27A2F2B0BD9F078F179327A2F2806D93478317972792F2C01D97178B2784D4D88
:4001C0004D4E4E4F2960326038784D4B4D4D1860052001F011FD4C4F4C493524202210264B4B0C6021202A6082243E60494A8025494F186021062E0680203A4B1160C4021D
:400200003E604649464A474D474F1C604748484C1160484B3D604849484D494F2060FF22484819602A603A600468264306601CBC90469946A246F0BD1C700F4000300F4054
:4002400080320F4000400F40D039000000320F40503A000000600F4002600F400300003300000140333333000400014033EE30300C0001401000014000000440C600D80024
:400280000800044000010440B66D030008010440000204401802044000030440B60DC3000803044000040440080404400400990000500F4004500F4008500F4010500F40AD
:4002C00000008D0718500F4020500F4030500F400000014C38500F402000004000800F4000700F4000010B40C0F1FF0FCCF1FF0FCDF1FF0F1CFF0B4020FF0B40FDF1FF0FA5
:4003000028FF0B40080202401C0202402CFF0B403002024008010B4004010B4002000080000002401D00008040000240700200800400024044000240FF0100C000031A4053
:4003400040031A4080031A4010B5064C2378002B07D10548002802D0044800E000BF0121217010BDE0000020000000008C39000008B5084B002B03D00748084900E000BF8A
:4003800007480168002903D0064A002A00D0904708BDC046000000008C390000E4000020C800002000000000054B00B51A68002A02D00020186000BD01211960FBE7C04691
:4003C000CC000020F0B55F464D4644465646F0B4674B6849684D082201201A6008702C7887B00134E7B22F70012F00D1B9E0032F00D1A5E0614A6E781478B7003801604BF3
:40040000C11B0C19E75C5F4C2770697812788800451C2E01771BB946BF18FD5C93462570851C2E01751BAE180296A846F55CC61C25703501AD1BAC46E3445E46F55CDF190C
:4004400025708C01201A86189D196C7982464E48994404707E7991440670029D5E465C1967799D1907706C7998440470081C083086008701BD1BAC180295039418194779D7
:40048000741C4248250107702F1BBC18059404971D196F79B41C250107702F1BBD1801975C19033667793401A61BB41807701F197F799044077050461F18B818877A344895
:4004C0009C4407704F46BF7A944407704746BF7A9E1907706746BF7A077002981F18B818877A2C480770049FFF18B84690444746BF7A0770019FFF18BC4694446746BF7A6A
:40050000B2180770977A244A07700398C65C1670059F0326F85C174F1070ED5C1F4815703E70067807252940AE4331430170E35C137007B03CBC90469946A246AB46F0BDC2
:4005400068780E4A01300023C1B213702B70082903D069708F00002450E76B70002400274CE7064A6E7817700124B70046E7C04680E200E071000F40FC0000200805002027
:400580004801002041000F4043000F4053000F4042000F4052000F4051000F4072000F40444B454A196845481368454A00B5C3801368444A03811368434A43811368434AEC
:4005C00083811368424AC3811368424A03821368FF22438213028180194099422ED0C388FF22934311028B4230D00189FF2291431302994232D04389FF22934311028B4241
:4006000034D08189FF2291431302994236D0C389FF22934311028B4238D0018AFF229143130299423AD0438AFF22934311028B423CD0082201214261017600BDC3880021DD
:40064000FF228180934311028B42CED101890023FF22C380914313029942CCD143890021FF220181934311028B42CAD181890023FF224381914313029942C8D1C3890021D4
:40068000FF228181934311028B42C6D1018A0023FF22C381914313029942C4D1438A0021FF220182934311028B42C2D100234382BFE7C04680011A4084011A40FC00002019
:4006C00088011A408C011A4090011A4094011A4098011A409C011A40F0B55F4656464D464446F0B48DB001F0A1FB0421002001F005F903AC684601F0E7F8201C01F0F2F883
:400700002226684601F00CF96E4401230022684633702125232727264276827642778277C2770376C37603776D446F4409A86E442A703B700370337008A90AAF26252920C0
:400740002B260B703B706D4468446E440BAF25212B700370694433703B702A252D232E206B440A706D44022168441970297001702F21694476480A70764D814600F0AEF96B
:4007800001F0B8F903222A70734801F0A1F901F0FDFA01F009FB714801F02AFB704801F0EDFD62B66F4F1C200023C1193A1D6E4E8A4693469846012001F0DEF93568002DF7
:4007C0000AD1387E012825D001210120884601F0D3F93568002DF4D0684601F0C5F86B466178587881420FD14246012A0CD06D4608AAEB8B157820782A041A434B4600F0FA
:4008000009FF00218846D6E76070484600F066F96178ECE75046594600F08EFF3D760128D2D1BB881F259A093B89F9882A403A779A09BB892A40880979892840BA779A09D0
:4008400078772A40880920217A542840F877F889212382092A40FA54398A222288092840B8547B8A381C99092940232579552430514600F099FF242039566D46069A4B46F0
:40088000002000F0F7FE287FEB7E25226D7FB95602021A432B041A4308AD4B46012000F0E9FE2B786A46D08B26211A04795602434B460220222500F0DDFE6D4421222B7833
:4008C0006A4410781A02024323206844057827212B0479561A4303204B4600F0CBFE28217956099A4B46042000F0C4FE0AAD29222720B95668442A78037829206844120299
:400900001A43037805201D042A434B4600F0B2FE0BAB1D786A46508D2A212A04795602434B46062000F0A6FE2E236B442D226A441D7810782A0202432F20684403782B21FE
:400940001D0479562A4307204B4600F093FE3BE74801002071000F40C5030000A1050000A9030000FC000020CC00002010B58B00C4081919CBB21C01E11A072318400124EA
:4009800084405218E143CCB213785079917A23402040214013705071537890799172D17A234020402140537090719378D079D172117B2340204021409370D071D378107A36
:4009C0001173517B234020402140D37010721379507A5173917B234020400C4013715072947310BDF0B5CFB283B0041C0192391C1A1CC0B21E1CFFF7B9FFE117490F0C1909
:400A0000B800E310C21857B207223801144001ADC31B611AF3184AB22E7801216C78A8780D1C1F78354095403D431D700D1C5F79254095403D435D710D1C9F7A054095409C
:400A40003D439D7275105F780D4095403D435D7065109F790D4095403D439D714510DF7A0D4095403D43DD72B5109F780D4095403D439D70A510DF790D4095403D43DD71B8
:400A800085101F7B0D4095403D431D73F510DF780D4095403D43DD70E5101F7A0D4095403D431D72C5105F7B0D4000113611241195400E400C4001403D4391405F7A5D7398
:400AC00096401D7994400A1C997B2E433C430A431E715C729A7303B0F0BDC04600B5402100230239C9B203704371837243708371C3728370C3710373C37003724373037119
:400B000043728373C3730375437603744375837643748375C3768374C3750377C374037643771E300029DCD100BDC046F0B54D4644465F465646F0B483B0041C0D1C0D98D1
:400B40005E1B8046F01736184640171CB1463E1BF0173618211C4640B14500DCB9E00124A1461F1C2C1C131C0D1CBC4200DDA9E0081C111C021C3E1B8A1AF0B2D1175218AA
:400B8000834640B24A40C10F0E187010FF21C6B200919D4201DA01230093BC4200DD8AE0381B0121D2B201404B4692460191002B00D093E0201C291C0C9A4346FFF712FF41
:400BC0005246B61AF0B2C6B271B2002900DA93E0013464B2A7426EDB019A002A15D04846002800D08EE0291C0C9A4346201CFFF7F9FE5146761AF3B2DEB272B2002A00DA9E
:400C00008EE0013464B2A74255DB391C4F46894621E0211C0C9A4346281CFFF7E3FE5346F61AF1B2CEB272B2002A23DB013464B2002F29D0281C211C0C9A4346FFF7D2FEA0
:400C40005146721AD3B2DEB270B2002829DB013464B2A1452FDB002FDBD1291C0C9A4346201CFFF7BFFE5346F61AF1B2CEB272B2002ADBDA00985B462D18CE1801346DB2EE
:400C8000F6B264B2002FD5D1201C291C0C9A4346FFF7A8FE5146721AD3B2DEB270B20028D5DA009E59460134AD195A1864B26DB2D6B2A145CFDA03B03CBC90469946A246E6
:400CC000AB46F0BD2E1C201C1D1C3C1C331C071C51E7002189461A1C291C46E7281C211C0C9A4346FFF77EFE5246B61AF0B2C6B271B2002900DB6BE7009B5844ED186DB285
:400D0000C6B265E7211C0C9A4346281CFFF76AFE5146761AF3B2DEB272B2002A00DB70E700985B442D186DB2DEB26AE770B584B0041C1D1C68461E0C058086705318089A77
:400D40005BB20192201C221CFFF7F0FE04B070BD30B585B00C1C1D1C69461B0C8B700D80089D121852B20195211C231CFFF7DEFE05B030BDF0B55F4656464D464446F0B4BB
:400D80000D1C85B01F1C061CEBB294460392F6B2101C1A1C010C0B32F01C8B4641B250B288468146614668460180721D5946093303AC817052B2404649465BB20197FFF71D
:400DC000B5FE22886B461A80A078291C9870424640464B460197FFF7A9FE2388B11C043672B26E463380A47848B2B470291C01972B1CFFF79BFE05B03CBC90469946A2469E
:400E0000AB46F0BDF0B54F464646C0B4CDB2C6B20F1C291C1C1C0A31731D85B058B249B2231C80460392FFF7DDFDB21C281C53B20B30994641B20094181C0222039B0136E7
:400E4000FFF786FF76B2E91D301C039B49B200940322FFF76BFFAA1D51B24846039B009402220135FFF774FF69B24046039B00940422FFF75BFF0094301C391C0422039B3C
:400E8000FFF766FF05B00CBC90469946F0BDC046F0B5474680B4CEB21C1CF31C051C58B284B08046171C0392281C41463B1C00940122FFF73BFF691C4FB20736381C414631
:400EC000039B76B200940122FFF730FF381C311C039B00940122FFF729FF0094281C311C0122039BFFF722FF04B004BC9046F0BDF0B54F464646C0B4CDB2C6B28846771CB6
:400F0000291C85B094461C1C7FB20B3163460392381C49B200940422FFF71AFFE81D41B2039B381C00940322FFF700FFB21C53B2A91D01359946181C6DB2039B49B200949C
:400F40000122FFF705FF381C291C039B00940422FFF7ECFE053648464146039B00940222FFF7F6FE70B2291C039A231CFFF73AFD05B00CBC90469946F0BDC046F0B5C5B282
:400F8000CFB285B094460E1C681DB91D1C1C0392009340B2634649B20522FFF7C7FE05376A1C50B279B2039B009404220235FFF7CFFE68B20094311C0B22039BFFF7B6FE93
:400FC00005B0F0BDF0B54F464646C0B4CDB2C6B28846291C85B01C1C171C731C0B3158B203923B1C49B200940422771D81467FB2FFF7AEFEAB1D59B2381C039B0094042288
:401000000236FFF793FE76B26A1D013551B2301C039B6DB200940222FFF79AFE4846291C039B00940322FFF781FE301C4146039B00940222FFF78CFE381C291C039A231CFD
:40104000FFF7D0FC05B00CBC90469946F0BDC046F0B54F464646C0B4CEB2C5B20F1C311C85B094461C1C0B316B1C58B20392634649B2009403228046FFF76AFE721C53B263
:4010800099464046191C0094039B0422FFF74EFEA81C41B28846063671B24046039B009402220535FFF754FE68B24946039B00940922FFF73BFE00944046391C0222039B54
:4010C000FFF746FE05B00CBC90469946F0BDC046F0B5CFB20D1CC6B2391C701D0A31013685B01C1C76B240B249B20B370392FFF779FC79B2301C039B00940422FFF728FE07
:401100000094301C291C0B22039BFFF70FFE05B0F0BDC046F0B5474680B4C6B2B71C84B094467FB20D1C1C1CEDB203920093381C63460222FFF70CFEA91D381C039B49B268
:4011400000940222FFF704FE281C0B3041B2039B381C00940222FFF7FBFD721C6B1C57B259B205368846381C039B76B2009404220735FFF7DBFD6DB2301C4146039B009481
:401180000422FFF7D3FD381C291C039B00940322FFF7CCFD0094301C291C0322039BFFF7C5FD04B004BC9046F0BDC046F0B5474680B4CEB2C5B20F1C311C84B094461C1CDC
:4011C0000B31AB1C58B20392634649B2009402228046FFF7BDFDB21D51B24046039B00940222FFF7B5FD07366B1D58B271B2039B009403220135FFF799FD68B20094391C17
:401200000A22039BFFF792FD04B004BC9046F0BDF0B5474680B4C6B284B094461C1C0D1C731C071C039258B2009463460222EDB28046FFF78DFD291C0B3101354046039BA9
:401240006DB249B200940222FFF782FD0436381C291C039B00940922FFF768FD70B20094291C0922039BFFF761FD04B004BC9046F0BDC046F0B55F4656464D464446F0B4E0
:40128000061C85B0101C03929346040CF2B2A446CDB21C1C131C914604332A1C02325BB2A8469A4655B26B465A4648461A80023062469A7040B252462B1C0194FFF736FC64
:4012C000494603AF013148B239886A461180BF784346834601339770301C291C5A465BB20194FFF723FC4046073041B2039B584600940222FFF72CFD5046291C039B009403
:401300000922FFF713FD0094301C291C0922039BFFF70CFD05B03CBC90469946A246AB46F0BDC046F0B54F464646C0B48146C0B2061CCDB2013685B094461C1C0F1C76B2BC
:40134000691D63460392804649B2301C00940322FFF7FEFC4846391C039B00940C22FFF7E5FC4246043253B2681C994641B20094181C0422039BFFF7D9FCA91D4846039B77
:4013800049B200940522FFF7D1FC0B35301C391C039B00940322FFF7DBFC69B20094301C0322039BFFF7D4FC05B00CBC90469946F0BDC046F0B5474680B4CDB284B01C1CF5
:4013C000061C8846171CA91C03923B1C49B200940822F6B2FFF7AAFCB01C47B2381C4146039B00940322FFF7B3FC2A1C0B3251B2381C039B009403220136FFF7A9FC76B255
:401400006B1C59B2301C039A231C0A35FFF7EAFA69B2301C039A231CFFF7E4FA04B004BC9046F0BDF0B5474680B4C6B2771C84B094461C1C7FB2634680460D1C0392381C62
:4014400000940322FFF784FC4046291C039B00940C22EDB2FFF76AFC291C0B31381C039B49B20094032204360135FFF771FC70B269B200940A22039BFFF758FC04B004BCC4
:401480009046F0BDF0B5451C85B094466DB21C1C0E1C071C03920093281C63460422FFF757FC381C311C039BF7B200940C22FFF73DFC391C0B31281C039B49B2009404226B
:4014C0000537FFF745FC79B20094281C0422039BFFF73EFC05B0F0BDF0B5461C85B0944676B21C1C071C0D1C03920093301C63460422FFF72DFC381C291C039B00940C2203
:401500000535FFF713FC69B20094301C0422039BFFF71EFC05B0F0BD00B583B001930F2303400F2B07D9081C049B111C019AFFF76FFE03B000BD36489B00C3589F46081C95
:40154000049B111C019AFFF7C7FFF2E7081C049B111C019AFFF70EFCEBE7081C049B111C019AFFF74FFCE4E7081C049B111C019AFFF7BEFCDDE7081C049B111C019AFFF7FB
:40158000FDFCD6E7081C049B111C019AFFF71AFDCFE7081C049B111C019AFFF759FDC8E7081C049B111C019AFFF792FDC1E7081C049B111C019AFFF7ADFDBAE7081C049B5A
:4015C000111C019AFFF7F2FDB3E7081C049B111C019AFFF74FFEACE7081C049B111C019AFFF7A0FEA5E7081C049B111C019AFFF7E1FE9EE7081C049B111C019AFFF712FF21
:4016000097E7081C049B111C019AFFF73BFF90E790390000F0B585B01C1C071C0D1C0392030906D00094012018210222039BFFF773FF0F26301C3840039B009412210222C2
:40164000FFF76AFF039A231C0F200221FFF720FC2809039B009407210222FFF75DFF301C2840009401210222039BFFF755FF05B0F0BDC046F0B546464F46C0B4860087B0F5
:4016800003921C1C002205AB70B20D1C1A705A709A7000284DDB1C2800DD1C2671B2F6B2081C771C2A1C039B884600940021FFF73DFB7BB2181C00212A1C99460094039B3F
:4016C000FFF734FBB21C57B20336381C00212A1C039B009476B2FFF729FB0094301C00212A1C039BFFF722FB0F2D1DD001356DB24046291C0F22059B0094FFF717FB48464A
:40170000291C0F22059B0094FFF710FB381C291C0F22059B0094FFF709FB0094301C291C0F22059BFFF702FB07B00CBC90469946F0BD00260020AEE700B50B880278DB09BB
:40174000DBB29A422BD14A88D3094278DBB29A4225D18A88D3098278DBB29A421FD1CA88D309C278DBB29A4219D10A89D3090279DBB29A4213D14A89D3094279DBB29A4237
:401780000DD18A89D3098279DBB29A4207D1C989C079CA09D1B2081A431E984100BD0120FCE7C0460000000038B5041C08780D1C14280BD801F0FEFE424B414A01F068F8F1
:4017C00001F046F8C3B220700F2B01D90F202070687814280BD801F0EDFE3A4B384A01F057F801F035F8C1B260700F2901D90F226270A87814280BD801F0DCFE314B304A4A
:4018000001F046F801F024F8C3B2A0700F2B01D90F20A070E87814280BD801F0CBFE294B274A01F035F801F013F8C1B2E0700F2901D90F22E270287914280BD801F0BAFE9B
:40184000204B1F4A01F024F801F002F8C3B220710F2B01D90F202071687914280BD801F0A9FE184B164A01F013F800F0F1FFC1B260710F2901D90F226271A87914280BD8F1
:4018800001F098FE0F4B0E4A01F002F800F0E0FFC3B2A0710F2B01D90F20A071E87914280BD801F087FE074B054A00F0F1FF00F0CFFFC5B2E0710F2D01D90F21E17138BDD1
:4018C000000000000000F23F3823022243700021012302708170C370037142718371C371037270470023037043708370C370037143718371C37103727047C04638B5051C30
:401900000C1C5120002100F005FB281C00F0B2FB201C00F0AFFB00F067FBC0B238BDC04638B50378041C1A09910088180F2542002B40E079D3183F21194082014023207A4D
:401940001A401143C2011143C9B20420FFF7D6FF647823099900C818420025405519E9B20320FFF7CBFF38BD10B50021041C512000F0D0FA022000F07DFBFF21512000F0F3
:4019800059FC002000F0BEFBA070002000F0BAFB6070012000F0B6FB0F231840207000F023FBC0B210BDC04600B5FEE7F8B52A4B4F464646581EC0B48446002B47D0274FEC
:4019C0000024BA683E6879689146002A22D0131C043B5807331C04CBC50F90460A1C414602C2111C981B814514D0002D06D07568043320C2111C981B81450BD0181C20C801
:401A0000111C20C15B685360031D0A1D111C981B8145F3D1FE68002E14D0321F0B1C550710C3E80F5A1A96420CD0002803D010C35D1AAE4206D0181C10C05C60031D5A1AD4
:401A40009642F8D161461037481E8446B9D201F065FFFEF741FEFEE701000000F03C000010B50F4A0F48104C0023011C032B01D899000959013302C2011C032B01D89900B9
:401A80000959013302C2302BEFD1FEF7C5FA8024064B00220120E1051A60086010BDC04600000020A919000000000000C000002010B5041C00F02DF8044BA1071A68940061
:401AC000A2081143196000F028F810BD00E400E010B5054B054908241C60C8640020FFF7E7FF0348046010BD80E100E00000002000E100E008B5002000F00FF808BDC0465E
:401B00000230800804D0C0460138FDD1C046C0467047EFF3108072B6704780F31088704700B51F2800D901BE024A800083181868196000BD4000002038B5041C0D1E032DBB
:401B400000D901BE1F2C00D901BEFFF7E2FFA308084A99008B1803221440E40019680634A2409143A5400A1C2A431A60FFF7D5FF38BDC04600E400E0F0B5474680B4802784
:401B8000061C3F02184DB84226D9184A184C83181804C10F341928688846FFF7B1FFBC4213D94246002A06D02868FFF7A9FF114BF418BC4209D92868FFF7A2FF2868FFF731
:401BC0009FFF0C482418BC42F5D8084F084CF119CA0BD3033619F61A68687043FFF790FF04BC9046F0BDC046D0000020FF7FFFFF0080FFFF0000FFFF08B5034B197A4843CB
:401C0000FFF77EFF08BDC046D000002038B50E200321FFF791FF30490E20FFF781FF2F4BFF222F482F49304C304D1A60304A314B08602C603048314C3149324D1A60002322
:401C4000314A03600C602C6010688024610208432E4D10602A682E4811432E4C29602E4A2E4D03600121236002202D4C2960106025682C49C02082042940114321608024A1
:401C80002949E5000D602948294A2A492A4D2B4C0380116025602A4D2A4C438051602560294D2A4C838091602560294D294CC380D1602560284D294C038111612560284D99
:401CC000284C438151612560274D284C838191612560C381D16138BDBD1D000020001A407020001000001A40F400008004001A400000FF0F18001A401C001A400400040089
:401D000010001A4014001A4000031A4040031A4028021A4038021A40000F1A4018021A4030001A40FFFFFFDF80001A402C0500200C0500203E1800000104000084001A40E1
:401D40000204000088001A40030400008C001A400404000090001A400504000094001A400604000098001A40070400009C001A4008B5054B802219681006084318600A2075
:401D8000FFF73AFF08BDC04600001A4010B5054C2378002B03D1FFF739FF01202070FFF7E7FF10BD3C010020034B802219685002084318607047C04604001A40014B1A68CB
:401DC0001A60704710021A4038B5041CFFF7A1FE054B06491D68A2052C1C0C4014431C60FFF79BFE38BDC04600E400E0FFFF3FFF10B5054B054904241C6088640320FFF7DC
:401E0000E3FF0348046010BD80E100E00000002000E100E008B5044B8022196810060843186000F07FFA08BD0000064008B5054B1A78002A03D10120187000F005F8FFF77D
:401E4000E9FF08BD400100201B4B10B51B4A00241B481C601B4B026019680C220A431A6019481A4B1A4918601A4A0C601A4B1B491B48146018600C6000F05CFA194800F0F7
:401E800037FA032000F03AFA174A18481460184B1849194A04601C6018481160184B194A102104601C6018481170184B184904801C600C6010BDC04600000640770800809D
:401EC000600006407000064007030080000306400403064010030640000206400402064007010080A1230000880E0640C80E0640480F064013010000080F0640C80F06400A
:401F0000880F06403C05002040050020440500204C050020F0B5474680B42B4D071C2B780E1C0424102B03D0201C04BC9046F0BD264801210368884608241942F4D17C0010
:401F4000FF2700F0F7F93C40002E2CD124232B701F49204A0C60204E204C022720482260376023681D4A0342FBD0116849071FD41468A10721D41768FA0720D510202870FC
:401F80000124174A154B174F1A60FFF7C2FD396880224E0075083D603B68110619433960FFF7BBFDC0E7252640462E700443CFE700240B48094F3860B6E70224F9E710264B
:401FC0002E7080256C00DCE73C05002064000640400206401703000068000640000F0640070100000000064038B51C4D20232A780424134201D1201C38BD194810240168B8
:402000000B4228D1174A1848184914600368164C0B42FBD02268D10619D420680124C20701D480214C00114A0F4B1A60FFF771FD0F4B19684A005108196019688022120694
:402040000A431A60FFF769FD10232B70D3E7074820600024F8E71824D4E7C0463C0500206400064068000640000F0640110100000000064038B51E4D04242B78990601D4E9
:40208000201C38BD1B491C4C08601C4803681B4A2342FBD01168490709D4106881070AD560242C700224144D144B1D60E8E7602028700024F7E71468E20715D410222A704C
:4020C00080256C000C490D480D4D0160FFF721FD2A685300590829602B688022110619432960FFF71AFDCBE710232B700124E9E73C0500204002064007010000000F06408E
:4021000000000640F8B51B4E071C33789A0602D401204042F8BD18490422184D184C02E02868204202D10B681A42F9D0124A042511680D4207D0134C20681560002F16D182
:40214000114A1560E6E7114F0C4E114C3760FFF7E0FC236880275A005108216025683E062E432660FFF7D9FC01204042D2E760233370CFE73C050020C00F0640000F064046
:402180000101000040030640680006401703000000000640234B70B5196800208A0612D400F0D0F8204880230268190654006508056006681D4A314301600120106001200E
:4021C00000F0C0F870BD1A4C00F0BCF825680F26B5432560144D2B68590048082860002000F0B0F80A20FFF707FD012000F0AAF80A20FFF701FD002000F0A4F80A20FFF723
:40220000FBFC2A68802319061143296025680748B5430E263543256001240460002000F091F8CFE76400064000000640680006401000014038B5274C042523789A0601D411
:40224000281C38BD4000FF250540002934D02521012221701543204820490860FFF79AFF1F48012203681A42FCD11E491E480D601A4D2B68194A0342FBD0116849071ED4B5
:402280001568A90720D41068C2071FD4102222708024650014491148144C0160FFF739FC226853005908216023688022110619432160FFF732FCC3E724232370CBE70025FB
:4022C0000948064C2060BBE70225F9E7102323700125DFE73C05002017030000000F064068000640400206400701000000000640014B98667047C0460000002038B5041CD8
:40230000FFF707FC054B06491D68A2052C1C0C4014431C60FFF701FC38BDC04608E400E0FFFF3FFF8022024BD00018607047C04600E100E08022024BD00018607047C046D3
:4023400080E100E0044BFE211A680A4001210840104318607047C0460004044010B5041CFFF7D7FB044BA2011968C024A14311431960FFF7D2FB10BD00E400E010B5054B8A
:40238000054901241C6008640020FFF7E7FF0348046010BD80E100E00000002000E100E0F0B5D04B574618684E464546E0B4002800D08047CC490A68D00702D5CB4D002468
:4023C0002C60CB4C00222678B10619D5C94F3B68DD0500D5CDE03868C10711D5C64D90202B888100194329802278012632402F8851424A4101323A432A800025257001222D
:402400002378980616D5BB4E1023306803423ED0BA4FB94D3B60227801261640288872425641013606432E8023701CBC90469946A246F0BD277810263740F6D1B049B14AAB
:40244000B148AE4D08602A60FFF763FBAF4B19684A0055081D601968802215060D431D60FFF75BFBAA48AB490368AB4A194001600568AA4B2A400260A948AA490760AA4DBC
:402480001F60AA4AAA4F0F6015602670CDE727783D070DD535680221294200D1EFE0974A954D116029888826B000084328800122277804233B4200D185E0257801212942F6
:4024C00000D1A6E09B4E3068050762D59A4B9B491F689B4B0D681E68B81B0F272F40C61B082E00D9FAE0002E00D0F8E0884A8A49156808262940934D11600122771EBA46B6
:4025000051460127394090481F6888462968BC4689460768E144F9B24F463970196801311960514600294BD04746002F0BD019682F6879180768FFB20F7019680131196045
:40254000B11E00293CD01E682F680239BE190768FFB237701E682F6801361E601E68BE190768FFB237701E6801361E600029EAD126E0614DC022298896000E432E803F68C9
:40258000FF0700D430E72B8890208100194329802AE731680B4213D0694F6A4D3E6828688119694E3568644EE8B208703968013139603F683568AF4200D3E8E063480360C6
:4025C0005B4D5A4B1D60002A00D12EE75048524A0168534E514D00270A405D4B026037602F60187887070CD52678012535406B425D41414B09351888602105431D802170A0
:4026000013E7544C10272168880665D44F4A17600BE7384E0227306807423BD14E4B1D68E80600D4AAE04D4E0F2337681F40082F00D1B2E04A4B4B481D6801688D4215D240
:40264000494F3D68494FAC460F2504E019688846016888450AD21968614409783960196801311960316829400829EFD11D680068854200D18DE02C4F2A490F60A3E7267844
:40268000F70702D52523237012E7244F242020703B600DE7194A324B304817601D68066807680F223240F80BAD1A0140691A19601E682F4B104F1E603D88842290002D4E6D
:4026C00028433880316880235F020F4337603568294A2A40326079E7182797E70826194D0CE7C046440100208C0E0640880E06403C0500200C0F064040050020000F0640DE
:40270000400F064017030000FF0F00000000064060000640FFDFFFFFFFFEFFFF880F0640C80F0640800F0640F3070000C00F0640ED0F0000CC0F0640600500200803064048
:402740004405002048050020400306406800064058050020640006408C0F0640080206405C0500205405002050050020400206404C05002004020640FFFFFEFF19684D0671
:4027800000D420E7064A0748166806601EE7012216E7054B40261E606DE7014B034865E75C0500204C050020880F064054050020002934D00123002210B488422CD30124BE
:4027C0002407A14204D2814202D209011B01F8E7E400A14204D2814202D249005B00F8E7884201D3401A1A434C08A04202D3001B5C0822438C08A04202D3001B9C082243EF
:40280000CC08A04202D3001BDC082243002803D01B0901D00909E3E7101C10BC7047002801D00020C04307B4024802A14018029003BDC046190000000029F0D003B5FFF70A
:40284000B9FF0EBC4243891A1847C0467047C04638B50E4B0C4A041C0D1C00F019FF002804D1201C291C00F071FE38BD074B064A201C291C00F0E8FA00F068FE80231906C0
:402880004018F2E7C046C046000000000000E041F0B54D4644465F465646F0B41D1C4B00141C0E035B0DCA0F87B0071C360B98469146002B1DD1321C024300D181E1002EB0
:4028C00000D104E2301C00F0EDFE272800DDF8E12821031C083B0A1A391C9E40D1400E439F40C14B0021181A002280468A4600920FE0BE48834231D080214B031E43BC48FA
:402900007A0FF600002100231643FF0080448A460093291C201C251C4A000C03CB0F240B520D9B4625D1211C014300D150E1002C00D1C2E1201C00F0B5FE272800DDB6E136
:40294000031C2822083B291C121A9C40D1400C439D40A54B1A1A0020029019E0321C3A4300D029E108270223BA46002600270093CFE79E48824200D113E180214B031C4306
:402980009B49680FE40000230443ED005218029348465B46434002985146019301430F2900D8DFE043469A1A0492A64200D86EE171087B08F6073343FA0789469846029265
:4029C000280E240204432D022704390CAB46250C00914846291CFFF7EBFE009F061C4743291C4846FFF728FF434608041A0C1043874207D90019013E844203D8874201D9A2
:402A0000013E0019C11B8A46081C291CFFF7D0FE009B071C4343291C50469946FFF70CFF424610040B04010C0B43994504D91B19013F9C4200D864E136043E435F464A4646
:402A4000390C89469B1A59463204170C0A0449467943120C03928C460399300C7A4341434F4678438C44170C6744B94202D9802149024018390C120440183F04110C7F18EC
:402A8000834200D227E100D141E102991B1ACF1BB942804141425A1A9046A24200D15FE1101C291CFFF784FE009B02904343291C40469A46FFF7C0FE380C090401438A45ED
:402AC0000AD9029A0919013A02928C4204D88A4502D9013A029209195346C81A291C0590FFF766FE009A291C4243804605989246FFF7A2FE3F040D043A0C2A43924509D97D
:402B000001214B4212199844944203D8924501D998441219029D43462F041F435046111A3804030C4D465D430398AC46039D3A0C584355434B465A43AC44030C63449D4221
:402B400002D980256D0252191D0C000452191B04050C5B19914200D2E6E000D13DE1012217435AE0890023488C46604401688F46019B1E4A0026002700200021381C0F0D04
:402B80003C051D4D34431205254015436E00DB077108194307B03CBC90469946A246AB46F0BD211C03202943029000D0F0E60223002400250293EBE60C200321824600918F
:402BC000A7E604270123BA46002600270093A0E60121002400250291DAE601270023074E7F42024AC8E7C0460DFCFFFFFF07000001FCFFFF8C3C0000FFFF0F80FFFF0F0009
:402C00002F1C5A46029D261C0192022DB0D0032D00D101E1012D00D19CE0049B82481A18002A00DC8CE00F243C40042C05D03B1DBB42BF417D4276191F1CF10105D57B4AF8
:402C400004998020C40016400A19794B9A4200DD8EE77507FF08760251052F43360B4A0D019B89E700220026002785E7802001030E4216D00C4214D10C432603360B5B463F
:402C80002F1C6C4A78E74C460194009DBDE7A64243D00498B846013800270490B14602978EE60E4333031E0B624A4B4664E7041C283CA5402C1C00254BE600F0F3FC203051
:402CC0003BE6061C283EB7403E1C002709E600F0E9FC2030F9E5029A013E111C59445945924152421219D3189C4204D298426BD816D01B1ACBE6A342FBD18B45F6D9231AD7
:402D0000C5E6994500D897E6013F1B1994E6029ABA42E0D302990023B9E6AF42B9D947E68F4251D80023B2E60919013F58468C4219D9914200D012E7984200D00FE76CE76B
:402D40003D4C049D631B382B1CDD019B00220026002711E7019B00222B40002600270BE701277F4259E78A4203D800D0F7E69842E2D25D4668005845AD416D422C19013F0F
:402D80000919D6E71F2B34DC049C2C4A381CA518311CAF40D840A9403C1C0143671EBC410F1C2743DE400F233B40042B05D03A1DBA42BF417D427619171C320211D5019B6A
:402DC000012200260027D7E659445945924152421219D318013E1B1A59E6002BA4D10020AAE77007FF08710207430E0B019B0022C2E61349049C301C0A1BD040051C202B47
:402E000008D0104BE1188E4037437B1E9F412F430026C8E70026F7E780221003064331030E0B019B034AA7E6FF030000FFFFFFFEFE070000FF07000002FCFFFF1E04000073
:402E4000E2FBFFFF3E040000F0B557464E464546E0B4071C0D034E00680ACC0F790F08438446111C18035A00FD00400ADF0F4B0F1843CA4BC900760D520D8A469A4200D10C
:402E8000E0E001235F40B946BC4200D1A8E0B71A002F00DC10E1002A12D15246024300D1D4E0013F002F00D060E151466F1ABD42AD4162466B42101A3D1CC31A371C24E064
:402EC000B64A964200D1E3E080210B041843382F00DD23E11F2F00DD66E12021C91B021C53468A40FB401A4353468B40191C4B1E9941031C0A43FB40AA1A67469542AD41AA
:402F0000F81A6B42C31A151C371C1A0200D4C7E05E02710A88464246002A00D1F0E0404600F0C0FB021C083A1F2A00DDF1E02823181A2E1C4146C6409140331C0B439540BF
:402F4000974200DDA9E0D01B411C1F2900DD12E11F273A1A2E1C181CCE409040954030436A1E9541CB400543012100270F262E40042E00D172E02E1DAE42AD41684280220D
:402F80001B180125100418402C40002807D0834FB94200D1B0E0824A0F1C13400131F20849055E073243DB08480D012800DC79E01B0378051E0B470D00200021090D7D058E
:402FC0000B05784F1E43101C37406A0817437E007108E40721431CBC90469946A246F0BDB31A002B00DCA6E0002A3ED06B4A96424ED080210F043843382B00DC18E1534685
:40300000184300270022002800D001225219AA42AD4167446B42FB18151C371C1E023FD55E487E1C864200D17BE15D4901222A400B406808151CD90705430D435B08B91C65
:40304000371C93E7014300D11BE71CE7711C371C0F2663462E40042E00D08CE7802201261004344018402E1C8FE752460243EDD0013B002B09D157467919A9429241554200
:4030800060444319371C0D1CC8E744498E42B3D1802063460101371C68E7BF1A404A1340791C63E7151C1D4300D121E2002F3ED0802631030B437BE7002F00D086E0721C63
:4030C00051054B0D012B00DCF0E05746EA1B95429B416746391A5B42C91A88460B0200D49DE05446651BAA459241C01B5742C31B9846371C4C460EE70F1C002600225BE7AE
:40310000281C00F0CFFA2030021C083A1F2A00DC0DE7283885402B1C002511E75746384300230022002800D1E6E60122E4E61D032E0B002740E7002B00D0D9E0771C7905C5
:403140004A0D012A00DC95E0144B9F4200D1FEE051464919A942AD4162466B428018C2184908D5070D435308B11CFFE60B498E4200D0ACE68CE7061C1F3E1F1CF7403E1C26
:40318000202973D03F22101A83401D436B1E9D413543012100230027E8E6C046FF070000FFFF7FFFFFFF0F803B1C203B011CD9400B1C202F5CD04022D71BB840021C50461D
:4031C0000243511E8A411A43002395E67F42002E40D0CA4CA24200D11FE1802166460B041E43B446382F00DDA9E01F2F00DD3DE12023DE1B291C6446B440F940B5406B1EE8
:403200009D41214363460D43FB4057467D1BC01AAA459B415F42C31B4C46171C75E60D1C154320D100240121002304260027B6E61F2B4ADC2021C91A071C52468F40DA409F
:403240003A4357468F40391C4F1EB941D8400A43071CDBE664462C4369D1511C031C5546171C4C4682E6151C371C54E600238CE70022A4E767462F43002E00D0D4E0002FB8
:4032800000D126E15346034300D1E4E051464F19AF42AD4160446E4283191E0200D44EE197483D1C0340022101275FE661462943002E29D1002976D151460143B2D0031C9F
:4032C00055464C460121002750E61F1C203F011CF9400F1C202B00D1C6E04022D31A9840021C50460243531E9A413A4300278DE65B42002E30D167462F4300D0C8E0511CF2
:40330000031C5546171C31E6002965D15746074300D1C8E0031C802055464C460101774F24E68023371C19010426002337E6013F002F6ED154466146651B401A68E76746CD
:403340003D430023002D00D15FE701255DE7802631010023042622E668498A4200D1C1E08027664639040E43B446382B00DDA2E01F2B00DDD0E02021C91A2E1C67468F4082
:403380008D40DE403E43291C67464D1EA941DF40351C0D433E1C554455459B4130185E428319171C3AE65646064354D05746EA1B63469542B641191A7342CB1A1E0200D477
:4033C000A2E07D1B6446AA45BF41001B7A42831A4C4601210027C9E5564606433FD0624680215707ED08D3080A033D43134208D0C608164205D15546EC0845072543331C6A
:403400004C46680FDB0080260343ED0031013B4FACE53A498A4200D0E4E68026031C55464C463101171CA1E5002F4CD05346034315D062468026ED085107D30837030D43AD
:403440003B42DED0C2083A42DBD15546E9084507131C0D43D5E763460121002786E5802739016346254F81E500223AE73C1C203C6646E640331C202F5FD04024E71B6646B3
:40348000BE40311C0D43691E8D411D430023BCE6013B002B22D155445545BF417B426044C318171CBAE58021042200240901154B5642124F73E563461D430026002D00D189
:4034C00069E7012567E78022031C554611010B4F4CE5031C55460121002747E507498A4200D042E78021031C55460901171C3DE57F057F0D002600225EE5C046FF0700006A
:40350000FFFF7FFFFFFF7F001D1C154300D189E6151C0121002729E51F1C203F6146F940202B10D04026F31A67469F403B1C1D436B1E9D410D4300262DE70021A2E73D1CEA
:403540000121002712E50023F1E7C046134A0B0330B5051C48001C0BC90F430D0020934211DD0F4883420FDC802250030D4A0443D01A1F280BDD0C4DEB1ADC40221C504222
:40358000002900D1101C30BD084C0819FBE7C54007482A1C1D18AC402243F0E7FE0300001D0400003304000013040000FFFFFF7FEDFBFFFFF8B5041E2DD0C50F00D04442E2
:4035C000201C00F06FF816490A1A0A2816DD0B388440570526037A0D360B002700200021381C0F0D3B050F4C33431C401605344361004A08ED07111C2943F8BD0B26011C22
:40360000301A1531231CC4408B40520521031F1C0E0B520DE2E70025002200260027DDE71E040000FFFF0F808446101C62468C46191C634600E0C0461FB500F003F90028D2
:4036400001D40021C8421FBD10B500F049F84042013010BD10B500F0F5F8002801DB002010BD012010BDC04610B500F0EBF8002801DD002010BD012010BDC04610B500F03D
:403680006DF8002801DC002010BD012010BDC04610B500F063F8002801DA002010BD012010BDC0461C2101231B04984201D3000C10391B0A984201D3000A08391B0998422C
:4036C00001D30009043902A2105C40187047C04604030202010101010000000000000000F0B5944647461A03061C580080B4170B420D19480D034C00DB0F2D0B640DC90F0C
:403700009846844208D0144882420DD00120944212D004BC9046F0BD2B1C33430120002BF7D10D488242F1D163463B430120002BEFD101209442ECD1BD42EAD16645E8D143
:40374000414506D0002CE4D1281C3043451EA841DFE70020DDE7C046FF070000F0B557464E464546E0B4041C4E000803C90F8A46171C59001A03050B700D160B4A0D304916
:40378000DB0F9C46884232D02D498A4235D000280FD1291C21434B424B419846002A0BD0002B1AD1E2452CD05546002D18D1012018E0002AF6D19046311C39434B424B41D1
:4037C0004146002906D1002BECD056460120002E08D005E00020002B04D16746002FE6D1012358421CBC90469946A246F0BD2B1C2343C9D002214842F4E7331C3B43C6D0EF
:40380000F8E7904205DC09DA5246002AE8D00120E8E75446002CE3D10120E3E7B542C3D807D00020B542DDD250460028D8D00120D8E7BC42B8D80020BC42F5D3D2E7C0469C
:40384000FF070000F0B544465F4656464D46F0B49446061C1A035800170B420D2E480D034C00DB0F2D0B640DC90F9846844233D02948824236D0002C19D0002A20D1934691
:4038800063463B43584258415B468246002B1DD051460020002904D14246002A14D1012460423CBC90469946A246AB46F0BD2B1C3343584243419B46002AE1D0002BEBD169
:4038C000414515D00029EAD10120EAE70028F7D001200029E5D0E2E72B1C33430220002BDFD1C5E763463B430220002BD9D1C2E79442E7DC05DBBD42E4D806D00020BD427A
:40390000CFD20029CBD00120CBE76645DAD800206645F6D3C5E7C046FF07000070B50E4B0E4D0024E81A85101E1CAC4204D0A100725890470134F8E700F0C8F90849094A6B
:403940000E1C541AA5100024AC4204D0A300F05880470134F8E770BDD83C0000D83C0000D83C0000E03C000010B50023934203D0CC5CC4540133F9E710BD00B58218031CAA
:40398000934202D019700133FAE700BD00000000261500004C1500005A15000068150000761500008415000092150000A0150000AE150000BC150000CA150000D81500009D
:4039C000E6150000F4150000021600003E1500002084000001040208200400002000400400C4203B5F02200133104C2004010802200400000AF70508403B00442C2053101E
:403A00006003100C03300CC00000A2AA00000000420300000000B00008FFFFFF0000004030000000000000000C0C0C0499090001F000400210120000000000000000000033
:403A40000000000000000000000000000000000050300F4030310F4011320F4043330F4012400F4017410F400F430F4002600F4000010102030105040603070809010B0296
:403A800011071204150B170419041B0B300233033404350C36013B285804590C5C905F0180118108870288618908900191319304945E952096A1971098F399109A0C9B20B1
:403AC0009CA1A0F5A202A308A733A808A930AB0CAD08B030B2C0B330B40FB70FB820BA0ABB08C042C103C50BC60DC70FC815C9FFCAFFCBFFCF40D030D80CD90CDA0CDB04A5
:403B0000DC99DD09DF01E0F0E240E302E410E512010202010321041005010A800DA80F801608170119021A021B201C101D211F112004231027212C802F15312833013508DB
:403B4000372138063B103C113E08452847014D085480560857406F0A7B027F0282018708C05CC2F8C450CAF0CCE7CEE7D0E0DE18C042C103C7B0C820C9FFCAFFCBFFCF4034
:403B8000D030DA0CDD09DF01E0F0E240E302E410E512045405030D280E020F80162917021C441D081E021F0424012584262027422D022F153508362037413C113D083F80F7
:403BC00041284301452847015001530156206C206D507B027F028144882089108A208C448F40901093209403970899099A099B01A120A342A588A601AA40AB20B201B310A3
:403C0000B404C0F0C2F0C4F0CAF0CCF0CEF0D0E7DE18E2E0E620EA2003082E0850045C0167206E806F80720880048710C040CA80D420D680D880DA80DC60E6C052805401C9
:403C400056085820650166808101828088018A888C208F80A780A801AB08B240D4E0D6A0D880E220E620EA80EC80501056205F0866088E2890209B08B308B410D406D6018F
:403C8000D801E008E402EC0310011101A4290000702B0000642C0000002C0000642C0000DA2B0000642C0000002C0000702B0000702B0000DA2B0000002C0000862C0000BD
:403CC000862C0000862C00006C2C0000F8B5C046F8BC08BC9E46704771030000611A0000F8B5C046F8BC08BC9E46704749030000003D0000C8000020180000008804000038
:403D000000000000010000000000C05D80BB000030000000006CDC0200000000000000000000000000000000000000000000000000000000000000000000000000000000B0
:403D40000000000000000000000000000000000000000000000000000000000000000000000000000000000000000000000000000000000000000000000000000000000043
:403D80000000000000000000000000000000000000000000000000000000000000000000000000000000000000000000000000000000000000000000000000000000000003
:403DC00000000000000000000000000000000000000000000000000000000000000000000000000000000000000000000000000000000000000000000000000000000000C3
:403E00000000000000000000000000000000000000000000000000000000000000000000000000000000000000000000000000000000000000000000000000000000000082
:0200000490303A
:02000000D288A4
:0200000490402A
:200000000000000000000000000000000000000000000000000000000000000000000000E0
:0200000490501A
:0C000000000204C81193110104DCE41B91
:0200000490600A
:0100000001FE
:00000001FF