:400000000010002011000000650A0000650A000008B500F029FDC046F0B557464E464546E0B472B6764B012280241A700021E2007448802500F004FE0021EA00724800F08E
:40004000FFFD724E24208119FF228846002791468A4602CE4C46CBB2A143002B2AD0013BDDB2281C7A0001305244AC4645001078AB1E9C0743185078E40F18700223AB4216
:4000800016D0002C06D09478D078631818700423AB420DD0D45C6018D418647802330470D05CD4186478401802330470AB42F1D1013767444645CCD15549564D564A574BC5
:4000C0002960574E574F584C584D1A60EE20C121574A584B3E602060574F29605748584C584D1A603F26FE21574B3E60FF222060564F29605648574C574D1A60A3260321A7
:40010000564B3E6024222060554E2960554F802055491A608404554D554A3E6099230C60544F5548554C15601E045549554D3E60554A2060554B564F564C0E600E202E601D
:40014000554D0D261A603E602060297802220A432A702B7806261E43504F2E7038688024E50205434E4B3D604E494F4A5E7A0D7811782F2E10D99F799D7AD97A2F2F0BD930
:40018000D878DD79197A2F2806D91C781D7959792F2C01D95D789978444A454B454E1560196037784448454D0760052000F018FD3524434A434B2C60102120268227424C0E
:4001C000116038061E60802540498026334B20602A06F7023E483F4C0A603F4D1F603F493F4F404B2060FF263F480D603E601E600468224302601CBC90469946A246F0BDA6
:400200001C700F4000300F4000400F40580C00000300003300000140333333000400014033EE30300C00014010000140000004400630D8000800044000010440B66D0300F4
:4002400008010440000204401802044000030440B60DC3000803044000040440080404400400990000500F4004500F40000002B008500F4010500F4000006C0718500F40C8
:4002800020500F4030500F40000008C438500F402000004000800F4000700F4000010B40C0F1FF0FCCF1FF0FCDF1FF0F1CFF0B4020FF0B40FDF1FF0F28FF0B402CFF0B40C9
:4002C000080202401C02024008010B4004010B401D000080000002402F0000804000024000031A4040031A4080031A4010B5064C2378002B07D10548002802D0044800E09F
:4003000000BF0121217010BDE800002000000000540C000008B5084B002B03D00748084900E000BF07480168002903D0064A002A00D0904708BDC04600000000540C0000C9
:40034000EC000020C800002000000000F0B55F464D4644465646F0B4764B7749774D082201201A6008702C7887B00134E7B22F701F2F00D1B1E0012F00D1C2E0032F00D1C2
:40038000B8E0072F00D1C9E00F2F00D1BFE06C4A6E781478B10008016A4B411A0C19E75C694C2770697812788800451C2E01771BB946BF18FD5C93462570851C2E01751B8F
:4003C000AE180296A846F55CC61C25703501AD1BAC46E3445E46F55CDF1925708C01201A86189D196C7982465848994404707E7991440670029D5E465C1967799D19077090
:400400006C7998440470081C083086008701BD1BAC180295039418194779741C4C48250107702F1BBC18059404971D196F79B41C250107702F1BBD1801975C19033667797F
:400440003401A61BB41807701F197F799044077050461F18B818877A3E489C4407704F46BF7A944407704746BF7A9E1907706746BF7A077002981F18B818877A3648077048
:40048000049FFF18B84690444746BF7A0770019FFF18BC4694446746BF7AB2180770977A2E4A07700398C65C1670059F0326F85C214F1070ED5C2A4815703E7006780725CF
:4004C0002940AE4331430170E35C137007B03CBC90469946A246AB46F0BD6F78184A01370024FEB214702C70082E1ED06E70B100002450E7124A6878022313708100022403
:4005000049E70F4A697817708900012443E70C4A687804231370810004243CE7084A6E7803271770B100032435E76C700021002431E7C04680E200E071000F400401002003
:40054000F40400203401002042000F4043000F4053000F4041000F4051000F4052000F4072000F40F0B54F464646C0B487B069461C2600204E730C23244E0B704870142369
:400580008870182208714871887108724872C87208738873C87348748874C874487588750424102508271F200B75CA70CC718D720F74C875301C00F0E9F800F0F9FA144A32
:4005C00003211170134800F0E1FA62B6124D0727B8460024A946002762004B46195715196B4600AA5B5D55196A7860B212021A43AB781D042A43331C00F002FA601CC40FA1
:40060000414681427C4164420440E5E73401002071000F404D030000CC00002010B58B00C4081919CBB21C01E11A07231840012484405218E143CCB213785079917A234090
:400640002040214013705071537890799172D17A234020402140537090719378D079D172117B2340204021409370D071D378107A1173517B234020402140D3701072137946
:40068000507A5173917B234020400C4013715072947310BDF0B5CFB283B0041C0192391C1A1CC0B21E1CFFF7B9FFE117490F0C19B800E310C21857B207223801144001AD1F
:4006C000C31B611AF3184AB22E7801216C78A8780D1C1F78354095403D431D700D1C5F79254095403D435D710D1C9F7A054095403D439D7275105F780D4095403D435D7078
:4007000065109F790D4095403D439D714510DF7A0D4095403D43DD72B5109F780D4095403D439D70A510DF790D4095403D43DD7185101F7B0D4095403D431D73F510DF7898
:400740000D4095403D43DD70E5101F7A0D4095403D431D72C5105F7B0D4000113611241195400E400C4001403D4391405F7A5D7396401D7994400A1C997B2E433C430A43E1
:400780001E715C729A7303B0F0BDC04600B5402100230239C9B203704371837243708371C3728370C3710373C37003724373037143728373C37303754376037443758376D9
:4007C00043748375C3768374C3750377C374037643771E300029DCD100BDC046F0B54D4644465F465646F0B483B0041C0D1C0D985E1B8046F01736184640171CB1463E1BB2
:40080000F0173618211C4640B14500DCB9E00124A1461F1C2C1C131C0D1CBC4200DDA9E0081C111C021C3E1B8A1AF0B2D1175218834640B24A40C10F0E187010FF21C6B237
:4008400000919D4201DA01230093BC4200DD8AE0381B0121D2B201404B4692460191002B00D093E0201C291C0C9A4346FFF712FF5246B61AF0B2C6B271B2002900DA93E0BC
:40088000013464B2A7426EDB019A002A15D04846002800D08EE0291C0C9A4346201CFFF7F9FE5146761AF3B2DEB272B2002A00DA8EE0013464B2A74255DB391C4F46894671
:4008C00021E0211C0C9A4346281CFFF7E3FE5346F61AF1B2CEB272B2002A23DB013464B2002F29D0281C211C0C9A4346FFF7D2FE5146721AD3B2DEB270B2002829DB0134B4
:4009000064B2A1452FDB002FDBD1291C0C9A4346201CFFF7BFFE5346F61AF1B2CEB272B2002ADBDA00985B462D18CE1801346DB2F6B264B2002FD5D1201C291C0C9A4346A9
:40094000FFF7A8FE5146721AD3B2DEB270B20028D5DA009E59460134AD195A1864B26DB2D6B2A145CFDA03B03CBC90469946A246AB46F0BD2E1C201C1D1C3C1C331C071C45
:4009800051E7002189461A1C291C46E7281C211C0C9A4346FFF77EFE5246B61AF0B2C6B271B2002900DB6BE7009B5844ED186DB2C6B265E7211C0C9A4346281CFFF76AFE1D
:4009C0005146761AF3B2DEB272B2002A00DB70E700985B442D186DB2DEB26AE770B584B0041C1D1C68461E0C058086705318089A5BB20192201C221CFFF7F0FE04B070BDAE
:400A000070B5860084B01D1C73B20C1C0392002B24DB1C2B00DD1C2670B2221CF6B2039B00950021FFF7DAFF701C221C039B40B200950021FFF7D2FFB11C48B2221C039B87
:400A4000009500210336FFF7C9FF70B200950021221C039BFFF7C2FF04B070BD00260023D7E7C04600B5FEE7F8B52A4B4F464646581EC0B48446002B47D0274F0024BA68E1
:400A80003E6879689146002A22D0131C043B5807331C04CBC50F90460A1C414602C2111C981B814514D0002D06D07568043320C2111C981B81450BD0181C20C8111C20C188
:400AC0005B685360031D0A1D111C981B8145F3D1FE68002E14D0321F0B1C550710C3E80F5A1A96420CD0002803D010C35D1AAE4206D0181C10C05C60031D5A1A9642F8D191
:400B000061461037481E8446B9D200F073F8FFF729FDFEE701000000F80E000010B50F4A0F48104C0023011C032B01D899000959013302C2011C032B01D89900095901334B
:400B400002C2302BEFD1FFF767FA8024064B00220120E1051A60086010BDC04600000020650A000000000000C000002010B5041C00F02FF8044BA1071A689400A2081143F6
:400B8000196000F02AF810BD00E400E010B5054B054908241C60C8640020FFF7E7FF0348046010BD80E100E00000002000E100E008B5002000F011F808BDC04600000000A7
:400BC0000230800804D0C0460138FDD1C046C0467047EFF3108072B6704780F31088704708B5034B197A4843FFF7EAFF08BDC046D400002070B50E4B0E4D0024E81A851029
:400C00001E1CAC4204D0A100725890470134F8E700F060F90849094A0E1C541AA5100024AC4204D0A300F05880470134F8E770BDE00E0000E00E0000E00E0000E80E00008F
:400C400000B58218031C934202D019700133FAE700BD00000000000049300F4023310F404D320F403A330F4012400F4013410F4004420F400D430F4002600F4001020301DF
:400C8000051007CF09080B040D100F201501170219041B081D401F8021EF231025DF272029802B4031303303350C37C03BAA590C5C905F0181088540878089208B108D1035
:400CC0008F2091049501970299089DFFA1F7A308A50CA7F3A902AB01AD80AF40B130B3C0B503B70CBBAAC032C101C6B0C808C9FFCAFFCBFFCF40D030D90CDA0CDB04DC9095
:400D0000DD09DF01E0F0E240E302E410E512225423402440250427062A202BA02E202FA132543680372638043A103B423C403D0A3F2045A04708561057106DC06F08794049
:400D40007D80830487088D048E40CAF7CCFECEFFD070DE18004501480708084D0AB20C450F02104011081280140115F116021704180419A81A411CBA1E4520222140239C47
:400D8000245525F0268A2703284530C031C032033330343C350F3608370F38203A0A3B0A40324101450D46BF480D49FF4AFF4BFF4F405030580C590C5A0C5B045C995D0999
:400DC0005F0160F06240630264106512C032C101C7B0C820C9FFCAFFCBFFCF40D030DA0CDD09DF01E0F0E240E302E410E512051007420D800E600F08168017281DB01E60D6
:400E00001FA0240425012680276C2FA0372A3D023F8841A0430445A047084F08530156A057406C2A79407D80800A861088208E409140940497029B029E209F28A140A5A175
:400E4000A680A7A0AA10B204B340B440C0D0C2F0C470CAC0CCE0CED0D07EDE18E660EAC0EC040A402E085820620467206E407208741082048710C210CA80D480D8C0DA8030
:400E8000DC60E280E6405380541057205A405E106681825087208A808E01A380A410B380B420D4E0D6A0D880E2A0E6108D018E01E008E402528058805E02650198809901DA
:400EC000A281AA80B080D405D601D801E804020111010000F8B5C046F8BC08BC9E467047150300001D0B0000F8B5C046F8BC08BC9E467047ED020000080F0000C800002031
:400F000020000000100400000000000000020406080A0C0E0000C05D80BB000030000000006CDC020000000000000000000000000000000000000000000000000000000073
:400F40000000000000000000000000000000000000000000000000000000000000000000000000000000000000000000000000000000000000000000000000000000000071
:400F80000000000000000000000000000000000000000000000000000000000000000000000000000000000000000000000000000000000000000000000000000000000031
:400FC00000000000000000000000000000000000000000000000000000000000000000000000000000000000000000000000000000000000000000000000000000000000F1
:4010000000000000000000000000000000000000000000000000000000000000000000000000000000000000000000000000000000000000000000000000000000000000B0
:0200000490303A
:0200000019A83D
:0200000490402A
:200000000000000000000000000000000000000000000000000000000000000000000000E0
:0200000490501A
:0C000000000204C81193110104CD2B3B39
:0200000490600A
:0100000001FE
:00000001FF