:400000000010002011000000F9110000F911000008B501F0F3F8C046F0B557464E464546E0B472B66F4B01221A70002180226E48C02401F0D0FA80250021A2006B4801F024
:40004000CAFA0021EA006A4801F0C5FA69498022694801F0B7FA694E24208119FF228846002791468A4602CE4C46CBB2A143002B2AD0013BDDB2281C7A0001305244AC462C
:4000800045001078AB1E9C0743185078E40F18700223AB4216D0002C06D09478D078631818700423AB420DD0D45C6018D418647802330470D05CD418647840180233047019
:4000C000AB42F1D1013767444645CCD14C494D4D4D4A29604D4B4E4E4E4F4F4C4F49504DC1201A603E604F4B20604F4E29604F4F4F4C504D3F220120A3211A603E604E4A51
:4001000020604E4B296099264D484E4C4E4937041A604E4D0760B6220C604D4E4D484E4C53042F604D4933604D4A07604D4B27604D4F4E48052506260F6015601E60047841
:40014000022727430770017806250D43484E057033688022D0021843464D3060464C474F6E7A21783A782F2E10D9AB79A97AEA7A2F2B0BD9E878E9792A7A2F2806D92C781F
:4001800029796A792F2C01D96978AA783C4F3D4D3D4E39602A6030783C4B35241860052001F018F93A493B4F82253B480C602E061022802339493A601C0606602C4D384E49
:4001C00080223848384B0C60D7020121374A2F600660196017683C4314601CBC90469946A246F0BD1C700F4000300F4000310F4000400F402C16000080300F40AC16000004
:400200000300003300000140333333000400014033EE30300C000140000004400600D8000800044000010440B66D0300080104401802044000030440B60DC30008030440FB
:4002400000500F40000002B008500F4010500F4018500F4020500F4030500F4038500F402000004000800F40000009C000700F4000010B40C0F1FF0FCCF1FF0FCDF1FF0F62
:400280001CFF0B4020FF0B40FDF1FF0F28FF0B402CFF0B401C02024008010B4004010B40270000800000024000031A4080031A4010B5064C2378002B07D10548002802D067
:4002C000044800E000BF0121217010BDE000002000000000E815000008B5084B002B03D00748084900E000BF07480168002903D0064A002A00D0904708BDC04600000000A9
:40030000E8150000E4000020C800002000000000F0B55F464D4644465646F0B4754B7648764D04210122196002702C7887B00134E7B22F701F2F00D1B1E0012F00D1C2E01E
:40034000032F00D1B8E0072F00D1C8E00F2F00D1BFE06B4A6E781478B7003E01694BF11B0F19F85C684C2070697812788800451C2E01771BB946BF18FD5C93462570851C95
:400380002E01751BAE180296A846F55CC61C25703501AD1BAC46E3445E46F55CDF1925708C01201A86189D196C7982465748994404707E7991440670029D5E465C1967793F
:4003C0009D1907706C7998440470081C083086008701BD1BAC180295039418194779741C4B48250107702F1BBC18059404971D196F79B41C250107702F1BBD1801975C19AD
:40040000033667793401A61BB41807701F197F799044077050461F18B818877A3D489C4407704F46BF7A944407704746BF7A9E1907706746BF7A077002981F18B818877A65
:4004400035480770049FFF18B84690444746BF7A0770019FFF18BC4694446746BF7AB2180770977A2D4A07700398C65C1670059F0326F85C204F1070ED5C294815703E70C8
:40048000067807252940AE4331430170E35C137007B03CBC90469946A246AB46F0BD6B78174A01330024D8B214702C7008281DD068708700002450E7114A697802261670A0
:4004C0008F00022449E70E4A012417706F78BF0043E70B4A0424117069788F003DE7084A6878032313708700032436E76C700027002432E780E200E071000F40FC000020AD
:40050000C40400200401002042000F4041000F4051000F4043000F4053000F4052000F4070000F4008B5002000F0EEFF80B2FF23021C9A4319028A4202D0034B588008BDAC
:40054000014A00205080FAE7FC00002070B5144C84B0201C00F0DEF800F0F8FE114B03221A70114800F0E0FE00F0B6FF0F4800F0F1FF03AD00F0BEFF62B60F261E2000218B
:40058000AE700B4E28706970201C00F0C3F870880094172102222B6800F008FEF4E7C0460401002071000F401103000025050000FC00002010B58B00C4081919CBB21C01F3
:4005C000E11A07231840012484405218E143CCB213785079917A23402040214013705071537890799172D17A234020402140537090719378D079D172117B23402040214071
:400600009370D071D378107A1173517B234020402140D37010721379507A5173917B234020400C4013715072947310BDF0B51E1C8F00C30883B0041CF818C7B20192201C35
:40064000321CFFF7B7FF390101ADCA1BB31807202E780122A97820406C78151C1F78354085403D431D70151C5F79254085403D435D71151C9F7A0D4085403D439D72751093
:400680005F78154085403D435D7065109F79154085403D439D714D10DF7A154085403D43DD72B5109F78154085403D439D70A510DF79154085403D43DD718D101F7B154024
:4006C00085403D431D73F510DF78154085403D43DD70E5101F7A154085403D431D72CD105F7B15400911361124118540164014400A403D4382405F7A5D7386401D798440C5
:40070000101C9A7B2E433C4310431E715C72987303B0F0BD00B5402100230239C9B203704371837243708371C3728370C3710373C37003724373037143728373C3730375BE
:40074000437603744375837643748375C3768374C3750377C374037643771E300029DCD100BDC046F0B54D4644465F465646F0B483B0041C0D1C0D985E1B8046F01736185A
:400780004640171CB1463E1BF0173618211C4640B14500DCB9E00124A1461F1C2C1C131C0D1CBC4200DDA9E0081C111C021C3E1B8A1AF0B2D1175218834640B24A40C10FED
:4007C0000E187010FF21C6B200919D4201DA01230093BC4200DD8AE0381B0121D2B201404B4692460191002B00D093E0E0B2E9B20C9A4346FFF71AFF5246B61AF0B2C6B2E4
:4008000071B2002900DA93E0013464B2A7426EDB019A002A15D04846002800D08EE0E9B20C9A4346E0B2FFF701FF5146761AF3B2DEB272B2002A00DA8EE0013464B2A7428C
:4008400055DB391C4F46894621E0E1B20C9A4346E8B2FFF7EBFE5346F61AF1B2CEB272B2002A23DB013464B2002F29D0E8B2E1B20C9A4346FFF7DAFE5146721AD3B2DEB266
:4008800070B2002829DB013464B2A1452FDB002FDBD1E9B20C9A4346E0B2FFF7C7FE5346F61AF1B2CEB272B2002ADBDA00985B462D18CE1801346DB2F6B264B2002FD5D1A3
:4008C000E0B2E9B20C9A4346FFF7B0FE5146721AD3B2DEB270B20028D5DA009E59460134AD195A1864B26DB2D6B2A145CFDA03B03CBC90469946A246AB46F0BD2E1C201C65
:400900001D1C3C1C331C071C51E7002189461A1C291C46E7E8B2E1B20C9A4346FFF786FE5246B61AF0B2C6B271B2002900DB6BE7009B5844ED186DB2C6B265E7E1B20C9ABB
:400940004346E8B2FFF772FE5146761AF3B2DEB272B2002A00DB70E700985B442D186DB2DEB26AE770B51D1C84B01E0C4B1E041C98186A4696701580089D43B20195201CEA
:40098000221CFFF7EFFE04B070BDC04630B50C1C85B0411E1D1C8A181B0C69468B700D80089D52B20195211C231CFFF7DBFE05B030BDC046F0B557464E464546E0B489465F
:4009C000111C0D0C84B0AC46C5B203921F1C9246EB1C4A46D6B25AB290466B4652461A80681C6246B11C03AC9A7040B242464B4649B20197FFF7B6FE218868460180A3789B
:400A00000B3676B28370494640464246331C0197FFF7A8FE2188AA1C043550B26AB26D462980A478311CAC70331C0197FFF79AFE04B01CBC90469946A246F0BDF0B5574606
:400A40004E464546E0B4CDB21C1C061CC7B2681C84B08A46231CC1B2381C89460392FFF7E5FD7A1C53B29846181C5146039B009403220437FFF78AFF78B24F4679B2039BCA
:400A800000940422FFF76EFF681D41B2039B404600940322FFF77AFFA91D301C039B49B2009406220B35FFF75DFF69B20094301C0522039BFFF76AFF04B01CBC90469946FC
:400AC000A246F0BDF0B5051C85B0171C1C1CEDB20392009305223B1C0E1CFFF757FF281D47B2381C311C039BF6B200940422FFF739FFE91C321DC8B2231CD1B2039AFFF710
:400B000095FDAB1C711D58B249B2039B00940222FFF73CFFB01D41B2039B381C00940522FFF720FF321C6F1C0B3278B251B2039B009403220A36FFF729FFF1B2281C039A44
:400B4000231CFFF773FD05B0F0BDC046F0B5171C85B00C1C1D1C0392009307223B1C061CFFF700FFA11D301C039B49B2009505220336FFF70BFF70B20095211C0C22039BE3
:400B8000FFF7F0FE05B0F0BDF0B50D1C85B0171C1C1CEDB20392009305223B1C061CFFF7F5FE691C301C039BF6B249B200940622FFF7D8FE701C47B26A1D51B2381C039B96
:400BC00000940322FFF7E2FE331DA91D58B249B2039B00940522FFF7C5FE281C0B3041B2039B381C009403220A35FFF7CFFEE9B2301C039A231CFFF719FD05B0F0BDC046E3
:400C0000F0B5474680B4C7B27E1C84B094461C1C76B20D1C6346EDB280460392301C00940422FFF7B3FE691C4046039B49B200940A22FFF797FE681D41B2039B301C00946F
:400C40000322FFF7A3FE0437AA1D78B251B2039B009405220B35FFF785FE69B20094301C0322039BFFF792FE04B004BC9046F0BDF0B50C1CC6B2013185B01D1C071CC9B2B9
:400C8000301C03920436FFF7D1FC381C211C039B00950522FFF77AFE70B20095211C0C22039BFFF75FFE05B0F0BDC046F0B54F464646C0B41C1CC3B21F1C013785B0944619
:400CC0007FB20D1C061CEDB203929946381C634600940322FFF75AFE691D381C039B49B200940322FFF752FE281C0B3041B2039B381C00940322FFF749FE4F466A1C53B275
:400D000004379846301C191C7FB2039B009404220635FFF727FE6DB2381C4146039B00940422FFF71FFE301C291C039B00940522FFF718FE0094381C291C0522039BFFF7F7
:400D400011FE05B00CBC90469946F0BDF0B5474680B4C6B284B094461C1C0D1C731C071C039258B2009463460322EDB28046FFF70DFE691D01354046039B6DB249B2009491
:400D80000322FFF703FE0436381C291C039B00940422FFF7E7FD70B20094291C0B22039BFFF7E0FD04B004BC9046F0BDF0B5474680B4C6B284B094461C1C0D1C731C071C83
:400DC000039258B2009463460322EDB28046FFF7DDFD291C0B3101354046039B6DB249B200940322FFF7D2FD0436381C291C039B00940A22FFF7B6FD70B20094291C0A2249
:400E0000039BFFF7AFFD04B004BC9046F0BDC046F0B55F4656464D464446F0B4061C85B0101C03929346040CF2B2A446CDB21C1C131C914604332A1C02325BB2A8469A46F6
:400E400055B26B465A4648461A80023062469A7040B252462B1C0194FFF784FC494603AF013148B239886A461180BF784346834601339770301C291C5A465BB20194FFF736
:400E800071FC4046073041B2039B584600940322FFF77CFD5046291C039B00940A22FFF761FD0094301C291C0A22039BFFF75AFD05B03CBC90469946A246AB46F0BDC046FA
:400EC000F0B54F464646C0B48146C0B2061CCDB2013685B094461C1C0F1C76B2691D63460392804649B2301C00940322FFF74EFD4846391C039B00940C22FFF733FD424651
:400F0000043253B2681C994641B20094181C0422039BFFF727FDA91D4846039B49B200940522FFF71FFD0B35301C391C039B00940322FFF72BFD69B20094301C0322039BAC
:400F4000FFF724FD05B00CBC90469946F0BDC046F0B5474680B4CDB284B01C1C061C8846171CA91C03923B1C49B200940822F6B2FFF7F8FCB01C47B2381C4146039B009433
:400F80000322FFF703FD2A1C0B3251B2381C039B009403220136FFF7F9FCF6B26B1CD9B2301C039A231C0A35FFF740FBE9B2301C039A231CFFF73AFB04B004BC9046F0BD8C
:400FC000F0B5474680B4C6B2771C84B094461C1C7FB2634680460D1C0392381C00940322FFF7D4FC4046291C039B00940C22EDB2FFF7B8FC291C0B31381C039B49B2009493
:40100000032204360135FFF7C1FC70B269B200940A22039BFFF7A6FC04B004BC9046F0BDF0B5451C85B094466DB21C1C0E1C071C03920093281C63460422FFF7A7FC381C5D
:40104000311C039BF7B200940C22FFF78BFC391C0B31281C039B49B2009404220537FFF795FC79B20094281C0422039BFFF78EFC05B0F0BDF0B5461C85B0944676B21C1C93
:40108000071C0D1C03920093301C63460422FFF77DFC381C291C039B00940C220535FFF761FC69B20094301C0422039BFFF76EFC05B0F0BD00B583B001930F2807D9081C74
:4010C000049B111C019AFFF771FE03B000BD364B800018588746081C049B111C019AFFF7C9FFF2E7081C049B111C019AFFF762FCEBE7081C049B111C019AFFF79FFCE4E7BC
:40110000081C049B111C019AFFF7DCFCDDE7081C049B111C019AFFF719FDD6E7081C049B111C019AFFF730FDCFE7081C049B111C019AFFF765FDC8E7081C049B111C019ABD
:40114000FFF796FDC1E7081C049B111C019AFFF7ADFDBAE7081C049B111C019AFFF7F6FDB3E7081C049B111C019AFFF751FEACE7081C049B111C019AFFF7A2FEA5E7081C30
:40118000049B111C019AFFF7E3FE9EE7081C049B111C019AFFF714FF97E7081C049B111C019AFFF73DFF90E7EC15000070B584B0089C051C0094000B032102220F26039355
:4011C000FFF778FF280A3040039B009409210222FFF770FF28093040039B00940F210222FFF768FF301C2840009415210222039BFFF760FF04B070BD00B5FEE7F8B52A4B45
:401200004F464646581EC0B48446002B47D0274F0024BA683E6879689146002A22D0131C043B5807331C04CBC50F90460A1C414602C2111C981B814514D0002D06D07568F1
:40124000043320C2111C981B81450BD0181C20C8111C20C15B685360031D0A1D111C981B8145F3D1FE68002E14D0321F0B1C550710C3E80F5A1A96420CD0002803D010C377
:401280005D1AAE4206D0181C10C05C60031D5A1A9642F8D161461037481E8446B9D200F06BF9FFF753F9FEE701000000D818000010B50F4A0F48104C0023011C032B01D8CF
:4012C00099000959013302C2011C032B01D899000959013302C2302BEFD1FEF79DFE8024064B00220120E1051A60086010BDC04600000020F911000000000000C00000205C
:4013000038B5041C00F031F8054B06491D68A2052C1C0C4014431C6000F02BF838BDC04600E400E0FFFF3FFF10B5054B054904241C6088640020FFF7E3FF0348046010BDE0
:4013400080E100E00000002000E100E008B5002000F00FF808BDC0460230800804D0C0460138FDD1C046C0467047EFF3108072B6704780F31088704700B51F2800D901BEA7
:40138000024A800083181868196000BD4000002038B5041C0D1E032D00D901BE1F2C00D901BEFFF7E2FFA308084A99008B1803221440E40019680634A2409143A5400A1CE4
:4013C0002A431A60FFF7D5FF38BDC04600E400E001BE704708B5034B197A4843FFF7BCFF08BDC046CC00002010B50E200321FFF7CFFF1B490E20FFF7BFFF1A4B1A491B482A
:4014000001221A601A4C01601A4B1B491B481C6001601B4C1B481C490023236008601B4C1B481C4904600C68802040022043086019491A4C0B601A481A492360022402604B
:401440000C60194C20680243226018488022184CD1002160174A0380174B1A6010BDC0462915000020001A407002005300001A408400008004001A400000FF0F18001A4048
:401480001C001A400600040010001A400400040014001A4000031A4028021A4038021A4018021A40000F1A4030001A40CC04002080001A403E180000C804002008B5054BD7
:4014C000802219681006084318600A20FFF782FF08BDC04600001A4010B5054C2378002B03D1FFF781FF01202070FFF7E7FF10BD00010020034B8022196850020843186003
:401500007047C04604001A4008B5002805D1054B186801040A0C10B208BD0020FFF758FF0022F8E780011A40014B1A681A60704710021A4010B5041CFFF717FF044BA201CC
:401540001968C024A14311431960FFF712FF10BD00E400E010B5054B054901241C6008640320FFF7E7FF0348046010BD80E100E00000002000E100E070B50E4B0E4D0024B3
:40158000E81A85101E1CAC4204D0A100725890470134F8E700F08EF90849094A0E1C541AA5100024AC4204D0A300F05880470134F8E770BDC0180000C0180000C018000079
:4015C000C818000010B50023934203D0CC5CC4540133F9E710BD00B58218031C934202D019700133FAE700BD00000000BE100000E4100000F2100000001100000E110000F6
:401600001C1100002A11000038110000461100005411000062110000701100007E1100008C1100009A110000D61000007E10810001400280FD20000000DF0020100120026B
:4016400040F0000FC1043E0804200800803F00C00880044000020001200810043003C0C0030C0C300000AAAA00000000620400000000B00008FFFFFF00000040300000008D
:40168000000000000C0C0C0499090001F00040021012000000000000000000000000000000000000000000000000000002300F4029310F404F320F4045330F400D400F40AE
:4016C00015410F4002420F400C430F4002600F405B045F01042405010D200E62162117011C041E7224012504262227022D012E202F2136AA3C813D083E1045224E085620EC
:40170000680669046DC06F087D80800482208708C070C2F0C4B0CAF0CCF0CEF0D0A0D220DE10E004E40100BA02450455068A0702080109400A020B800C450F081004110864
:401740001241144515F01703184D19081AB21C401D281E80204525802740282229312BC42DC02F1C30083203330F343C35C036C0373038203A883BA04062410446BD470F2B
:40178000481C49FF4AFF4BFF4F405030580C590C5A0C5C995D095F0160F06240630264106512C062C104C7B0C820C9FFCAFFCBFFCF40D030DA0CDD09DF01E0F0E240E3027C
:4017C000E410E5120410050107210E290F80160817021C901D231E491F0424202510268827212D202E402F20369437023D203E083F804122452249204A084E0852015301E9
:401800005608576079407D808110840486018704892591449420950197029B029D019E019F01A004A140A210A440A522A688A720A904AC02B643C0F0C2F0C450CA70CCF03B
:40184000CE70D0A5D224DE18E001E220EE502C205002620867206C2071208710CA80D480D8C0DA80DC20E64050405302552057205B025D015F40850187608B029080A302D9
:40188000A520AA08AF02B442D4E0D6E0E210E650EA3082018310520157105B04660883049A09A310B608D403D602D801E808020111010000F8B5C046F8BC08BC9E467047D3
:4018C000D9020000B1120000F8B5C046F8BC08BC9E467047B1020000E8180000C800002018000000F0030000000000000000C05D80BB000030000000006CDC02000000000C
:4019000000000000000000000000000000000000000000000000000000000000000000000000000000000000000000000000000000000000000000000000000000000000A7
:401940000000000000000000000000000000000000000000000000000000000000000000000000000000000000000000000000000000000000000000000000000000000067
:401980000000000000000000000000000000000000000000000000000000000000000000000000000000000000000000000000000000000000000000000000000000000027
:4019C00000000000000000000000000000000000000000000000000000000000000000000000000000000000000000000000000000000000000000000000000000000000E7
:0200000490303A
:02000000F27795
:0200000490402A
:200000000000000000000000000000000000000000000000000000000000000000000000E0
:0200000490501A
:0C000000000204C81193110104D1040A8D
:0200000490600A
:0100000001FE
:00000001FF